:020000040800F2
:10000000E00F0020750200085724000803230008B1
:100010005524000817060008E92E0008000000001B
:10002000000000000000000000000000052600089D
:10003000310D00080000000059240008C526000802
:100040008F0200088F0200088F0200088F0200084C
:100050008F0200088F0200088F0200088F0200083C
:100060008F0200088F0200088F0200088F0200082C
:100070008F0200088F0200088F0200088F0200081C
:100080008F0200088F0200088F0200088F0200080C
:100090008F0200088F0200088F0200088F020008FC
:1000A0008F0200088F0200088F0200088F020008EC
:1000B0008F0200088F020008000000008F02000875
:1000C0008F0200088F0200088F0200088F020008CC
:1000D0008F020008492E00088F020008992E0008A0
:1000E0008F0200088F0200080000000000000000DE
:1000F0000000000000000000000000000000000000
:10010000000000008F020008000000008F020008BD
:100110008F020008000000008F02000800000000AD
:100120008F0200088F0200088F0200088F0200086B
:100130008F0200088F0200088F02000800000000F4
:100140008F0200088F0200088F0200088F0200084B
:100150008F0200088F0200088F0200088F0200083B
:100160008F0200088F0200088F02000800000000C4
:10017000000000008F0200080000000000000000E6
:100180008F0200088F0200088F0200088F0200080B
:100190008F02000800F002F800F05CF80AA090E876
:1001A000000C82448344AAF10107DA4501D100F032
:1001B00051F8AFF2090EBAE80F0013F0010F18BFA3
:1001C000FB1A43F00103184734300000543000009C
:1001D0000A444FF0000C10F8013B13F0070408BF6D
:1001E00010F8014B1D1108BF10F8015B641E05D00B
:1001F00010F8016B641E01F8016BF9D113F0080FC0
:100200001EBF10F8014BAD1C0C1B09D16D1E58BF51
:1002100001F801CBFAD505E014F8016B01F8016B88
:100220006D1EF9D59142D6D37047000000230024FB
:1002300000250026103A28BF78C1FBD8520728BFF6
:1002400030C148BF0B6070471FB502F0ADFF1FBD46
:1002500010B510BD00F0A5F91146FFF7F5FF02F04B
:100260006BFE00F0C3F903B4FFF7F2FF03BC00F02C
:10027000CBF900000948804709480047FEE7FEE740
:10028000FEE7FEE7FEE7FEE7FEE7FEE7FEE7FEE746
:1002900004480549054A064B704700003D27000801
:1002A00095010008E0090020E00F0020E00B00208D
:1002B000E00B002053EA020C00F069802DE9F04BBE
:1002C0004FF00006002B1FBFB3FA83F503FA05F4C5
:1002D00024FA05F65E4012BF1643B2FA82F502FA1E
:1002E00005F4C5F120051EBF22FA05FC44EA0C0402
:1002F000203556EA044C4FEA144418BF641C4FF0F2
:1003000000084FF00009904271EB030C39D300292B
:1003100019BFB1FA81F701FA07F6B0FA80F700FACF
:1003200007F6C7F120071EBF20FA07FC46EA0C06B5
:100330002037B6FBF4FCA7EB0507103F07F01F0BB7
:10034000CBF120060CFA0BFB2CFA06F644BFB346A1
:100350000026202FA4BF5E464FF0000B5BEA060C80
:1003600008BF4FF0010B19EB0B09ABFB027C48EB0C
:100370000608C01B06FB02CC0BFB03CC71EB0C0187
:10038000C1E70B46024641464846BDE8F08B13B52F
:100390004FF000004FF00001AFF30080BDE81C40BB
:1003A000704710B5431C02E010F8011B71B18107C2
:1003B000FAD14FF0013202C88C1A8C4314EAC211F0
:1003C000F9D0C01A0A0603D0C01E10BDC01A10BD55
:1003D0000A0401D0801E10BD0902FCD0401E10BDD1
:1003E000032A40F2308010F0030C00F0158011F861
:1003F000013BBCF1020F624498BF11F801CB00F839
:10040000013B38BF11F8013BA2F1040298BF00F88C
:1004100001CB38BF00F8013B11F0030300F0258049
:10042000083AC0F0088051F8043B083A51F804CB70
:10043000A0E80810F5E7121D5CBF51F8043B40F836
:10044000043BAFF30080D20724BF11F8013B11F841
:1004500001CB48BF11F8012B24BF00F8013B00F885
:1004600001CB48BF00F8012B704710B5203AC0F00F
:100470000B80B1E81850203AA0E81850B1E81850A5
:10048000A0E81850BFF4F5AF5FEA027C24BFB1E8E2
:100490001850A0E8185044BF18C918C0BDE8104053
:1004A0005FEA827C24BF51F8043B40F8043B08BF5C
:1004B0007047D20728BF31F8023B48BF11F8012B23
:1004C00028BF20F8023B48BF00F8012B70474FF0CF
:1004D000000200B5134694469646203922BFA0E894
:1004E0000C50A0E80C50B1F12001BFF4F7AF0907A0
:1004F00028BFA0E80C5048BF0CC05DF804EB890091
:1005000028BF40F8042B08BF704748BF20F8022BD3
:1005100011F0804F18BF00F8012B70474FF0013CDD
:1005200050F8042B51F8043B9A4221D1A2EB0C0362
:10053000934313EACC1317D150F8042B51F8043B22
:100540009A4215D1A2EB0C03934313EACC130BD1BF
:1005500050F8042B51F8043B9A4209D1A2EB0C034A
:10056000934313EACC13DBD04FF00000704700BF79
:10057000D01A01BAB1FA81F101F0180122FA01F0A2
:10058000CB40C1F12001DBB2C0B2C01A2CFA01F39A
:10059000D11A914311EAC311E6D1704770477047F1
:1005A0007047754600F02CF8AE4605006946534684
:1005B00020F00700854618B020B5FFF769FEBDE8BA
:1005C00020404FF000064FF000074FF000084FF0BA
:1005D000000B21F00701AC46ACE8C009ACE8C0094B
:1005E000ACE8C009ACE8C0098D46704710B50446B8
:1005F000AFF300802046BDE81040FFF734BE000096
:10060000004870478009002001491820ABBEFEE772
:10061000260002007047FEE770B5FE49FE48FFF76E
:100620007DFFFC4C2C3C08B1206A01E001202062D7
:10063000F94D4FF4FA76643D0E2876D2DFE800F0EB
:1006400099074C9ADBFDFCFBFAF9F8F7F6F5642103
:10065000F148FFF73CFFEF48401DFFF7A2FEED49D0
:1006600082B23346491DED4801F0B6FD304600F038
:10067000AFFBE9486438FFF794FE284410F8040CF7
:100680004F2808D1E4486438FFF78BFE284410F85F
:10069000030C4B2808D0DF48401DFFF782FEDD49E0
:1006A00082B23346491D08E3DB486438FFF779FE20
:1006B000D94982B264393346A1F5267001F08CFD28
:1006C000C82000F085FBD3483830FFF76AFED149D7
:1006D00082B23346383140E0CE484630FFF761FE03
:1006E000CC4982B233464631CC4801F075FD3046E4
:1006F00000F06EFBC8486438FFF753FE284410F83A
:10070000040C4F2808D1C4486438FFF74AFE284437
:1007100010F8030C4B2809D0BE484630FFF741FEC5
:10072000BC4982B233464631C7E222E0BA48643857
:10073000FFF737FEB84982B264393346A1F5267017
:1007400001F04AFDC82000F043FBB2485130FFF7EA
:1007500028FEB04982B233465131B048843801F0A6
:100760003BFDAD4864216438FFF7B1FE206A401CB0
:10077000206270BDA7485D30FFF713FEA54982B225
:1007800033465D31A54801F027FD304600F020FBDF
:10079000A1486438FFF705FE284410F8040C4F28E0
:1007A00008D19D486438FFF7FCFD284410F8030C7D
:1007B0004B2808D097485D30FFF7F3FD954982B28A
:1007C00033465D3179E294486438FFF7EAFD924997
:1007D00082B264393346A1F5267001F0FDFCC820D1
:1007E00000F0F6FA8B486630FFF7DBFD894982B2EC
:1007F00033466631B1E787487730FFF7D2FD854948
:1008000082B233467731854801F0E6FC304600F08D
:10081000DFFA81486438FFF7C4FD284410F8040C5F
:100820004F2812D17C48643808E020E2E2E1AAE1D6
:100830006CE12EE1F4E0ABE069E027E0FFF7B1FD09
:10084000284410F8030C4B2808D072487730FFF783
:10085000A8FD704982B2334677312EE26E48643883
:10086000FFF79FFD6C4982B264393346A1F52670CB
:1008700001F0B2FCC82000F0ABFA66488230FFF706
:1008800090FD644982B23346823166E76148923016
:10089000FFF787FD5F4982B2334692315F4801F02E
:1008A0009BFC304600F094FA5B486438FFF779FD12
:1008B000284410F8040C4F2808D157486438FFF733
:1008C00070FD284410F8030C4B2808D05148923092
:1008D000FFF767FD4F4982B233469231EDE14E4852
:1008E0006438FFF75EFD4C4982B264393346A1F5A6
:1008F000267001F071FCC82000F06AFA45489E306D
:10090000FFF74FFD434982B233469E3125E7414808
:10091000AB30FFF746FD3F4982B23346AB313F482B
:1009200001F05AFC304600F053FA3B486438FFF7B8
:1009300038FD284410F8040C4F2808D13648643894
:10094000FFF72FFD284410F8030C4B2808D031483E
:10095000AB30FFF726FD2F4982B23346AB31ACE115
:100960002D486438FFF71DFD2B4982B264393346A8
:10097000A1F5267001F030FCC82000F029FA2548C6
:10098000D330FFF70EFD234982B23346D331E4E67C
:100990002048E530FFF705FD1E4982B23346E531B8
:1009A0001E4801F019FC304600F012FA1A4864386B
:1009B000FFF7F7FC284410F8040C4F2808D116481C
:1009C0006438FFF7EEFC284410F8030C4B2808D0DD
:1009D0001048E530FFF7E5FC0E4982B23346E531B9
:1009E0006BE10D486438FFF7DCFC0B4982B26439D7
:1009F0003346A1F5267001F0EFFBC82000F0E8F9BE
:100A00000448F430FFF7CDFC024982B23346F4319A
:100A1000A3E600002C00002060060020E803002070
:100A2000BE48FFF7BEFC82B23346BC49BC4801F069
:100A3000D3FB304600F0CCF9BA48FFF7B2FC2844AB
:100A400010F8030C53280ED0B648FFF7AAFC284430
:100A500010F8030C4B2806D0B048FFF7A2FC82B276
:100A60003346AE4929E1AF48FFF79BFCAD4982B25E
:100A70003346A1F5267001F0AFFBC82000F0A8F9BD
:100A8000A6480D30FFF78DFCA44982B233460D31E4
:100A900063E6A2481930FFF784FCA04982B23346CE
:100AA00019319F4801F098FB304600F091F99D48BC
:100AB000FFF777FC284410F8040C4F2807D1994819
:100AC000FFF76FFC284410F8030C4B2808D093481C
:100AD0001930FFF766FC914982B233461931ECE0D8
:100AE0009048FFF75EFC8F4982B23346A1F526702D
:100AF00001F072FBC82000F06BF988482530FFF741
:100B000050FC864982B23346253126E68348303090
:100B1000FFF747FC814982B233463031804801F00B
:100B20005BFB304600F054F97E48FFF73AFC28445E
:100B300010F8040C4F2807D17A48FFF732FC2844FC
:100B400010F8030C4B2808D074483030FFF729FC0C
:100B5000724982B233463031AFE07248FFF721FC70
:100B6000704982B23346A1F5267001F035FBC820EA
:100B700000F02EF969484230FFF713FC674982B252
:100B800033464231E9E56848FFF70BFC82B2334651
:100B90006549634801F020FB304600F019F96148CF
:100BA000FFF7FFFB284410F8040C4F2807D15D48DD
:100BB000FFF7F7FB284410F8030C4B2806D05A48DF
:100BC000FFF7EFFB82B23346574976E05548FFF70F
:100BD000E8FB544982B23346A1F5267001F0FCFAD5
:100BE000C82000F0F5F85148FFF7DBFB82B233462E
:100BF0004E49B2E549485230FFF7D3FB474982B22C
:100C000033465231464801F0E7FA304600F0E0F84A
:100C10004448FFF7C6FB284410F8040C4F2807D1BE
:100C20004048FFF7BEFB284410F8030C4B2808D0BF
:100C30003A485230FFF7B5FB384982B23346523159
:100C40003BE03848FFF7ADFB364982B23346A1F5A9
:100C5000267001F0C1FAC82000F0BAF82F486430BD
:100C6000FFF79FFB2D4982B23346643175E52F486B
:100C70001030FFF796FB2D4982B2334610312848D9
:100C800001F0AAFA304600F0A3F82648FFF789FBE6
:100C9000284410F8040C4F2807D12248FFF781FBA5
:100CA000284410F8030C4B280CD020481030FFF7D4
:100CB00078FB1E4982B233461031BDE870401848B7
:100CC00001F08ABA1748FFF76CFB164982B2334627
:100CD000A1F5267001F080FAC82000F079F81348D9
:100CE0002230FFF75EFB82B210490D4833462231B5
:100CF000843801F071FA0948F238FFF752FB82B2EA
:100D0000064907483346F239843801F065FA642110
:100D10000448FFF7DCFB0F202AE500003201002029
:100D2000E8030020FC050020F00700209F020020BF
:100D3000704772B6FEE710B590F825100022022920
:100D400005D00421C16380F82420012010BD016872
:100D50000B6823F00E030B6001680B6823F001039E
:100D60000B6090F84410046C01F01C03012101FA9F
:100D700003F3636080F8251080F82420104610BD2E
:100D800010B590F825100024022903D00421C16376
:100D900001241AE001680A6822F00E020A60016864
:100DA0000A6822F001020A6090F84410036C01F016
:100DB0001C02012101FA02F25A6080F8251000217C
:100DC00080F82410816B01B18847204610BD0000D7
:100DD00070B5044600F0FEF80546601C02D00448D9
:100DE0000078044400F0F6F8401BA042FAD370BD2E
:100DF000D00200202DE9F04FDFF8AC91002303254D
:100E0000A9F1040B85B04FF0010C0F2709F1040A7A
:100E1000ABF1040EBFE000BF0CFA03F6324075D010
:100E20000C7904F00304012C01D0022C1BD184683E
:100E300000945C0005FA04F80494009C24EA080479
:100E40000094D1F80C80049C08FA04F8009C48EA4D
:100E50000408C0F808804468B4430E79C6F300164D
:100E60009E40264346600C79E443A4070AD0C46838
:100E70004FEA430805FA08F6B4438E6806FA08F606
:100E80002643C6600C7904F00304022C10D1DC0860
:100E900000EB84040294246A5E074FEAD66807FADE
:100EA00008F6B4430E6906FA08F62643029C266249
:100EB00004684FEA430805FA08F6B4430E7906F0D1
:100EC000030606FA08F6264306604C6814F4403F11
:100ED00060D0364C266E46F001062666246E23F05E
:100EE000030604F001040094314C34440294A468D5
:100EF0009E074FEA167807FA08F6B443B0F1904F10
:100F000005D02C4EB04204D1012612E042E000266A
:100F10000FE0294EB04201D102260AE0274EB0422E
:100F200001D1032605E0264EB04201D1042600E09F
:100F3000072606FA08F62643029CA660D9F8006048
:100F40004C46D1F8048096435FEAC82800D5164382
:100F50002660DAF800405646D1F8048094435FEAF0
:100F6000882800D514433460DBF800405E46D1F891
:100F7000048094435FEA883800D514433460DEF877
:100F800000407646D1F8048094435FEAC83800D523
:100F9000144334605B1C0A6832FA03F47FF43CAFFC
:100FA00005B000F00FB80000080401400010024036
:100FB000000001400004004800080048000C004800
:100FC0000010004830BCBDE8C08F0AB18161704795
:100FD000816270470148806870470000D00200209D
:100FE000024881680278114481607047D002002075
:100FF00010B50024032000F071F80F2000F008F86D
:1010000008B1012401E000F025F8204610BD0000E1
:1010100070B50E4E05460024307898B14FF47A71C1
:10102000B1FBF0F00A490968B1FBF0F000F0FAFDFD
:1010300040B9102D06D200222946501E00F02EF88D
:10104000756000E00124204670BD0000D002002041
:10105000DC020020094808B5016E41F0010101667B
:10106000016E01F001010091816D41F080518165B7
:10107000806D00F08050009008BD0000001002401C
:10108000002809DB00F01F02012191404009800087
:1010900000F1E020C0F8001170470000F0B40E4BE2
:1010A0001B680C46C3F30223C3F10705042D00D9C6
:1010B0000425191D072901D2002300E0DB1E0126AB
:1010C00006FA05F1491E214099409E40761E1640C1
:1010D0003143F0BC01F009BF0CED00E0064900F01F
:1010E000070208684FF6FF03184040EA0220034A4F
:1010F00010430860704700000CED00E00000FA05A6
:101100001649B0F5007F0868C0F3412009D00228D5
:1011100005D0086820F4C06040F4806008600020BA
:1011200070470128FBD0086820F4C06040F40070CC
:1011300008600B483222006850430A4AB0FBF2F0C4
:10114000401C00E0401E4A69520501D50028F9D133
:1011500048694005E3D50320704700000070004057
:10116000DC02002040420F000248006800F4C0602A
:1011700070470000007000402DE9F84F044600273A
:101180000088C04D3E46000515D5E06C60B1B0F555
:10119000000F04D0B0F5400F2BD001270AE0E8681B
:1011A00040F48030E86024E00021201D01F056F971
:1011B00007001ED03E46206880033AD5A86D4FF048
:1011C0000008C00009D4A86D40F08050A865A86D43
:1011D0004FF0010800F080500090DFF8ACA2DAF880
:1011E000001041F48071CAF80010FFF7F3FE814649
:1011F00010E0D5F88800E16C20F440000843C5F801
:101200008800D8E7FFF7E6FEA0EB0900022801D925
:10121000032705E0DAF80000C005F3D5002F7CD0E5
:101220004FEA0706B8F1000F03D0A86D20F08050F8
:10123000A8652078C00707D0D5F88800216A20F07B
:1012400003000843C5F888002078800707D5D5F843
:101250008800616A20F00C000843C5F888002078F7
:10126000400707D5D5F88800A16A20F03000084370
:10127000C5F888002078000707D5D5F88800E16A0E
:1012800020F0C0000843C5F888002078800607D504
:10129000D5F88800216B20F440600843C5F8880029
:1012A0002088800507D5D5F88800616C20F440209F
:1012B0000843C5F888002088400507D5D5F8880080
:1012C000A16C20F440100843C5F88800207840063F
:1012D00007D5D5F88800616B20F440500843C5F865
:1012E00088002078000607D5D5F88800A16B20F487
:1012F00040400843C5F888002088C00507D5D5F8C8
:101300008800E16B20F440300843C5F8880020686D
:10131000C00209D5D5F89C0000E01CE0216C20F04B
:1013200003000843C5F89C0020884FF00067800444
:101330004FF080684ED5D5F88800216D20F04060D0
:101340000843C5F88800206DB8423BD1E86840F4F6
:101350008010E8603EE0D5F8900010F4407014D0A2
:10136000616E814211D0D5F89000D5F8901020F42C
:10137000407041F48031C5F89010D5F8901021F4F8
:101380008031C5F89010C5F89000C00711D0FFF764
:1013900021FE074641F2883907E000BFFFF71AFE39
:1013A000C11B494501D903263CE7D5F890008007C9
:1013B000F4D5D5F89000616E20F440700843C5F86C
:1013C00090002FE7404505D10121201D01F046F88E
:1013D00000B106462068000317D5D5F88800616D76
:1013E00020F040600843C5F88800606DB84204D121
:1013F000E86840F48010E86007E0404505D101212D
:10140000201D01F02BF800B106462068400317D5D7
:10141000D5F88800A16D20F040600843C5F8880029
:10142000A06DB84204D1E86840F48010E86007E09D
:10143000404505D10121201D01F010F800B10646FC
:101440002088400411D5D5F88800E16D20F0405087
:101450000843C5F88800E06DB0F1805F05D1022136
:10146000201D00F0FBFF00B106462068C00306D532
:1014700055F8880F216E20F0004008432860304660
:1014800000F004B8001002400070004018BCBDE835
:10149000E08F00002DE9F0470F4605006BD0494E64
:1014A000306800F00700B84209D2306820F0070029
:1014B00038433060306800F00700B8425BD12878CC
:1014C000414C80070AD5A868A16801F0F001884264
:1014D00004D9A16821F0F0010143A1602878C00778
:1014E0002CD06868032811D0022812D0216898B146
:1014F000490500293FDAA16821F003010143A160F9
:10150000FFF768FD804641F2883910E021688901C3
:10151000EFE721688903ECE78907EAE7FFF75AFD5F
:10152000A0EB0801494502D90320BDE8F087A06877
:10153000696800F00C00B0EB810FEFD128788007CC
:101540000AD5A868A16801F0F001884204D2A16818
:1015500021F0F0010143A160306800F00700B842BB
:101560000BD9306820F0070038433060306800F055
:101570000700B84201D00120D7E72878400705D5F9
:10158000A068E96820F4E0600843A06028780007BC
:1015900006D5A068296920F4605040EAC100A06027
:1015A00000F03EF8A168094AC1F30311515C01F053
:1015B0001F01C8400649086006480068BDE8F047BA
:1015C000FFF726BD0020024000100240B4310008A1
:1015D000DC020020D4020020054806490068896822
:1015E000054AC1F30221515C01F01F01C840704758
:1015F000DC02002000100240F431000805480649D2
:1016000000688968054AC1F3C221515C01F01F01DD
:10161000C8407047DC02002000100240F43100088E
:1016200070B52549002318468A68CC6812F00C0270
:1016300004F00306214C4FEA640509D00C2A05D0BA
:10164000042A32D0082A00D1284670BD012E10D1BC
:101650000B681B0704D4D1F89430C3F3032302E0D2
:101660000B68C3F30313164E56F82330DAB10C2A75
:10167000EBD1C86800F00300022818D0032818D066
:101680001846CA68CB68C2F30212C3F30623434369
:10169000521CB3FBF2F2C868C0F34160401C40002A
:1016A000B2FBF0F070BD184670BD204670BD2046FC
:1016B000E7E72846E5E70000001002400024F400B8
:1016C000C43100082DE9F84304006FD0FA4DA86832
:1016D00000F00C06E86800F003072078C00664D527
:1016E00076B10C2E01D1012F0AD0A06900282868FC
:1016F0007AD040F001002860FFF76CFC80465DE086
:101700002868800702D5A0690028DED0216A2868F1
:10171000000703D5286800F0F00004E0D5F8940035
:10172000F02202EA1010814216D9084600F02CFF80
:1017300000283BD1286840F0080028602868216A0A
:1017400020F0F000084328606868E16920F47F40D9
:1017500040EA0120686016E0286840F00800286030
:101760002868216A20F0F000084328606868E16971
:1017700020F47F4040EA0120686026B9206A00F02A
:1017800003FF0028D5D1FFF74BFFA968CB4AC1F36F
:101790000311515C01F01F01C840C9490860C948E4
:1017A0000068FFF735FC00287ED12EE0CAE000BFBC
:1017B000FFF710FCA0EB0800022876D82868800705
:1017C000F6D5286840F0080028602868216A20F0D3
:1017D000F000084328606868E16920F47F4040EA2F
:1017E0000120686011E0FFE720F001002860FFF7AA
:1017F000F1FB804606E000BFFFF7ECFBA0EB080022
:101800000228DAD828688007F6D42078C00740D0AC
:10181000082E18D00C2E01D1032F14D06068B0F51B
:10182000803F17D0B0F5A02F286817D020F4803063
:101830002860286820F4802028606068E0B1FFF705
:10184000C9FB804614E02868800322D56068002820
:1018500078D01EE0286840F48030EDE740F4802026
:101860002860F7E7FFF7B6FBA0EB08006428A4D8D0
:1018700028688003F6D50CE0FFF7ACFB804605E056
:10188000FFF7A8FBA0EB0800642896D8286880031F
:10189000F6D4207880073BD5042E11D00C2E01D130
:1018A000022F0DD0E06801E0AAE1FFE000282868DF
:1018B0001ED040F480702860FFF78CFB07460CE0D8
:1018C000286840050CD5E0680028C1D008E000BFBA
:1018D000FFF780FBC01B022893D828684005F7D586
:1018E0006868217C20F0FE4040EA016068600FE0FB
:1018F00020F480702860FFF76DFB074605E000BF0D
:10190000FFF768FBC01B0228B1D828684005F7D450
:101910002078000729D560690028D5F8940012D0F6
:1019200040F00100C5F89400FFF754FB074604E0BF
:10193000FFF750FBC01B022899D8D5F89400800708
:10194000F6D512E02BE120F00100C5F89400FFF776
:1019500041FB074605E000BFFFF73CFBC01B022828
:1019600085D8D5F894008007F6D42078400766D54E
:10197000A86D0027C00008D4A86D40F08050A8656D
:10198000A86D012700F0805000904F480168C905FC
:1019900012D40168814641F480710160FFF71AFB9F
:1019A000804605E0FFF716FBA0EB080002287DD873
:1019B000D9F80000C005F5D5A068012816D0052883
:1019C000D5F8900017D020F00100C5F89000D5F8A8
:1019D000900020F0040000BFC5F89000A06841F21C
:1019E0008839C0B1FFF7F6FA80460FE0D5F89000CD
:1019F00040F00100F0E740F00400C5F89000F5E782
:101A0000FFF7E8FAA0EB080149454FD8D5F8900058
:101A10008007F5D50EE0FFF7DDFA804606E000BF4F
:101A2000FFF7D8FAA0EB080149453FD8D5F8900058
:101A30008007F5D41FB1A86D20F08050A8652078EC
:101A4000800628D5606A0028D5F8980012D040F0AA
:101A50000100C5F89800FFF7BDFA074605E000BF92
:101A6000FFF7B8FAC01B022820D8D5F898008007E5
:101A7000F6D510E020F00100C5F89800FFF7AAFAAB
:101A8000074604E0FFF7A6FAC01B02280ED8D5F8D7
:101A900098008007F6D4A06AF0B3022816D00C2E66
:101AA0007DD0286820F08070286000E0A7E0FFF774
:101AB00091FA0446A6E0000000100240B43100088C
:101AC000DC020020D402002000700040E868E26AD6
:101AD00000F00301914228D1216B00F0700209014E
:101AE0001039914221D1626B00F4FE41B1EB022F1B
:101AF0001BD194F8382000F07841B1EBC26F14D1BB
:101B0000A18F00F4C00249084905A1F500119142D6
:101B10000BD194F8401000E06AE04908490600F053
:101B2000C060A1F1007181424BD00C2E73D02868A7
:101B3000400170D4286820F080702860FFF74AFACE
:101B4000064604E0FFF746FA801B022857D82868AB
:101B50008001F7D4F4E90B016FF00F0202EB0111E1
:101B60000843218A5204490802EB4151A26841EA24
:101B700002210843217D4FF07E42490802EB41617A
:101B80000843217B40EAC160E968244A11400843C8
:101B9000E860286840F080702860E86800E03AE07B
:101BA00040F08070E860FFF715FA044605E000BFDA
:101BB000FFF710FA001B022821D828688001F7D50A
:101BC00027E02868800124D4286840F080702860CD
:101BD000E86840F08070E860FFF7FCF9044604E034
:101BE000FFF7F8F9001B022809D828688001F7D50B
:101BF0000FE000BFFFF7EEF9001B022802D9032017
:101C0000BDE8F88328688001F4D4E86804490840F6
:101C1000E8600020F4E70120F2E700008C809D01DD
:101C2000FCFFEEFE10B5401EB0F1807F01D3012015
:101C300010BD4FF0E02460610F21601701F055F9ED
:101C40000020A06107202061002010BD7047704770
:101C5000704700002DE9F04102680446D069116820
:101C6000936840F60F0528424FF0000505D186061F
:101C70007ED58E067CD5616E1BE1994F03F001067F
:101C80000F40374374D0C70709D0CF0507D50127C8
:101C90001762D4F8802042F00102C4F88020820745
:101CA0000AD5DA0708D0276802223A62D4F88020E1
:101CB00042F00402C4F8802042070AD5DA0708D0AF
:101CC000236804221A62D4F8802042F00202C4F889
:101CD000802002070CD501F02002324308D023688F
:101CE00008221A62D4F8802042F00802C4F880204A
:101CF00002050BD54A0109D523684FF400621A6228
:101D0000D4F8802042F02002C4F88020D4F880204B
:101D1000002A35D0800605D5880603D5616E09B145
:101D200020468847D4F8800021688968490602D493
:101D300010F0280F26D0204600F0A4FD206880680F
:101D400040061AD52068083050E8001F21F04001F5
:101D500040E80012002AF5D1206F70B1614981631B
:101D6000206FFFF70DF800280AD0206F816B01E08B
:101D70000EE02046BDE8F04108472046FFF768FF27
:101D8000BDE8F0812046FFF763FFC4F88050F7E715
:101D9000276E2026012F7BD1C70679D5CF0677D5B0
:101DA0001020106220688068400641D5216F0868C5
:101DB00040680004000CE3D0B4F858208242DFD918
:101DC000A4F85A000868006880062AD4206850E801
:101DD000001F21F4807140E80012002AF6D120682B
:101DE000083050E8001F21F0010140E80012002AED
:101DF000F5D12068083050E8001F21F0400140E88C
:101E00000012002AF5D1E6672566216851E8000F27
:101E100020F0100041E80002002AF6D1206FFEF702
:101E20008AFFB4F85800B4F85A10401A81B22AE078
:101E3000B4F85800B4F85A10401A81B2B4F85A00F5
:101E400000289DD000299BD0226852E8000F20F482
:101E5000907042E80003002BF6D12068083050E86B
:101E6000002F22F0010240E80023002BF5D1E667A5
:101E700025666566226852E8000F20F0100042E8EF
:101E80000003002BF6D12046FFF7E0FE78E7FFE7DE
:101E9000C70209D55B0207D54FF4801010622046B7
:101EA000BDE8F041FFF7D3BE020606D50A0604D509
:101EB000A16E00297FF45DAF62E74006E6D54806D3
:101EC000E4D52046026852E8001F21F0400142E8B4
:101ED0000013002BF6D18667856600F011FA4FE7F4
:101EE000200100047128000810B5040002D0A06F82
:101EF00010B107E0012010BD002084F874002046D6
:101F000000F026F82420A0672068016821F0010174
:101F10000160204600F07AFD0128ECD0606A10B123
:101F2000204600F013FC2068416821F49041416094
:101F30002068816821F02A0181602068016841F0F1
:101F4000010101602046BDE8104000F063BC0000C4
:101F50002DE9F043A1B0044614211AA8FEF7B7FA00
:101F600068216846FEF7B3FA48492068484C0226C3
:101F7000032700254FF44069884227D14FF0080815
:101F80006846CDF800800B95FFF7F6F808B1FEF72C
:101F9000D0FEA06D40F40020A065A06D00F40020EC
:101FA0001F90E06C40F00400E064E06CCDF86890B5
:101FB00000F00400CDE91E801D97CDE91B651AA92C
:101FC0003448FEF717FF21B0BDE8F08332494FF0E7
:101FD000070888422BD10120009008956846FFF73A
:101FE000CBF808B1FEF7A5FE206E40F480402066D5
:101FF000206E00F480401F90E06C40F00100E0642F
:10200000E06C1CAA00F001001F904FF4C060CDE905
:102010001A0682E8A0011AA94FF09040FEF7EAFEE6
:10202000002201212520FFF739F825202BE01B494C
:102030008842C8D104200A9500906846FFF79CF8B2
:1020400008B1FEF776FEA06D40F48020A065A06D7B
:1020500000F480201F90E06C40F00200E064E06C2F
:10206000CDF8689000F00200CDE91E801D97CDE903
:102070001B651AA90A48FEF7BDFE0022022127208F
:10208000FFF70CF82720FEF7FBFF9CE7004C004011
:10209000001002400008004800380140004800409D
:1020A0000004004830B4C36F202B20D1E1B1DAB175
:1020B00090F87430012B1AD0012380F8743000237B
:1020C00003660C4C0368A3420BD05B681B0208D567
:1020D000046854E8003F43F0806344E80035002D75
:1020E000F6D130BC00F0A2BD012030BC7047022008
:1020F000FBE70000008000402DE9F041334907462E
:1021000000680968324D334C884209D10122E11C34
:102110002E48FFF7C7FFA069E1782954401CA06151
:102120002B48FEF73EF92844002610F8020C4FF029
:1021300001080D2813D12648FEF733F9284410F87A
:10214000010C0A280BD12249642201F1C800FEF7D4
:102150008CF964211E48FEF7BAF9C4E906681B49E8
:102160001B4D843938680968643588420BD1194998
:102170000122091DA5F50D70FFF794FF2069217953
:102180002954401C206112486430FEF70AF92844A3
:1021900010F8020C0D2816D10D486430FEF701F935
:1021A000284410F8010C0A280DD109496422643131
:1021B00001F1C800FEF759F9054864216430FEF7C3
:1021C00086F9C4E90468BDE8F0810000E803002056
:1021D00034050020000000202DE9F8430446806FFC
:1021E0001F4616460D4620284FD1CDB1C6B194F8F2
:1021F0007400012849D0012084F874004FF00008D1
:10220000C4F880802120A067FEF7E4FEA4F85060A7
:102210008146A4F85260A068B0F5805F03D004E066
:102220000120BDE8F883206928B12E465FF0000543
:1022300084F8748010E00026FAE78021204600F040
:102240009FFDB8B9C6B116F8010B21680885B4F82E
:102250005200401EA4F85200B4F852004B464FF012
:10226000000200970028E8D14FF04001204600F01E
:1022700087FD30B10320D4E735F8020BC0F3080026
:10228000E3E72020A0670020CBE70220C9E7000099
:10229000836F202B2DD1B9B1B2B190F87430012BDE
:1022A00027D0012380F87430C164A0F85020A0F832
:1022B000522000218166C0F8801021228267826846
:1022C000B2F5805F02D003E001207047026972B16D
:1022D000094A826680F87410026852E8001F41F0D3
:1022E000800142E80013002BF6D100207047034A1A
:1022F000EFE7022070470000352D0008E52C0008AC
:102300007047FEE72DE9F04186B014216846FEF7DC
:10231000DEF82348C16C41F00401C164C16C01F0D6
:1023200004010591C16C41F00201C164C16C01F06E
:1023300002010591C16C41F00101C164C06C194FEB
:1023400000F00100059000222A213846FEF73DFEEC
:10235000DFF8548046F21B06002231464046FEF765
:1023600034FE2A20009001250024CDE9015469465D
:1023700038460394FEF73EFD0096CDE901546946C8
:1023800040460394FEF736FD4FF44870CDE9000453
:10239000694640460294FEF72DFD06B0BDE8F08187
:1023A0000010024000080048000400480C4810B526
:1023B0000A4901604FF4E1314160002181600C2243
:1023C000C160C0E904128161C16101624162FFF72D
:1023D0008BFD002801D072B6FEE710BD004C004016
:1023E000E00200200C4810B50A4901604FF4E131C9
:1023F0004160002181600C22C160C0E9041281614A
:10240000C16101624162FFF76FFD002801D072B621
:10241000FEE710BD00380140640300200C4810B5F1
:102420000A4901604FF4E1314160002181600C22D2
:10243000C160C0E904128161C16101624162FFF7BC
:1024400053FD002801D072B6FEE710BD00480040E1
:10245000E8030020FEE7FEE7704700002DE9F041A9
:10246000444C05468846E0680026810728680DD060
:10247000E16801F00301814216D1A8B1E068696802
:10248000C0F30210401C88420ED120E0012804D085
:10249000022805D0032807D108E02168890701E058
:1024A00021684905002907DB01265FE021688903CF
:1024B00002D421684903F5E7E1686A686FF00F0309
:1024C00021F0730103EB021211430143E160206824
:1024D00020F080602060FEF77DFD074605E000BF2C
:1024E000FEF778FDC01B022837D820680001F7D41A
:1024F000B8F1000F18D0B8F1010F1DD0287D4FF0B2
:102500007E41400801EB4060A96840EA0120216952
:10251000194A114008432061206840F08060206023
:10252000FEF758FD07461AE0A868297B000240EA3A
:10253000C1602169114AECE7288A1149400801EB82
:102540004050A96840EA012021690E4AE1E700BF36
:10255000FEF740FDC01B022801D9032606E02068D3
:102560000001F5D52069A969084320613046BDE81E
:10257000F081000000100240FF80FFF9FF80FF079C
:102580000000E0FFFF809FFFF8B51C4D06460024C9
:10259000A86DC00002D5FEF7E7FD0DE0A86D40F084
:1025A0008050A865A86D00F080500090FEF7DCFD1B
:1025B000A96D21F08051A965B0F5007F04D0802E6F
:1025C00007D94FF003040AE0802E08D9A02E01D8C5
:1025D00004E001D1022402E0702E00D10124084859
:1025E000016821F0070121430160006800F0070045
:1025F000A04201D00120F8BD0020F8BD001002402B
:10260000002002407047000010B52B4C20782F2886
:1026100050D16422294904F16400FDF7E1FE274905
:102620006422643104F59670FDF7DAFE002004F1AF
:10263000C801221852780A54401C6328F9DB20484C
:10264000FDF7AFFE1E49642208446439FDF7C8FE59
:1026500019486430FDF7A5FE174964226431084427
:102660006431FDF7BDFE14486430FDF79AFE12494F
:1026700082B24FF4FA7464312346A1F53770FFF744
:10268000ABFD0F48FDF78DFE0D4982B22346A1F543
:102690008560FFF7A1FD084864216430FDF717FF4E
:1026A00064210748FDF713FFBDE81040642102488C
:1026B000FDF70DBF10BD000060060020A90100203D
:1026C0008C070020FEF78CBC00B597B0442168460B
:1026D000FDF7FDFE142111A8FDF7F9FE4FF400707F
:1026E000FEF70EFD08B172B6FEE70220C1010391AC
:1026F0004021009004910A900121CDE90B010A21AB
:102700000D910721CDE90E1010906846FEF7DAFF13
:1027100008B172B6FEE70F2011900320129000203E
:10272000139014901590042111A8FEF7B3FE002811
:1027300001D072B6FEE717B000BD00000248016884
:1027400041F470010160704788ED00E090F82410BA
:10275000C90706D001684A68836A22F400321A4326
:102760004A6090F82410890706D501684A68C36A50
:1027700022F480321A434A6090F82410490706D5A3
:1027800001684A68036B22F480221A434A6090F879
:102790002410090706D501684A68436B22F40042F9
:1027A0001A434A6090F82410C90606D501688A6861
:1027B000836B22F480521A438A6090F824108906B1
:1027C00006D501688A68C36B22F400521A438A60F6
:1027D00090F82410490611D501684A68036C22F468
:1027E00080121A434A60016CB1F5801F06D101685E
:1027F0004A68436C22F4C0021A434A6090F82410DD
:10280000090606D501684A68806C22F4002202435A
:102810004A607047F8B500260446C0F88060FEF7AD
:10282000D9FB0546206800686FF07E47000708D591
:102830002B4600224FF400112046009700F0A0FA2A
:1028400060B92068006840070AD52B4600224FF483
:1028500080012046009700F093FA08B10320F8BDEC
:102860002020A067E067266684F874600020F8BD29
:1028700010B5806A0021A0F85A10A0F85210FFF796
:10288000E7F910BD016851E8002F22F4907241E889
:102890000023002BF6D10168083151E8002F22F007
:1028A000010241E80023002BF5D1016E012908D176
:1028B000026852E8001F21F0100142E80013002BCB
:1028C000F6D12021C167002101664166704710B52D
:1028D000B0F85C20C36F0168222B04D0088B40F055
:1028E0000800088310BD898C436D11401980416D2B
:1028F000891C4165B0F85A10491EA0F85A10B0F86A
:102900005A100029EED1026852E8001F21F490719C
:1029100042E80013002BF6D10168083151E8002F7E
:1029200022F0010241E80023002BF5D12021C167EC
:1029300000214166026E012A02D0FFF7DDFB10BDC7
:102940000166026852E8001F21F0100142E80013FE
:10295000002BF6D10168CA69D243D20601D41022F5
:102960000A62B0F85810FFF771F910BD10B5B0F851
:102970005C20C36F0168222B04D0088B40F0080054
:10298000088310BD898C1140426D1170416D491C46
:102990004165B0F85A10491EA0F85A10B0F85A1004
:1029A0000029EED1026852E8001F21F4907142E83C
:1029B0000013002BF6D10168083151E8002F22F0F6
:1029C000010241E80023002BF5D12021C16700213D
:1029D0004166026E012A02D0FFF78EFB10BD016630
:1029E000026852E8001F21F0100142E80013002B9A
:1029F000F6D10168CA69D243D20601D410220A6214
:102A0000B0F85810FFF722F910BD00002DE9F04191
:102A10000446016880682269E36910436269002501
:102A20001A431043784F0A68784B1A4002430A60F1
:102A300020684168E26821F44051114341602168F7
:102A4000A069B94201D0226A10438A6822F4306238
:102A500002438A606E4923686E488B420DD1D0F8DC
:102A6000880010F0030006D0012856D0022852D06A
:102A700003283FD153E001213DE067498B420BD150
:102A8000D0F8880010F00C0043D0042845D0082866
:102A900041D00C282ED142E060498B420BD1D0F8B6
:102AA000880010F0300034D0102836D0202832D0E2
:102AB00030281FD133E05A498B420BD1D0F888001F
:102AC00010F0C00025D0402827D0802823D0C0286F
:102AD00010D124E0BB420DD1D0F8880010F4406042
:102AE00017D0B0F5806F18D0B0F5006F13D0B0F5E7
:102AF000406F14D010214B4A00264FF40040BB42D7
:102B00002FD171B102290FD004290FD0082973D118
:102B10000FE00021EFE70221EDE70421EBE70821B8
:102B2000E9E7FEF759FD03E0104602E0FEF778FD05
:102B3000F0B3626802EB420181425DD8B0EB023F24
:102B40005AD8010E03025008181871410023FDF7EE
:102B5000B1FB354AA0F5407191424DD82168C8605B
:102B60004BE0E3694FF6EF77834228D1092943D23E
:102B7000DFE801F005080B420D4242421000FEF76B
:102B80002BFD06E0FEF73AFD03E0104602E0FEF7FB
:102B900047FD68B14100606801EB5001B1FBF0F006
:102BA000A0F11001B94227D84FF6F071014000E0C2
:102BB00023E0C0F3420001432068C1601DE0092901
:102BC0001AD2DFE801F005080B190D1919191000C8
:102BD000FEF702FD06E0FEF711FD03E0104602E0FD
:102BE000FEF71EFD48B1616800EB5100B0FBF1F04B
:102BF000A0F11001B94205D9012566662846A666EE
:102C0000BDE8F08180B2A9E700800040F369FFEFE2
:102C100000380140001002400044004000480040DD
:102C2000004C00400024F400FFFC0F0030B541656B
:102C3000A0F85820A0F85A200022426681684FF47C
:102C40008055FF23A94204D1016971BB40F2FF11F5
:102C500031E07F2439B3B1F1805F29D0A0F85C2046
:102C6000C0F880202221C1670168083151E8003F87
:102C700043F0010341E80034002CF5D18168A942FA
:102C800001D10169E9B11549416680F874200169F3
:102C9000C9B1026852E8001F41F4907142E8001384
:102CA000002BF6D118E0016941B9A0F85C30D7E7F4
:102CB000016919B13F21A0F85C10D1E7A0F85C4090
:102CC000CEE70749E0E7026852E8001F41F0200123
:102CD00042E80013002BF6D1002030BD6D2900081A
:102CE000CF280008816F212910D1B0F8521071B19E
:102CF000C16C02680988C1F308011185C16C891C87
:102D0000C164B0F85210491EA0F852107047026812
:102D100052E8001F21F0800142E80013002BF6D199
:102D2000026852E8001F41F0400142E80013002B06
:102D3000F6D17047816F21290ED1B0F8521061B1E0
:102D4000C16C026809781185C16C491CC164B0F876
:102D50005210491EA0F852107047016851E8002F28
:102D600022F0800241E80023002BF6D1026852E8ED
:102D7000001F41F0400142E80013002BF6D17047DC
:102D80002DE9F0479A4617460E4604464FF00009D3
:102D90004FF02008089D4AE0681C48D0FEF71AF959
:102DA000A0EB0A00A8422AD84DB320680168490761
:102DB0003DD5C069C043000539D421684FF4006097
:102DC0000862206850E8001F21F4D07140E800122A
:102DD000002AF6D12068083050E8001F21F00101D8
:102DE00040E80012002AF5D1C4F87880C4F87C804D
:102DF000C4F8808084F874900320BDE8F0872168CF
:102E000051E8000F20F4D07041E80002002AF6D10A
:102E10002068083050E8001F21F0010140E800124E
:102E2000002AF5D1C4F87880C4F87C80E2E72068F5
:102E3000C06936EA000004D00020B842ACD00020BF
:102E4000DBE70120F9E700000148FEF703BF0000BF
:102E50006403002010B50D4CE069012814D10C4921
:102E60006422A1F59670FDF700FB00F04FF80948C9
:102E7000FDF797FA074982B24FF4FA73A1F5B670DD
:102E8000FFF7AAF90020E06110BD0000000000205B
:102E9000FC050020D00400200148FEF7DBBE000046
:102EA000E803002010B50D4C6069012814D1FFF72C
:102EB000ABFB0B496422A1F5FA70FDF7D6FA09487D
:102EC000FDF76FFA074982B24FF4FA73A1F184005B
:102ED000FFF782F90020606110BD000000000020B3
:102EE000600600206C040020FEE70907090E002898
:102EF00004DB00F1E02080F80014704700F00F00C0
:102F000000F1E02080F8141D704700000948417866
:102F100043290ED1817843290BD1C1784C2908D19E
:102F200000794B2805D10349642201F51670FDF79D
:102F30009CBA7047FC050020FEF75AF8FFF7C4FB67
:102F4000FFF7E0F9FFF732FAFFF74CFAFFF766FAFE
:102F500001224E494E48FFF7A5F84C494C48012242
:102F6000491C8438FFF79EF84948E830FDF719FA04
:102F7000474982B2E831A1F5B670FFF789F94448B4
:102F80008430FDF70EFA424982B284314048FFF79F
:102F90007FF94048FDF705FA05463F48FDF701FA7D
:102FA0003D4C2A4620443B49FDF71AFA3948153072
:102FB000FDF7F7F905462046FDF7F3F935492044BA
:102FC0002A461531FDF70CFA30480830FDF7E9F9CB
:102FD00005462046FDF7E5F92C4920442A460831EC
:102FE000FDF7FEF929483330FDF7DBF905462046A9
:102FF000FDF7D7F9254920442A463331FDF7F0F98A
:1030000022483830FDF7CDF905462046FDF7C9F9CD
:103010001E4920442A463831FDF7E2F91F4C0122AF
:1030200008212046FDF7D1FF1D4D00222021284612
:10303000FDF7CBFF012211462046FDF7C6FF002217
:1030400002212846FDF7C1FF002208212846FDF78E
:10305000BCFF012202212846FDF7B7FF43F6982066
:10306000FDF7B6FE012208212846FDF7AEFF4FF41A
:10307000FA60FDF7ADFE00BFFFF7ECFEFFF712FFB1
:10308000FDF7CAFA0A2000F00DF8F5E7030000206A
:10309000E80300207C020020F00700200004004824
:1030A0000008004870B50646FDF794FF3A4C4FF40F
:1030B000FA75A16A401A40F2DC51884210D3206AA6
:1030C0000F280DD104F27120FDF76BF982B22B4667
:1030D00004F271213148FFF77FF8FDF77BFFA06212
:1030E000FDF778FF616A401A06EB4601C1EBC61195
:1030F000B0EBC10F4ED3206A0F284BD1E0880A22D3
:10310000401C80B2B0FBF2F102FB11036421B0FB62
:10311000F1F601FB1606E080B6FBF2F2B0FBF1F02F
:1031200023706270A0701E493030303208704A70CF
:1031300030338B702D20C8700020A1F16402131869
:103140000E185B7C401C33710828F8DB1448218979
:1031500058386422A0F864101249BC30FDF740F9D9
:103160000F486430FDF71DF90D49642264310844AD
:103170006439FDF735F90A486430FDF712F908495A
:1031800082B264312B46A1F5B760FFF725F8FDF751
:1031900021FF606270BD000000000020E8030020F5
:1031A000B8080020A90100204FF04070E1EE100A9D
:1031B000704700000000000000000000010203044E
:1031C00006070809A0860100400D0300801A0600CA
:1031D00000350C0040420F0080841E0000093D00B5
:1031E00000127A000024F40000366E010048E80165
:1031F000006CDC0200000000010203041C32000825
:1032000000000020E0020000D00100086033000848
:10321000E0020020000D00002C02000881130D0ABE
:10322000031F222C1B4B54262A41051537353737EF
:103230001B2C300A9A2D01A80A434F4E4E45435489
:103240004544151924380C4B54206D6F64756E205D
:103250004F4B414F2B4350494E3F198C73696D17AB
:103260004B535115880963756F6E6720646F1A5C44
:10327000524547311B64611B8B6B791B5D47415481
:10328000541C8D4750525319180D495054494D45FF
:103290004F55543D3330013B2C32063A34062A3523
:1032A000061928A80D5365742074696D656F7574CF
:1032B000203A7E4D4F44453D21780872616E736D12
:1032C00069742148084E45544F50454E75190D7983
:1032D000194F49504144445218AB495051480A5281
:1032E000584745543D302C311D08081672656365FA
:1032F000697665220E12416C6C6F7725180853456C
:103300004E443D312C01035220205A54E9045965A2
:10331000643A29C87D434C4B3FD31D4F50454ED393
:10332000100822544350222C22100E3131372E36F1
:103330002E3136332E313737980E434F4E4E45439C
:1033400054204950204F4B33180851554552593D90
:10335000311259223A5F1F213201821013093D00B8
:040000050800019559
:00000001FF
