:020000040800F2
:10000000580B002035020008612F0008A92D0008B8
:100010005D2F00081D0600080143000800000000D5
:100020000000000000000000000000004533000850
:100030002106000800000000D12F00089D330008B1
:100040004F0200084F0200084F0200084F0200084C
:100050004F0200084F0200084F0200084F0200083C
:100060004F0200084F0200084F0200084F0200082C
:100070004F0200084F0200084F0200084F0200081C
:100080004F0200084F0200084F0200084F0200080C
:100090004F0200084F0200084F0200084F020008FC
:1000A0004F0200084F0200084F0200084F020008EC
:1000B0004F0200084F020008000000004F02000835
:1000C0004F0200084F0200084F0200084F020008CC
:1000D0004F020008894200084F020008F142000860
:1000E0004F0200084F02000800000000000000005E
:1000F0000000000000000000000000000000000000
:10010000000000004F020008000000004F0200083D
:100110004F020008000000004F020008000000002D
:100120004F0200084F0200084F0200084F0200086B
:100130004F0200084F0200084F02000800000000B4
:100140004F0200084F0200084F0200084F0200084B
:100150004F0200084F0200084F0200084F0200083B
:100160004F0200084F0200084F0200080000000084
:10017000000000004F020008000000000000000026
:100180004F0200084F0200084F0200084F0200080B
:100190004F02000800F002F800F03CF80AA090E8D6
:1001A000000C82448344AAF10107DA4501D100F032
:1001B00031F8AFF2090EBAE80F0013F0010F18BFC3
:1001C000FB1A43F001031847204900004049000092
:1001D000103A24BF78C878C1FAD8520724BF30C873
:1001E00030C144BF04680C60704700000023002445
:1001F00000250026103A28BF78C1FBD8520728BF37
:1002000030C148BF0B6070471FB504F03BFC1FBDF9
:1002100010B510BD00F0C7F91146FFF7F5FF04F067
:100220004DFB00F0E5F903B4FFF7F2FF03BC00F06B
:10023000EDF900000948804709480047FEE7FEE75E
:10024000FEE7FEE7FEE7FEE7FEE7FEE7FEE7FEE786
:1002500004480549054A064B704700002934000848
:100260009501000858050020580B00205807002071
:100270005807002053EA020C00F069802DE9F04B8A
:100280004FF00006002B1FBFB3FA83F503FA05F405
:1002900024FA05F65E4012BF1643B2FA82F502FA5E
:1002A00005F4C5F120051EBF22FA05FC44EA0C0442
:1002B000203556EA044C4FEA144418BF641C4FF032
:1002C00000084FF00009904271EB030C39D300296C
:1002D00019BFB1FA81F701FA07F6B0FA80F700FA10
:1002E00007F6C7F120071EBF20FA07FC46EA0C06F6
:1002F0002037B6FBF4FCA7EB0507103F07F01F0BF8
:10030000CBF120062CFA06F60CFA0BFB44BFB346E1
:100310000026202FA4BF5E464FF0000B5BEA060CC0
:1003200008BF4FF0010B19EB0B0948EB0608ABFBBC
:10033000027C06FB02CC0BFB03CCC01B71EB0C0157
:10034000C1E70B46024641464846BDE8F08B13B56F
:10035000084318BF4FF0FF300146AFF30080BDE8FF
:100360001C40704710B5431C02E010F8011B71B12E
:100370008107FAD14FF0013202C88C1A8C4314EA7B
:10038000C211F9D0C01A0A0603D0C01E10BDC01A8F
:1003900010BD0A0401D0801E10BD0902FCD0401E11
:1003A00010BD032A40F2308010F0030C00F01580DD
:1003B00011F8013BBCF1020F624498BF11F801CB68
:1003C00000F8013B38BF11F8013BA2F1040298BFCD
:1003D00000F801CB38BF00F8013B11F0030300F037
:1003E000B080083AC0F0088051F8043B083A51F850
:1003F00004CBA0E80810F5E7121D5CBF51F8043BE0
:1004000040F8043BAFF30080D20724BF11F8013B52
:1004100011F801CB48BF11F8012B24BF00F8013BB4
:1004200000F801CB48BF00F8012B70474FF00002E5
:100430000429C0F0128010F0030C00F01B80CCF1F6
:10044000040CBCF1020F18BF00F8012BA8BF20F864
:10045000022BA1EB0C0100F00DB85FEAC17C24BFB8
:1004600000F8012B00F8012B48BF00F8012B704762
:100470004FF0000200B5134694469646203922BF3D
:10048000A0E80C50A0E80C50B1F12001BFF4F7AF88
:10049000090728BFA0E80C5048BF0CC05DF804EB6A
:1004A000890028BF40F8042B08BF704748BF20F8D8
:1004B000022B11F0804F18BF00F8012B704700008D
:1004C00030B44FF0013C50F8042B51F8043BCCFA07
:1004D00052F4D51A20D1FCB950F8042B51F8043B42
:1004E000CCFA52F4D51A17D1B4B950F8042B51F8FC
:1004F000043BCCFA52F4D51A0ED16CB950F8042B47
:1005000051F8043BCCFA52F4D51A05D1002CDAD0BC
:1005100030BC4FF00000704729BAB1FA81F111F0F8
:100520001801D1F120008440F2D1CA40CB4012F032
:10053000FF0213F0FF0330BCD01A704770477047BA
:10054000704710B5203AC0F00B80B1E81850A0E811
:100550001850B1E81850A0E81850203ABFF4F5AF91
:100560005FEA027C24BFB1E81850A0E8185044BFED
:1005700018C918C0BDE810405FEA827C24BF51F85A
:10058000043B40F8043B08BF7047D20728BF31F84E
:10059000023B48BF11F8012B28BF20F8023B48BF9F
:1005A00000F8012B7047754600F02CF8AE460500A8
:1005B0006946534620F00700854618B020B5FFF77E
:1005C00047FEBDE820404FF000064FF000074FF017
:1005D00000084FF0000BAC46ACE8C009ACE8C0091D
:1005E000ACE8C009ACE8C00921F007018D467047AE
:1005F00010B50446AFF300802046BDE81040FFF779
:1006000012BE0000004870479000002001491820E9
:10061000ABBEFEE72600020070470000FFE7FEE7E2
:100620007047000081B0EFF3108072B60090FFE7D2
:10063000FEE7000083B0019000208DF803000198D0
:1006400090F8250002280DD0FFE701990420C86327
:10065000FFE70199002081F82400FFE701208DF8D1
:100660000B0022E001980168086820F00E00086085
:1006700001980168086820F0010008600198026C88
:10068000406C00F01C01012000FA01F15160019959
:1006900081F82500FFE70199002081F82400FFE799
:1006A0009DF803008DF80B00FFE79DF80B0003B0E9
:1006B0007047000080B582B0019000208DF80300E3
:1006C000019890F82500022807D0FFE7019904203F
:1006D000C86301208DF8030026E0019801680868CE
:1006E00020F00E00086001980168086820F0010001
:1006F00008600198026C406C00F01C01012000FAB7
:1007000001F15160019981F82500FFE7019900206E
:1007100081F82400FFE70198806B20B1FFE7019882
:10072000816B8847FFE7FFE79DF8030002B080BDBB
:1007300080B584B0039000F0D9F90290039801903D
:100740000198013048B1FFE740F28600C2F2000094
:100750000178019808440190FFE7FFE700F0C6F92F
:100760000299401A0199884201D2FFE7F6E704B0E6
:1007700080BD00008AB00990089100200790FFE733
:10078000089800680799C840002800F09781FFE7A3
:1007900008980068079A0121914008400690069841
:1007A000002800F08781FFE70898406800F0030008
:1007B000012807D0FFE70898406800F003000228EE
:1007C0002FD1FFE709988068059007984100032022
:1007D00000FA01F10598884305900898C0680799C8
:1007E000490000FA01F10598084305900598099918
:1007F00088600998406805900799012000FA01F186
:1008000005988843059008984068C0F30010079940
:1008100000FA01F105980843059005980999486088
:10082000FFE70898406800F00300032818D0FFE7AE
:100830000998C068059007984100032000FA01F16B
:10084000059888430590089880680799490000FA40
:1008500001F105980843059005980999C860FFE7DC
:100860000898406800F00300022826D1FFE70998A5
:1008700007996FF0030202EA51010844006A0590EB
:10088000079800F0070081000F2000FA01F1059899
:100890008843059008980069079901F007018900CD
:1008A00000FA01F105980843059005980999079BFE
:1008B00002EA530211440862FFE7099800680590B4
:1008C00007984100032000FA01F10598884305903C
:1008D0000898406800F003000799490000FA01F108
:1008E000059808430590059809990860089880794B
:1008F0008007002800F0DD80FFE7FFE741F260009D
:10090000C4F20200016841F001010160006800F0DA
:10091000010004900498FFE7079820F003000821E5
:10092000C4F2010140580590079800F003008100CF
:100930000F2000FA01F10598884305900998B0F15D
:10094000904F03D1FFE70020039034E0099840F274
:100950000041C4F60001884203D1FFE70120029064
:1009600026E0099840F60001C4F60001884203D150
:10097000FFE70220019018E0099840F60041C4F614
:100980000001884203D1FFE7032000900AE00999A3
:1009900041F20002C4F600020720914208BF042081
:1009A0000090FFE700980190FFE701980290FFE7B1
:1009B00002980390FFE70398079901F0030189006B
:1009C00000FA01F10598084305900598079921F070
:1009D00003010822C4F20102885040F20840C4F228
:1009E00001000068059006990598884305900898CD
:1009F0008079C006002805D5FFE7069905980843C9
:100A00000590FFE7059840F20841C4F20101086033
:100A100040F20C40C4F20100006805900699059868
:100A200088430590089880798006002805D5FFE75F
:100A30000699059808430590FFE7059840F20C4198
:100A4000C4F20101086040F20440C4F201000068F1
:100A50000590069905988843059008988079800745
:100A6000002805D5FFE70699059808430590FFE79C
:100A7000059840F20441C4F20101086040F20040D0
:100A8000C4F2010000680590069905988843059016
:100A900008988079C00728B1FFE7069905980843B0
:100AA0000590FFE7059840F20041C4F2010108609B
:100AB000FFE7FFE707980130079061E60AB070474B
:100AC00082B00190ADF802108DF801209DF8010070
:100AD00028B1FFE7BDF802000199886104E0BDF884
:100AE000020001998862FFE702B0704740F250505F
:100AF000C2F200000068704740F28600C2F20000B7
:100B0000027840F25051C2F20001086810440860B7
:100B10007047000080B582B000208DF807000320E8
:100B200000F09AF80F2000F00DF820B1FFE7012047
:100B30008DF8070002E000F049F8FFE79DF8070094
:100B400002B080BD80B582B0019000208DF8030016
:100B500040F28600C2F20000007878B3FFE740F26E
:100B60000000C2F20000006840F28601C2F20001FB
:100B70000A784FF47A71B1FBF2F1B0FBF1F001F0B9
:100B8000FFFAB0B9FFE701980F280DD8FFE70199E8
:100B90004FF0FF30002200F045F8019840F2880144
:100BA000C2F20001086003E001208DF80300FFE7B6
:100BB00003E001208DF80300FFE703E001208DF83A
:100BC0000300FFE79DF8030002B080BD82B0FFE79D
:100BD00041F26000C4F20200016841F001010160CD
:100BE000006800F0010001900198FFE7FFE741F283
:100BF0005800C4F20200016841F0805101600068B1
:100C000000F0805000900098FFE702B070470000AD
:100C100080B582B08DF807009DF9070003F072FBE4
:100C200002B080BD80B586B08DF8170004910392A4
:100C30000020029003F07EFB02909DF917000190C6
:100C400002980499039A02F08DF90146019803F085
:100C500079FB06B080BD000080B582B0019001989C
:100C600003F092FB02B080BD84B002900298B0F510
:100C7000007F4DD1FFE747F20000C4F2000000689A
:100C800000F4C060B0F5007F41D0FFE747F20002FA
:100C9000C4F200021168012060F34A21116040F2A1
:100CA0000001C2F200010968322251434DF683620D
:100CB000C4F21B32A1FB022100EB91400190FFE73F
:100CC00047F21400C4F20000016800204905002921
:100CD000009006D5FFE70198002818BF012000907A
:100CE000FFE70098C00720B1FFE7019801380190A5
:100CF000E6E747F21400C4F200000068400500284F
:100D000004D5FFE703208DF80F001BE0FFE715E097
:100D100047F20000C4F20000006800F4C060B0F5C3
:100D2000806F0AD0FFE747F20001C4F200010868B3
:100D3000022262F34A200860FFE7FFE700208DF8F7
:100D40000F00FFE79DF80F0004B0704747F2000066
:100D5000C4F20000006800F4C060704780B586B03F
:100D6000059000208DF80B008DF80A00059840785A
:100D7000000700283BD5FFE70598C06C009098B1AC
:100D8000FFE70098B0F5000F05D0FFE70098B0F539
:100D9000400F11D011E041F20C01C4F202010868C9
:100DA00040F4803008600CE005980430002102F027
:100DB00011F98DF80B0004E003E001208DF80B0021
:100DC000FFE79DF80B0060B9FFE741F28801C4F22C
:100DD0000201086820F44000059AD26C10430860B4
:100DE00004E09DF80B008DF80A00FFE7FFE7059887
:100DF00080788007002840F1B580FFE700208DF85B
:100E0000090041F25800C4F202000068C000002846
:100E100013D4FFE7FFE741F25800C4F20200016873
:100E200041F080510160006800F08050019001980D
:100E3000FFE701208DF80900FFE747F20001C4F247
:100E40000001086840F480700860FFF74FFE0390CF
:100E5000FFE747F20000C4F200000068C005002868
:100E60000CD4FFE7FFF742FE0399401A032804D38E
:100E7000FFE703208DF80B0000E0EAE79DF80B0088
:100E800000285BD1FFE741F29000C4F20200006845
:100E900000F4407004900498C8B1FFE704980599E5
:100EA000496E884213D0FFE741F29001C4F202017B
:100EB000086820F440700490086840F480300860AE
:100EC000086820F48030086004980860FFE79DF807
:100ED0001000C007E0B1FFE7FFF708FE0390FFE74F
:100EE00041F29000C4F202000068800700280ED48E
:100EF000FFE7FFF7FBFD0399401A41F28931884271
:100F000004D3FFE703208DF80B0000E0E8E7FFE7DC
:100F10009DF80B0060B9FFE741F29001C4F20201B5
:100F2000086820F44070059A526E1043086004E08F
:100F30009DF80B008DF80A00FFE704E09DF80B0018
:100F40008DF80A00FFE79DF80900012809D1FFE7A5
:100F500041F25801C4F20201086820F08050086094
:100F6000FFE7FFE705980078C00760B1FFE741F2AF
:100F70008801C4F20201086820F00300059A126A91
:100F800010430860FFE705980078800700280CD51B
:100F9000FFE741F28801C4F20201086820F00C006A
:100FA000059A526A10430860FFE7059800784007E9
:100FB00000280CD5FFE741F28801C4F2020108685D
:100FC00020F03000059A926A10430860FFE7059808
:100FD0000078000700280CD5FFE741F28801C4F231
:100FE0000201086820F0C000059AD26A1043086028
:100FF000FFE705980078800600280CD5FFE741F24E
:101000008801C4F20201086820F44060059A126B5E
:1010100010430860FFE705984078800700280CD54A
:10102000FFE741F28801C4F20201086820F4402081
:10103000059A526C10430860FFE705984078400716
:1010400000280CD5FFE741F28801C4F202010868CC
:1010500020F44010059A926C10430860FFE7059851
:101060000078400600280CD5FFE741F28801C4F261
:101070000201086820F44050059A526B1043086042
:10108000FFE705980078000600280CD5FFE741F23D
:101090008801C4F20201086820F44040059A926B6E
:1010A00010430860FFE705984078C00760B1FFE78C
:1010B00041F28801C4F20201086820F44030059A28
:1010C000D26B10430860FFE705988078C0060028BF
:1010D0000CD5FFE741F29C01C4F20201086820F040
:1010E0000300059A126C10430860FFE705984078EA
:1010F0008006002833D5FFE741F28801C4F20201DF
:10110000086820F04060059A126D10430860059849
:10111000006DB0F1006F09D1FFE741F20C01C4F29C
:101120000201086840F48010086017E00598006D1F
:10113000B0F1806F11D1FFE705980430012101F073
:1011400049FF8DF80B009DF80B0028B1FFE79DF8D3
:101150000B008DF80A00FFE7FFE7FFE7FFE70598C0
:1011600080780007002834D5FFE741F28801C4F2F7
:101170000201086820F04060059A526D1043086033
:101180000598406DB0F1006F09D1FFE741F20C0105
:10119000C4F20201086840F48010086018E0059865
:1011A000406DB0F1806F11D1FFE705980430012147
:1011B00001F010FF8DF80B009DF80B0028B1FFE740
:1011C0009DF80B008DF80A00FFE700E0FFE7FFE75E
:1011D000FFE7059880784007002834D5FFE741F203
:1011E0008801C4F20201086820F04060059A926DFF
:1011F000104308600598806DB0F1006F09D1FFE7DA
:1012000041F20C01C4F20201086840F48010086049
:1012100018E00598806DB0F1806F11D1FFE7059857
:101220000430012101F0D6FE8DF80B009DF80B0073
:1012300028B1FFE79DF80B008DF80A00FFE700E0FA
:10124000FFE7FFE7FFE7059840784006002823D531
:10125000FFE741F28801C4F20201086820F0405023
:10126000059AD26D104308600598C06DB0F1805F9B
:1012700011D1FFE705980430022101F0ABFE8DF893
:101280000B009DF80B0028B1FFE79DF80B008DF8CF
:101290000A00FFE7FFE7FFE705988078C00760B125
:1012A000FFE741F28801C4F20201086820F0004023
:1012B000059A126E10430860FFE79DF80A0006B019
:1012C00080BD000080B586B004900391049820B9D9
:1012D000FFE701208DF8170041E1039842F2000179
:1012E000C4F20201096801F00701884216D9FFE73C
:1012F00042F20000C4F20200016821F00701039AE3
:1013000011430160006800F007000399884204D08F
:10131000FFE701208DF8170021E1FFE7049800782E
:101320008007002819D5FFE70498806841F208017A
:10133000C4F20201096801F0F00188420CD9FFE70C
:1013400041F20801C4F20201086820F0F000049A9A
:10135000926810430860FFE7FFE704980078C00731
:10136000002873D0FFE70498406803280ED1FFE7F8
:1013700041F20000C4F2020000688001002804D499
:10138000FFE701208DF81700E9E034E00498406899
:1013900002280ED1FFE741F20000C4F2020000680B
:1013A0008003002804D4FFE701208DF81700D6E061
:1013B00020E00498406870B9FFE741F20000C4F2F1
:1013C000020000688007002804D4FFE701208DF8A0
:1013D0001700C4E00DE041F20000C4F20200006812
:1013E0004005002804D4FFE701208DF81700B6E07F
:1013F000FFE7FFE7FFE741F20801C4F202010868D6
:1014000020F00300049A526810430860FFF76EFB57
:101410000290FFE741F20800C4F20200006800F009
:101420000C0004994968B0EB810F0ED0FFE7FFF77D
:101430005DFB0299401A41F28931884204D3FFE7EB
:1014400003208DF817008AE0E4E7FFE704980078AE
:101450008007002819D5FFE70498806841F2080149
:10146000C4F20201096801F0F00188420CD2FFE7E2
:1014700041F20801C4F20201086820F0F000049A69
:10148000926810430860FFE7FFE7039842F200010B
:10149000C4F20201096801F00701884216D2FFE791
:1014A00042F20000C4F20200016821F00701039A31
:1014B00011430160006800F007000399884204D0DE
:1014C000FFE701208DF8170049E0FFE70498007856
:1014D000400700280CD5FFE741F20801C4F20201E1
:1014E000086820F4E060049AD26810430860FFE7BF
:1014F00004980078000700280DD5FFE741F20801A5
:10150000C4F20201086820F46050049A126940EAAB
:10151000C2000860FFE700F055F841F20801C4F28C
:1015200002010968C9B20A0944F69E21C0F6000109
:10153000895C01F01F01C84040F20001C2F20001C5
:10154000086040F28800C2F200000068FFF7FAFA73
:101550008DF807009DF807008DF81700FFE79DF84C
:10156000170006B080BD000040F20000C2F200008B
:101570000068704780B5FFF7F7FF41F20801C4F239
:1015800002010968C1F3022244F6AE21C0F600014F
:10159000895C01F01F01C84080BD000080B5FFF7E5
:1015A000E3FF41F20801C4F202010968C1F3C2225B
:1015B00044F6AE21C0F60001895C01F01F01C8406D
:1015C00080BD000089B000200890079041F208001B
:1015D000C4F20200006800F00C00029041F20C001E
:1015E000C4F20200006800F003000190029840B1CC
:1015F000FFE702980C282ED1FFE7019801282AD195
:10160000FFE741F20000C4F2020000680007002872
:1016100009D4FFE741F29400C4F202000068C0F36D
:101620000320089008E041F20000C4F202000068C4
:10163000C0B200090890FFE7089944F6B820C0F648
:10164000000050F821000890029818B9FFE70898A8
:101650000790FFE716E00298042806D1FFE742F260
:101660000040C0F2F40007900BE00298082806D171
:10167000FFE741F20020C0F27A00079000E0FFE7A8
:10168000FFE7FFE702980C2846D1FFE741F20C0084
:10169000C4F20200006800F0030005900598009075
:1016A000012814D0FFE70098022804D0FFE7009833
:1016B000032806D00CE042F20040C0F2F40006908D
:1016C00009E041F20020C0F27A00069003E0FFE753
:1016D00008980690FFE741F20C00C4F2020001688E
:1016E00001F07002012101EB1211039106990268C9
:1016F000C2F306225143039AB1FBF2F1069100684E
:1017000000F0C061022000EB11600490069804997B
:10171000B0FBF1F00790FFE7079809B070470000B1
:10172000B0B58AB00890089828B9FFE701208DF875
:10173000270000F021BD41F20800C4F20200006859
:1017400000F00C00059041F20C00C4F202000068A9
:1017500000F00300049008980078C006002840F1CB
:101760002E81FFE7059850B1FFE705980C2840F05F
:10177000BD80FFE70498012840F0B880FFE741F200
:101780000000C4F2020000688007002809D5FFE7C6
:101790000898806928B9FFE701208DF8270000F03C
:1017A000EBBC0898006A019041F20000C4F202000C
:1017B00000680007002809D5FFE741F20000C4F2E5
:1017C0000200006800F0F000009009E041F294008F
:1017D000C4F20200006800F4706000090090FFE7A6
:1017E00001980099884229D9FFE70898006A01F01A
:1017F00031FD28B1FFE701208DF8270000F0BCBCC7
:10180000FFE741F20001C4F20201086840F008005D
:101810000860086820F0F000089A126A1043086017
:10182000FFE741F20401C4F20201086820F47F409E
:10183000089AD26940EA022008602CE0FFE741F2F2
:101840000001C4F20201086840F00800086008685E
:1018500020F0F000089A126A10430860FFE741F296
:101860000401C4F20201086820F47F40089AD2699A
:1018700040EA02200860059860B9FFE70898006A0E
:1018800001F0E8FC28B1FFE701208DF8270000F007
:1018900073BCFFE7FFE7FFF795FE41F20801C4F2D2
:1018A00002010968C9B20A0944F69E21C0F6000186
:1018B000895C01F01F01C84040F20001C2F2000142
:1018C000086040F28800C2F200000068FFF73AF9B1
:1018D0008DF81B009DF81B0030B1FFE79DF81B0041
:1018E0008DF8270000F048BCFFE767E008988069A2
:1018F000002840D0FFE741F20001C4F2020108686D
:1019000040F001000860FFF7F1F80790FFE741F2AF
:101910000000C4F202000068800700280DD4FFE731
:10192000FFF7E4F80799401A032805D3FFE70320DF
:101930008DF8270000F020BCE9E7FFE741F2000145
:10194000C4F20201086840F008000860086820F04E
:10195000F000089A126A10430860FFE741F20401A0
:10196000C4F20201086820F47F40089AD26940EA74
:101970000220086021E041F20001C4F2020108687F
:1019800020F001000860FFF7B1F80790FFE741F28F
:101990000000C4F202000068800700280CD5FFE7B1
:1019A000FFF7A4F80799401A032804D3FFE70320A0
:1019B0008DF82700E0E3EAE7FFE7FFE7FFE7089895
:1019C0000078C007002800F08B80FFE70598082802
:1019D00008D0FFE705980C2816D1FFE704980328E4
:1019E00012D1FFE741F20000C4F202000068800358
:1019F000002808D5FFE70898406820B9FFE70120D4
:101A00008DF82700B8E36AE0FFE708984068B0F572
:101A1000803F09D1FFE741F20001C4F202010868EA
:101A200040F48030086020E008984068B0F5A02FAE
:101A30000DD1FFE741F20001C4F20201086840F451
:101A400080200860086840F4803008600CE041F2B3
:101A50000001C4F20201086820F4803008600868C0
:101A600020F480200860FFE7FFE7FFE70898406860
:101A7000D0B1FFE7FFF73AF80790FFE741F2000027
:101A8000C4F202000068800300280CD4FFE7FFF7CF
:101A90002DF80799401A652804D3FFE703208DF835
:101AA000270069E3EAE719E0FFF720F80790FFE76E
:101AB00041F20000C4F202000068800300280CD547
:101AC000FFE7FFF713F80799401A652804D3FFE7EB
:101AD00003208DF827004FE3EAE7FFE7FFE7FFE782
:101AE000089800788007002840F18280FFE7059879
:101AF000042808D0FFE705980C2823D1FFE70498B5
:101B000002281FD1FFE741F20000C4F20200006882
:101B10004005002808D5FFE70898C06820B9FFE70E
:101B200001208DF8270027E341F20401C4F20201ED
:101B3000086820F0FE40089A126940EA02600860D6
:101B4000FFE754E00898C06870B3FFE741F2000176
:101B5000C4F20201086840F480700860FEF7C6FF16
:101B60000790FFE741F20000C4F202000068400560
:101B700000280CD4FFE7FEF7B9FF0799401A0328A5
:101B800004D3FFE703208DF82700F5E2EAE741F2EE
:101B90000401C4F20201086820F0FE40089A1269AC
:101BA00040EA0260086021E041F20001C4F2020153
:101BB000086820F480700860FEF798FF0790FFE740
:101BC00041F20000C4F202000068400500280CD574
:101BD000FFE7FEF78BFF0799401A032804D3FFE7BE
:101BE00003208DF82700C7E2EAE7FFE7FFE7FFE7FA
:101BF000089800780007002849D5FFE70898406951
:101C000010B3FFE741F29401C4F20201086840F00A
:101C100001000860FEF76AFF0790FFE741F29400B9
:101C2000C4F202000068800700280CD4FFE7FEF72A
:101C30005DFF0799401A032804D3FFE703208DF8BE
:101C4000270099E2EAE721E041F29401C4F202019F
:101C5000086820F001000860FEF748FF0790FFE7E2
:101C600041F29400C4F202000068800700280CD5FD
:101C7000FFE7FEF73BFF0799401A032804D3FFE76D
:101C800003208DF8270077E2EAE7FFE7FFE70898EF
:101C900000784007002840F1C680FFE700208DF85B
:101CA0000F0041F25800C4F202000068C000002892
:101CB00013D4FFE7FFE741F25800C4F202000168C5
:101CC00041F080510160006800F08050029002985D
:101CD000FFE701208DF80F00FFE747F20000C4F294
:101CE00000000068C005002822D4FFE747F2000189
:101CF000C4F20001086840F480700860FEF7F6FE48
:101D00000790FFE747F20000C4F200000068C0053A
:101D100000280CD4FFE7FEF7E9FE0799401A0328D4
:101D200004D3FFE703208DF8270025E2EAE7FFE769
:101D3000FFE708988068012809D1FFE741F2900188
:101D4000C4F20201086840F0010008601FE0089832
:101D5000806805280DD1FFE741F29001C4F202012D
:101D6000086840F004000860086840F0010008605E
:101D70000CE041F29001C4F20201086820F0010079
:101D80000860086820F004000860FFE7FFE7FFE74D
:101D900008988068E0B1FFE7FEF7A8FE0790FFE72C
:101DA00041F29000C4F202000068800700280ED4BF
:101DB000FFE7FEF79BFE0799401A41F289318842FE
:101DC00004D3FFE703208DF82700D5E1E8E71BE007
:101DD000FEF78CFE0790FFE741F29000C4F202008C
:101DE0000068800700280ED5FFE7FEF77FFE079901
:101DF000401A41F28931884204D3FFE703208DF86D
:101E00002700B9E1E8E7FFE79DF80F00012809D1B5
:101E1000FFE741F25801C4F20201086820F0805047
:101E20000860FFE7FFE7089800788006002849D59A
:101E3000FFE70898406A10B3FFE741F29801C4F247
:101E40000201086840F001000860FEF74FFE0790AD
:101E5000FFE741F29800C4F2020000688007002802
:101E60000CD4FFE7FEF742FE0799401A032804D37B
:101E7000FFE703208DF827007EE1EAE721E041F249
:101E80009801C4F20201086820F001000860FEF722
:101E90002DFE0790FFE741F29800C4F202000068AF
:101EA000800700280CD5FFE7FEF720FE0799401AAF
:101EB000032804D3FFE703208DF827005CE1EAE75D
:101EC000FFE7FFE70898806A002800F05181FFE7EC
:101ED0000898806A022840F01481FFE741F20C0064
:101EE000C4F2020000680490049800F0030008990E
:101EF000C96A88423CD1FFE7049800F07000089955
:101F00000A6B6FF00F0101EB0211884230D1FFE73D
:101F1000049800F4FE400899496BB0EB012F27D1DB
:101F2000FFE7049800F078400899896BB0EBC16F27
:101F30001ED1FFE7049800F4C0000899CA6B002185
:101F4000CFF6E07101EA0251A1F5001188420FD1EC
:101F5000FFE7049800F0C06008990A6C4FF07E41DA
:101F600001EA026101F17E41884200F09580FFE7BD
:101F700005980C2800F08B80FFE741F20000C4F2C6
:101F8000020000684001002804D5FFE701208DF819
:101F90002700F1E041F20001C4F20201086820F0DC
:101FA00080700860FEF7A2FD0790FFE741F2000095
:101FB000C4F202000068800100280CD5FFE7FEF79C
:101FC00095FD0799401A032804D3FFE703208DF8F5
:101FD0002700D1E0EAE741F20C01C4F202010868EF
:101FE00048F28C02C0F29D121040DDF820C0DCF8EF
:101FF0002C20DCF83050DCF834E0DCF838306FF0BE
:102000000F0404EB0514224342EA0E22DCF83C40A4
:1020100040F2000ECFF6E07E0EEA045EAEF5001E42
:1020200042EA0E02DCF840E04FF07E4C0CEA0E6C07
:102030000CF17E4C42EA0C0242EAC3621043086093
:1020400041F20002C4F20202106840F08070106099
:10205000086840F080700860FEF748FD0790FFE7D1
:1020600041F20000C4F202000068800100280CD494
:10207000FFE7FEF73BFD0799401A032804D3FFE76B
:1020800003208DF8270077E0EAE7FFE703E001206F
:102090008DF8270070E033E041F20000C4F2020046
:1020A0000068800100282AD4FFE741F20001C4F251
:1020B0000201086840F08070086041F20C01C4F22F
:1020C0000201086840F080700860FEF70FFD07907D
:1020D000FFE741F20000C4F202000068800100281E
:1020E0000CD4FFE7FEF702FD0799401A032804D33A
:1020F000FFE703208DF827003EE0EAE7FFE7FFE770
:1021000035E005980C282DD0FFE741F20001C4F21C
:102110000201086820F080700860FEF7E7FC079075
:10212000FFE741F20000C4F20200006880010028CD
:102130000CD5FFE7FEF7DAFC0799401A032804D311
:10214000FFE703208DF8270016E0EAE741F20C01D3
:10215000C4F2020108684FF6FC72CFF6EE6210403E
:10216000086003E001208DF8270005E0FFE7FFE7A6
:1021700000208DF82700FFE79DF827000AB0B0BDCA
:1021800080B582B00190019801F0DEF802B080BD08
:1021900082B00190ADF8021002B0704781B000909B
:1021A00001B0704781B0009001B0704780B590B029
:1021B0000F900F980068C0690E900F980068006833
:1021C0000D900F98006880680C900E9840F60F01F3
:1021D00008400B900B98B0B9FFE79DF838008006D7
:1021E00000280FD5FFE79DF834008006002809D5A8
:1021F000FFE70F98406E20B1FFE70F98416E8847C8
:10220000FFE739E2FFE70B98002800F0FE80FFE7C8
:102210009DF83000C00748B9FFE70D9840F2201143
:10222000C0F20041084200F0F080FFE79DF838005E
:10223000C00788B1FFE79DF83500C00760B1FFE730
:102240000F980168012008620F99D1F8800040F0D2
:102250000100C1F88000FFE79DF8380080070028E2
:1022600011D5FFE79DF83000C00760B1FFE70F9878
:102270000168022008620F99D1F8800040F0040044
:10228000C1F88000FFE79DF838004007002811D50D
:10229000FFE79DF83000C00760B1FFE70F980168C5
:1022A000042008620F99D1F8800040F00200C1F8C4
:1022B0008000FFE79DF838000007002817D5FFE7EA
:1022C0009DF834008006002805D4FFE79DF8300013
:1022D000C00760B1FFE70F980168082008620F99F6
:1022E000D1F8800040F00800C1F88000FFE79DF8B9
:1022F00039000007002813D5FFE79DF83700400795
:1023000000280DD5FFE70F9801684FF400600862C0
:102310000F99D1F8800040F02000C1F88000FFE75D
:102320000F98D0F8800000286ED0FFE79DF83800A5
:10233000800600280FD5FFE79DF8340080060028AE
:1023400009D5FFE70F98406E20B1FFE70F98416E67
:102350008847FFE7FFE70F98D0F880000A900F98B2
:102360000068806800F04000402806D0FFE79DF834
:10237000280010F0280F3ED0FFE70F9801F066F913
:102380000F9800688068400600282FD5FFE7FFE718
:10239000FFE70F98006850E8020F20F04000099016
:1023A000FFE709990F98026842E802100028F0D16F
:1023B000FFE7FFE70F98006F98B1FFE70F98016FF5
:1023C00043F22960C0F6000088630F98006FFEF7A3
:1023D00071F928B1FFE70F98006F816B8847FFE71D
:1023E00003E00F98FFF7DEFEFFE703E00F98FFF72B
:1023F000D9FEFFE707E00F98FFF7D4FE0F99002002
:10240000C1F88000FFE7FFE736E10F98006E012872
:1024100040F0F880FFE79DF83800C006002840F142
:10242000F180FFE79DF83400C006002840F1EA8003
:10243000FFE70F980168102008620F980068806815
:102440004006002840F18380FFE70F98006F006886
:102450004068ADF82200BDF82200002876D0FFE7E2
:10246000BDF822000F99B1F8581088426EDAFFE7E4
:10247000BDF822000F99A1F85A000F98006F00686C
:1024800000688006002857D4FFE7FFE7FFE70F98B2
:10249000006850E8000F20F480700790FFE707996C
:1024A0000F98026842E800100028F0D1FFE7FFE72C
:1024B000FFE7FFE70F98006850E8020F20F00100E7
:1024C0000690FFE706990F98026842E8021000287C
:1024D000F0D1FFE7FFE7FFE7FFE70F98006850E85C
:1024E000020F20F040000590FFE705990F98026861
:1024F00042E802100028F0D1FFE7FFE70F99202003
:10250000C8670F9900200866FFE7FFE70F9800688B
:1025100050E8000F20F010000490FFE704990F9896
:10252000026842E800100028F0D1FFE7FFE70F98AB
:10253000006FFEF77FF8FFE70F98B0F85810B0F87B
:102540005A20891A89B2FFF723FEFFE794E00F991A
:10255000B1F85800B1F85A10401AADF80E000F98B3
:10256000B0F85A0000284CD0FFE7BDF80E00002854
:1025700047D0FFE7FFE7FFE70F98006850E8000F3C
:1025800020F490700290FFE702990F98026842E8E9
:1025900000100028F0D1FFE7FFE7FFE7FFE70F9803
:1025A000006850E8020F20F001000190FFE7019958
:1025B0000F98026842E802100028F0D1FFE7FFE719
:1025C0000F992020C8670F99002008660F99486668
:1025D000FFE7FFE70F98006850E8000F20F01000B9
:1025E0000090FFE700990F98026842E80010002869
:1025F000F0D1FFE7FFE70F98BDF80E10FFF7C8FD19
:10260000FFE739E09DF83A00C00600280FD5FFE744
:102610009DF832004006002809D5FFE70F980168B1
:102620004FF4801008620F98FFF7B8FD24E09DF882
:102630003800000600280FD5FFE79DF8340000069B
:10264000002809D5FFE70F98806E20B1FFE70F98AB
:10265000816E8847FFE70FE09DF8380040060028AC
:102660000AD5FFE79DF834004006002804D5FFE7AF
:102670000F9801F037F8FFE710B080BD80B582B049
:102680000090009820B9FFE701208DF8070044E092
:102690000098806908B1FFE700E0FFE70098806FCD
:1026A00040B9FFE70099002081F87400009800F01D
:1026B00039F8FFE7009924208867009801680868C6
:1026C00020F001000860009801F05CF9012804D1B5
:1026D000FFE701208DF807001FE00098406A20B155
:1026E000FFE7009800F0AAFEFFE70098016848683D
:1026F00020F49040486000980168886820F02A0023
:10270000886000980168086840F00100086000983F
:1027100000F038FF8DF80700FFE79DF8070002B0D2
:1027200080BD000080B5ACB02B9000202A9029908D
:102730002890279026900CA86821FDF799FE2B98E9
:10274000006844F60041C4F2000188423DD1FFE731
:1027500008200C90002017900CA8FEF7FFFA18B183
:10276000FFE7FDF75FFFFFE7FFE741F25800C4F224
:102770000200016841F400210160006800F40020BB
:102780000B900B98FFE7FFE741F24C00C4F2020008
:10279000016841F004010160006800F004000A9043
:1027A0000A98FFE74FF4406026900220279000200F
:1027B00028900320299008202A9040F60000C4F6B3
:1027C000000026A9FDF7D6FFA0E02B98006843F68D
:1027D0000001C4F20101884245D1FFE701200C90BD
:1027E000002014900CA8FEF7B9FA18B1FFE7FDF726
:1027F00019FFFFE7FFE741F26000C4F20200016841
:1028000041F480410160006800F48040099009981B
:10281000FFE7FFE741F24C00C4F20200016841F01B
:1028200001010160006800F0010008900898FFE7CE
:102830004FF4C0602690022027900020049028903A
:102840000320299007202A904FF0904026A9FDF7F9
:1028500091FF049A252005900121FEF7E3F90598E0
:10286000FEF7D6F951E02B98006844F60001C4F257
:102870000001884248D1FFE704200C900020169008
:102880000CA8FEF76BFA18B1FFE7FDF7CBFEFFE7E8
:10289000FFE741F25800C4F20200016841F48021D0
:1028A0000160006800F4802007900798FFE7FFE7C9
:1028B00041F24C00C4F20200016841F002010160E3
:1028C000006800F0020006900698FFE74FF44060B1
:1028D000269002200190279000200290289003204B
:1028E000299007202A9040F20040C4F6000026A953
:1028F000FDF740FF0199029A27200390FEF792F915
:102900000398FEF785F9FFE7FFE7FFE72CB080BDEE
:1029100080B586B004900391ADF80A200498C06F8A
:1029200020284DD1FFE7039820B1FFE7BDF80A004A
:1029300020B9FFE701208DF8170045E0FFE7049874
:1029400090F87400012804D1FFE702208DF81700E9
:102950003AE00499012081F87400FFE7FFE7049949
:10296000002008660498006848F20001C4F20001E3
:1029700088421CD0FFE704980068406800020028E5
:1029800014D5FFE7FFE7FFE70498006850E8000F61
:1029900040F080600190FFE701990498026842E8E6
:1029A00000100028F0D1FFE7FFE7FFE7FFE70498FA
:1029B0000399BDF80A2001F059FA8DF8170003E0D9
:1029C00002208DF81700FFE79DF8170006B080BDC4
:1029D00080B58CB00B900B98006840F2EC11C2F2FD
:1029E0000001096888421CD1FFE740F2EC10C2F2F6
:1029F000000040F22141C2F200010A910122FFF7DA
:102A000087FF0A98007840F2F801C2F200010B68D3
:102A100040F22242C2F20002D0540868013008603D
:102A2000FFE740F22240C2F200000990FDF79AFC55
:102A30000999084410F8020C0D282CD1FFE740F248
:102A40002240C2F200000890FDF78CFC089908446F
:102A500010F8010C0A281ED1FFE740F25830C2F2EC
:102A6000000040F22241C2F2000107916422069266
:102A7000FDF797FC06990798FDF7D8FC40F2F8019E
:102A8000C2F200010020086040F26411C2F20001AD
:102A900001200860FFE70B98006840F26811C2F25D
:102AA0000001096888421CD1FFE740F26810C2F2B9
:102AB000000040F2BC31C2F2000105910122FFF793
:102AC00027FF0598007840F2F401C2F200010B687C
:102AD00040F2BD32C2F20002D054086801300860F2
:102AE000FFE740F2BD30C2F200000490FDF73AFC6F
:102AF0000499084410F8020C0D282CD1FFE740F28D
:102B0000BD30C2F200000390FDF72CFC039908448D
:102B100010F8010C0A281ED1FFE740F2F420C2F29F
:102B2000000040F2BD31C2F2000102916422019224
:102B3000FDF737FC01990298FDF778FC40F2F401AB
:102B4000C2F200010020086040F26011C2F20001F0
:102B500001200860FFE70CB080BD000080B58AB09E
:102B600008900791ADF81A2005930898806F2028E7
:102B700040F09480FFE7079820B1FFE7BDF81A0006
:102B800020B9FFE701208DF827008BE0FFE70898C8
:102B900090F87400012804D1FFE702208DF8270087
:102BA00080E00899012081F87400FFE7FFE70899A9
:102BB0000020C1F88000089921208867FDF796FF62
:102BC0000290BDF81A000899A1F85000BDF81A004B
:102BD0000899A1F8520008988068B0F5805F09D183
:102BE000FFE70898006928B9FFE7002004900798DC
:102BF000039004E00798049000200390FFE7FFE7AC
:102C00000899002081F87400FFE7FFE70898B0F802
:102C1000520068B3FFE70898029B05996A46116065
:102C20008021002201F078FA20B1FFE703208DF81F
:102C3000270037E0049858B9FFE7039800886FF33E
:102C40005F2008990968088503980230039008E01E
:102C50000498007808990968088504980130049060
:102C6000FFE70899B1F852000138A1F85200CDE70A
:102C70000898029B05996A4611604021002201F0E4
:102C80004BFA20B1FFE703208DF827000AE00899EE
:102C90002020886700208DF8270003E002208DF8AF
:102CA0002700FFE79DF827000AB080BD85B003909C
:102CB0000291ADF806200398806F202867D1FFE7C6
:102CC000029820B1FFE7BDF8060020B9FFE7012018
:102CD0008DF813005FE0FFE7039890F87400012877
:102CE00004D1FFE702208DF8130054E0039901207E
:102CF00081F87400FFE7FFE702980399C864BDF804
:102D000006000399A1F85000BDF806000399A1F848
:102D100052000399002088660399C1F88000039946
:102D20002120886703988068B0F5805F0BD1FFE7AA
:102D30000398006938B9FFE7039943F6F570C0F6C8
:102D40000000886606E0039944F28D00C0F600009A
:102D50008866FFE7FFE70399002081F87400FFE72A
:102D6000FFE7FFE70398006850E8000F40F080009D
:102D70000090FFE700990398026842E800100028DD
:102D8000F0D1FFE7FFE700208DF8130003E00220F9
:102D90008DF81300FFE79DF8130005B070470000A1
:102DA00081B0009001B07047FFE7FEE780B590B0BA
:102DB00000200F900E900D900C900B90FFE741F2C9
:102DC0004C00C4F20200016841F004010160006897
:102DD00000F004000A900A98FFE7FFE741F24C0078
:102DE000C4F20200016841F002010160006800F0D5
:102DF000020009900998FFE7FFE741F24C00C4F296
:102E00000200016841F001010160006800F001006A
:102E100008900898FFE740F60000C4F60000029012
:102E20002A21019100220592FDF74AFE059A40F2FF
:102E30000040C4F60000069046F21B010391FDF726
:102E40003FFE019A029805990B92012204920C927E
:102E50000D910E910BA90791FDF78CFCDDF80CC0CC
:102E6000049B059A06980799CDF82CC00C930D92F7
:102E70000E92FDF77FFC059A069807994FF4487368
:102E80000B930C920D92FDF775FC10B080BD000005
:102E900080B582B040F27020C2F20000019044F68A
:102EA0000041C4F2000101604FF4E13141600021B2
:102EB0008160C16001610C2242618161C161016276
:102EC0004162FFF7DBFB18B1FFE7FDF7ABFBFFE764
:102ED00002B080BD80B582B040F26810C2F200003E
:102EE000019043F60001C4F2010101604FF4E131A9
:102EF000416000218160C16001610C2242618161F9
:102F0000C16101624162FFF7B9FB18B1FFE7FDF74C
:102F100089FBFFE702B080BD80B582B040F2EC10C3
:102F2000C2F20000019044F60001C4F20001016009
:102F30004FF4E131416000218160C16001610C22E8
:102F400042618161C16101624162FFF797FB18B183
:102F5000FFE7FDF767FBFFE702B080BDFFE7FEE795
:102F6000FFE7FEE788B0079006910592079800F00A
:102F7000070004900498C0F10700052803D3FFE779
:102F80000420019004E00498C0F107000190FFE7DD
:102F90000198039004980430062803D8FFE7002026
:102FA000009003E0049803380090FFE70098029037
:102FB00006980399012202FA01F101390840029BA7
:102FC000984005999A40013A1140084308B070476B
:102FD0007047000080B586B00590049100208DF800
:102FE0000B0041F20C00C4F202000068800720B31D
:102FF000FFE741F20C00C4F20200006800F0030099
:1030000005990968884213D1FFE70598006878B1EF
:10301000FFE741F20C00C4F20200006800F070010A
:10302000012000EB111005994968884204D0FFE7A0
:1030300001208DF80B00FFE75DE005980068019026
:10304000012808D0FFE70198022812D0FFE7019875
:1030500003281CD033E041F20000C4F202000068F3
:103060008007002804D4FFE701208DF80B00FFE75C
:1030700029E041F20000C4F2020000684005002887
:1030800004D4FFE701208DF80B00FFE71BE041F2BD
:103090000000C4F202000068800300280ED4FFE79D
:1030A00041F20000C4F2020000684003002804D48A
:1030B000FFE701208DF80B00FFE7FFE703E00120A9
:1030C0008DF80B00FFE79DF80B0098B9FFE741F280
:1030D0000C01C4F20201086820F07300059B1A6815
:1030E000D3F804C06FF00F0303EB0C131A43104323
:1030F0000860FFE7FFE79DF80B00002840F0A6807E
:10310000FFE741F20001C4F20201086820F080608C
:103110000860FDF7EBFC0390FFE741F20000C4F20A
:1031200002000068000100280CD5FFE7FDF7DEFC77
:103130000399401A032804D3FFE703208DF80B00FE
:1031400000E0EAE79DF80B0000287ED1FFE7049835
:1031500098B9FFE741F21001C4F20201086848F291
:10316000FF02C0F2FF721040059B9A68DB681202F2
:1031700042EAC3621043086037E0049801281AD17C
:10318000FFE741F21001C4F20201086848F2FF02B1
:10319000CFF69F721040059A9368D2F810C00022B3
:1031A000CFF6E07202EA0C52A2F5001242EA0322C4
:1031B0001043086018E041F21001C4F202010868EF
:1031C00048F2FF02CFF6FF121040059A9368D2F83A
:1031D00014C04FF07E4202EA0C6202F17E4242EAE3
:1031E000032210430860FFE7FFE741F20001C4F249
:1031F0000201086840F080600860FDF777FC0390EA
:10320000FFE741F20000C4F202000068000100285C
:103210000CD4FFE7FDF76AFC0399401A032804D396
:10322000FFE703208DF80B0000E0EAE79DF80B00B4
:1032300050B9FFE70598826941F21001C4F202011A
:10324000086810430860FFE7FFE7FFE79DF80B0001
:1032500006B080BD80B586B004900020029041F297
:103260005800C4F202000068C000002804D5FFE73F
:10327000FDF76CFD03901AE0FFE741F25800C4F23D
:103280000200016841F080510160006800F0805048
:1032900001900198FFE7FDF759FD039041F25801B5
:1032A000C4F20201086820F080500860FFE703982C
:1032B000B0F5007F10D1FFE7049881280BD3FFE71A
:1032C0000498A12803D3FFE70220029002E0012026
:1032D0000290FFE7FFE717E00498812803D3FFE798
:1032E000032002900FE00498802803D1FFE702201A
:1032F000029007E00498702803D1FFE701200290B4
:10330000FFE7FFE7FFE7FFE742F20000C4F2020039
:10331000016821F00701029A11430160006800F082
:1033200007000299884204D0FFE701208DF81700BA
:1033300003E000208DF81700FFE79DF8170006B0A6
:1033400080BD00007047000080B582B000900098FA
:103350000138B0F1807F03D3FFE70120019019E02D
:10336000009801384EF21401CEF2000108604FF0CF
:10337000FF300F2100F0E6FF4EF21801CEF20001FF
:10338000002008604EF21002CEF200020721116008
:103390000190FFE7019802B080BD000080B5FDF705
:1033A000ABFB80BD80B596B005A84421FDF760F861
:1033B0000020049003900290019000904FF4007060
:1033C000FDF752FC18B1FFE7FDF72CF9FFE70220EB
:1033D00005904FF480710891402109910F90109051
:1033E000012111910A211291072113911490159036
:1033F00005A8FEF795F918B1FFE7FDF713F9FFE708
:103400000F20009003200190002002900390049070
:1034100068460421FDF756FF18B1FFE7FDF702F9F2
:10342000FFE716B080BD00004EF68851CEF20001D5
:10343000086840F4700008607047000081B0009098
:10344000009890F82400C00758B1FFE70098006882
:10345000406820F40030009A1168926A1043486076
:10346000FFE7009890F82400800700280BD5FFE7BD
:1034700000980068406820F48030009A1168D26A91
:1034800010434860FFE7009890F8240040070028A8
:103490000BD5FFE700980068406820F48020009A70
:1034A0001168126B10434860FFE7009890F8240001
:1034B000000700280BD5FFE700980068406820F45B
:1034C0000040009A1168526B10434860FFE7009873
:1034D00090F82400C00600280BD5FFE7009800688C
:1034E000806820F48050009A1168926B10438860C5
:1034F000FFE7009890F82400800600280BD5FFE72E
:1035000000980068806820F40050009A1168D26B1F
:1035100010438860FFE7009890F8240040060028D8
:103520001CD5FFE700980068406820F48010009ADE
:103530001168126C104348600098006CB0F5801F51
:103540000BD1FFE700980068406820F4C000009AA3
:103550001168526C10434860FFE7FFE7009890F84D
:103560002400000600280BD5FFE70098006840689B
:1035700020F40020009A1168926C10434860FFE725
:1035800001B0704780B584B0029002990020C1F864
:103590008000FDF7ABFA0190029800680068000710
:1035A000002812D5FFE70298019B6A466FF07E4122
:1035B00011604FF40011002200F0AEFD20B1FFE7D2
:1035C00003208DF80F002BE0FFE7029800680068E9
:1035D0004007002812D5FFE70298019B6A466FF06A
:1035E0007E4111604FF48001002200F095FD20B172
:1035F000FFE703208DF80F0012E0FFE7029920207B
:1036000088670299C867029900200866FFE7029957
:10361000002081F87400FFE700208DF80F00FFE71D
:103620009DF80F0004B080BD80B582B00190019874
:10363000806A009000990020A1F85A000099A1F832
:1036400052000098FEF7AEFD02B080BD84B003903A
:10365000FFE7FFE70398006850E8000F20F4907040
:103660000290FFE702990398026842E800100028E0
:10367000F0D1FFE7FFE7FFE7FFE70398006850E8B6
:10368000020F20F001000190FFE701990398026802
:1036900042E802100028F0D1FFE7FFE70398006E30
:1036A000012814D1FFE7FFE7FFE70398006850E81F
:1036B000000F20F010000090FFE7009903980268C7
:1036C00042E800100028F0D1FFE7FFE7FFE7039989
:1036D0002020C8670399002008660399486604B053
:1036E0007047000080B582B00190FFE7FFE70198C6
:1036F000006850E8000F20F040000090FFE70099BC
:103700000198026842E800100028F0D1FFE7FFE7C7
:103710000199202088670199002088660198FFF7A9
:103720003FFB02B080BD000080B586B005900598D3
:10373000B0F85C00ADF80E000598C06F222840F08C
:103740008280FFE705980068808CADF80C00059832
:10375000406D0490BDF80C00BDF80E1008400499AF
:1037600008800599486D023048650599B1F85A00FE
:103770000138A1F85A000598B0F85A00002861D124
:10378000FFE7FFE7FFE70598006850E8000F20F427
:1037900090700290FFE702990598026842E80010D5
:1037A0000028F0D1FFE7FFE7FFE7FFE70598006893
:1037B00050E8020F20F001000190FFE70199059801
:1037C000026842E802100028F0D1FFE7FFE7059900
:1037D0002020C8670599002048660598006E0128DA
:1037E0002BD1FFE7059900200866FFE7FFE7059862
:1037F000006850E8000F20F010000090FFE70099EB
:103800000598026842E800100028F0D1FFE7FFE7C2
:1038100005980068C06900F010010120B0EB111F8D
:1038200005D1FFE70598016810200862FFE70598B9
:10383000B0F85810FEF7ACFC03E00598FFF7C8F8A5
:10384000FFE7FFE706E005980168088B40F00800F5
:103850000883FFE706B080BD80B586B00590059867
:10386000B0F85C00ADF812000598C06F222840F057
:103870008080FFE705980068808CADF81000BDF8E7
:1038800010009DF8121008400599496D08700599BF
:10389000486D013048650599B1F85A000138A1F822
:1038A0005A000598B0F85A00002861D1FFE7FFE7F9
:1038B000FFE70598006850E8000F20F4907003902F
:1038C000FFE703990598026842E800100028F0D14C
:1038D000FFE7FFE7FFE7FFE70598006850E8020F02
:1038E00020F001000290FFE702990598026842E883
:1038F00002100028F0D1FFE7FFE705992020C867F4
:103900000599002048660598006E01282BD1FFE735
:10391000059900200866FFE7FFE70598006850E872
:10392000000F20F010000190FFE701990598026850
:1039300042E800100028F0D1FFE7FFE70598006893
:10394000C06900F010010120B0EB111F05D1FFE7A5
:103950000598016810200862FFE70598B0F8581034
:10396000FEF716FC03E00598FFF732F8FFE7FFE7E4
:1039700006E005980168088B40F008000883FFE71F
:1039800006B080BD80B58EB00D9000208DF8270068
:103990000D98006848F20001C4F20001884201D18C
:1039A000FFE700E0FFE70D9988680B694A69C9697C
:1039B0001843104308430C900D980068006846F6C1
:1039C000F311CEF6FF7108400C9908430D99096870
:1039D00008600D980068406820F440500D9A116806
:1039E000D268104348600D9880690C900D9800686B
:1039F00048F20001C4F20001884206D0FFE70D98AA
:103A0000016A0C9808430C90FFE70D9800688068E5
:103A100020F430600C9908430D9909688860FFE72D
:103A20000D98006843F60001C4F20101884225D1D7
:103A3000FFE741F28800C4F20200006800F00300D2
:103A400001460791032814D80799DFE801F0020A1C
:103A5000060E01208DF82D000FE002208DF82D00BC
:103A60000BE004208DF82D0007E008208DF82D00D4
:103A700003E010208DF82D00FFE7DCE00D980068D2
:103A800044F20041C4F2000188422AD1FFE741F22A
:103A90008800C4F20200006800F00C0001460691A4
:103AA0000C2819D80699DFE801F0071717170F1728
:103AB00017170B171717130000208DF82D000FE0B4
:103AC00002208DF82D000BE004208DF82D0007E07A
:103AD00008208DF82D0003E010208DF82D00FFE761
:103AE000A8E00D98006844F60001C4F20001884285
:103AF0002CD1FFE741F28800C4F20200006800F018
:103B000030000146059160B1FFE70598102810D0FC
:103B1000FFE70598202808D0FFE7059830280CD04B
:103B20000FE000208DF82D000FE002208DF82D0011
:103B30000BE004208DF82D0007E008208DF82D0003
:103B400003E010208DF82D00FFE772E00D9800686B
:103B500044F60041C4F2000188422CD1FFE741F253
:103B60008800C4F20200006800F0C0000146049121
:103B700060B1FFE70498402810D0FFE70498802840
:103B800008D0FFE70498C0280CD00FE000208DF883
:103B90002D000FE002208DF82D000BE004208DF8A1
:103BA0002D0007E008208DF82D0003E010208DF88F
:103BB0002D00FFE73CE00D98006848F20001C4F2D8
:103BC000000188422FD1FFE741F28800C4F20200D1
:103BD000006800F440600146039178B1FFE7039864
:103BE000B0F5806F12D0FFE70398B0F5006F09D0F1
:103BF000FFE70398B0F5406F0CD00FE000208DF880
:103C00002D000FE002208DF82D000BE004208DF830
:103C10002D0007E008208DF82D0003E010208DF81E
:103C20002D00FFE703E010208DF82D00FFE7FFE7F0
:103C3000FFE7FFE7FFE7FFE70D98006848F20001A4
:103C4000C4F20001884260D1FFE79DF82D000146D3
:103C50000291082819D80299DFE801F00517091721
:103C60000F1717171300FDF785FC089013E042F2B9
:103C70000040C0F2F40008900DE0FDF7A3FC0890AE
:103C800009E04FF40040089005E000200890012072
:103C90008DF82700FFE70898B0B3FFE708980D9963
:103CA000496801EB4101884207D3FFE708980D9965
:103CB0004968B0EB013F04D9FFE701208DF82700E8
:103CC00021E00898010E00020D9A526810EB520094
:103CD00041F100010023FCF7CDFA0A900A98B0F5F3
:103CE000407F0BD3FFE70A990020B0EB115F05D1AD
:103CF000FFE70A980D990968C86003E001208DF874
:103D00002700FFE7FFE7FFE7A7E00D98C069B0F5E0
:103D1000004F58D1FFE79DF82D000146019108287A
:103D20001DD80199DFE801F005090D1B131B1B1BB2
:103D30001700FDF71FFC089017E0FDF72FFC089017
:103D400013E042F20040C0F2F40008900DE0FDF7ED
:103D500039FC089009E04FF40040089005E000208D
:103D6000089001208DF82700FFE7089850B3FFE77F
:103D7000089840000D99496800EB5100B0FBF1F044
:103D80000A900A98102818D3FFE7BDF82A00A0B9B6
:103D9000FFE70A9820F00F00ADF82E000A9800F017
:103DA0000E01BDF82E0040EA5100ADF82E00BDF81E
:103DB0002E000D990968C86003E001208DF82700E6
:103DC000FFE7FFE748E09DF82D0001460091082835
:103DD0001DD80099DFE801F005090D1B131B1B1B03
:103DE0001700FDF7C7FB089017E0FDF7D7FB089019
:103DF00013E042F20040C0F2F40008900DE0FDF73D
:103E0000E1FB089009E04FF40040089005E0002035
:103E1000089001208DF82700FFE70898D8B1FFE748
:103E200008980D99496800EB5100B0FBF1F00A9039
:103E30000A9810280AD3FFE7BDF82A0030B9FFE737
:103E4000BDF828000D990968C86003E001208DF8CD
:103E50002700FFE7FFE7FFE7FFE70D99002048662F
:103E60000D9988669DF827000EB080BD86B005903C
:103E70000491ADF80E20049805994865BDF80E0030
:103E80000599A1F85800BDF80E000599A1F85A004F
:103E9000059900204866FFE705988068B0F5805FC7
:103EA00010D1FFE70598006930B9FFE7059940F2A6
:103EB000FF10A1F85C0004E00599FF20A1F85C0068
:103EC000FFE72EE00598806878B9FFE7059800695C
:103ED00028B9FFE70599FF20A1F85C0004E00599E7
:103EE0007F20A1F85C00FFE71AE005988068B0F138
:103EF000805F0FD1FFE70598006928B9FFE70599B2
:103F00007F20A1F85C0004E005993F20A1F85C0047
:103F1000FFE704E005990020A1F85C00FFE7FFE758
:103F2000FFE7FFE705990020C1F8800005992220EE
:103F3000C867FFE7FFE70598006850E8020F40F008
:103F400001000290FFE702990598026842E802101A
:103F50000028F0D1FFE7FFE705988068B0F5805FA3
:103F60000BD1FFE70598006938B9FFE7059943F2DF
:103F70002970C0F60000486606E0059943F659002E
:103F8000C0F600004866FFE7FFE70599002081F8CA
:103F90007400FFE705980069A0B1FFE7FFE7FFE7BE
:103FA0000598006850E8000F40F490700190FFE71A
:103FB00001990598026842E800100028F0D1FFE757
:103FC000FFE713E0FFE7FFE70598006850E8000F00
:103FD00040F020000090FFE700990598026842E851
:103FE00000100028F0D1FFE7FFE7FFE7002006B050
:103FF0007047000084B003900398806F212842D15D
:10400000FFE70398B0F8520038BBFFE7FFE7FFE790
:104010000398006850E8000F20F080000190FFE74F
:1040200001990398026842E800100028F0D1FFE7E8
:10403000FFE7FFE7FFE70398006850E8000F40F054
:1040400040000090FFE700990398026842E80010E2
:104050000028F0D1FFE7FFE714E00398C06C02905E
:10406000029800886FF35F20039909680885039917
:10407000C86C0230C8640399B1F852000138A1F845
:104080005200FFE7FFE704B07047000083B00290E2
:104090000298806F21283DD1FFE70298B0F85200C6
:1040A00038BBFFE7FFE7FFE70298006850E8000F22
:1040B00020F080000190FFE701990298026842E831
:1040C00000100028F0D1FFE7FFE7FFE7FFE70298C5
:1040D000006850E8000F40F040000090FFE70099B2
:1040E0000298026842E800100028F0D1FFE7FFE7DD
:1040F0000FE002980168C06C007808850299C86CCE
:104100000130C8640299B1F852000138A1F8520098
:10411000FFE7FFE703B0704780B58AB0DDF830C035
:10412000089007918DF81B200593FFE70898006819
:10413000C06907990840401AB0FA80F040099DF81C
:104140001B10884240F09880FFE70C98013000284F
:1041500000F09180FFE7FCF7C9FC0599401A0C9923
:10416000884203D8FFE70C98A8BBFFE7FFE7FFE70B
:104170000898006850E8000F20F4D0700490FFE722
:1041800004990898026842E800100028F0D1FFE77F
:10419000FFE7FFE7FFE70898006850E8020F20F00C
:1041A00001000390FFE703990898026842E80210B3
:1041B0000028F0D1FFE7FFE70899202088670899D9
:1041C000C867FFE70899002081F87400FFE7032023
:1041D0008DF8270054E00898006800684007002820
:1041E00048D5FFE708980068C06900F40061012025
:1041F000B0EBD12F3DD1FFE7089801684FF4006084
:104200000862FFE7FFE70898006850E8000F20F415
:10421000D0700290FFE702990898026842E8001007
:104220000028F0D1FFE7FFE7FFE7FFE70898006805
:1042300050E8020F20F001000190FFE70199089873
:10424000026842E802100028F0D1FFE7FFE7089972
:10425000202088670899C8670899C1F88000FFE79F
:104260000899002081F87400FFE703208DF82700EB
:1042700006E0FFE7FFE759E700208DF82700FFE79A
:104280009DF827000AB080BD80B540F26810C2F2E8
:104290000000FDF78BFF80BD80B582B040F2641056
:1042A000C2F200000068012820D1FFE740F28640FA
:1042B000C2F20000019040F25831C2F200016422C3
:1042C000FCF76FF80198FCF74DF8019982B240F2C3
:1042D0006810C2F200004FF4FA73FEF73FFC40F2A0
:1042E0006411C2F2000100200860FFE702B080BD47
:1042F00080B540F2EC10C2F20000FDF757FF80BD20
:10430000FFE7FEE781B08DF803009DF90300002868
:104310000ED4FFE79DF9031001F01F020120904029
:104320004A094EF20011CEF2000141F82200FFE7E7
:1043300001B070474EF60C50CEF200000068C0F39A
:104340000220704782B08DF8070000919DF90700A8
:1043500000280AD4FFE7009800019DF907104EF2EB
:104360000042CEF2000288540BE0009800019DF854
:10437000071001F00F014EF61452CEF200028854DD
:10438000FFE702B07047000083B00290029800F08F
:10439000070000904EF60C51CEF200010868019023
:1043A00001984FF6FF02104001900198009A40EAF0
:1043B00002200022C0F2FA521043019001980860D6
:1043C00003B0704780B58CB040F2F420C2F2000018
:1043D00040F25101C2F20001FCF772F838B9FFE770
:1043E00040F2F001C2F2000101200860FFE740F254
:1043F000F000C2F200000068013801460B910D2860
:1044000000F2EF810B99DFE811F00E002F00490058
:1044100063007D009700B100CB003F01590173019B
:104420008D01A701C10140F2F420C2F20000642115
:10443000FBF7FCFF40F22500C2F2000040F25831C9
:10444000C2F2000140F22A02C2F2000200F0CCF9EE
:10445000012808D1FFE740F2F001C2F2000108682C
:1044600001300860FFE7FFE740F22500C2F20000DC
:1044700040F25831C2F2000140F22A02C2F20002B8
:1044800000F0B2F9012808D1FFE740F2F001C2F2D2
:104490000001086801300860FFE7A2E140F2250052
:1044A000C2F2000040F25831C2F2000140F22A028A
:1044B000C2F2000200F098F9012808D1FFE740F2AB
:1044C000F001C2F20001086801300860FFE788E1EE
:1044D00040F22500C2F2000040F25831C2F2000161
:1044E00040F22A02C2F2000200F07EF9012808D14F
:1044F000FFE740F2F001C2F20001086801300860F5
:10450000FFE76EE140F22500C2F2000040F25831B0
:10451000C2F2000140F22A02C2F2000200F064F985
:10452000012808D1FFE740F2F001C2F2000108685B
:1045300001300860FFE754E140F22500C2F20000BC
:1045400040F25831C2F2000140F22A02C2F20002E7
:1045500000F04AF9012808D1FFE740F2F001C2F269
:104560000001086801300860FFE7FFE740F225001E
:10457000C2F2000040F25831C2F2000140F22A02B9
:10458000C2F2000200F030F9012808D1FFE740F242
:10459000F001C2F20001086801300860FFE720E185
:1045A00040F23800C2F200000890FBF7DBFE0899E9
:1045B00082B240F2EC10C2F200004FF4FA73099399
:1045C000FEF7CCFA0998FCF7B3F840F25830C2F283
:1045D00000000A90FBF7C6FE0A99084410F8030C85
:1045E00053280ED0FFE740F25830C2F20000079087
:1045F000FBF7B8FE0799084410F8030C4B2830D19C
:10460000FFE740F25830C2F200000690FBF7AAFE26
:10461000069982B240F26810C2F2000005904FF491
:10462000FA730493FEF79AFAC820FCF781F840F277
:104630004500C2F200000390FBF794FE0399049B2F
:104640000246059892B2FEF789FA06986421FBF7B4
:10465000EDFE40F2F001C2F200010868013008608E
:1046600011E040F23800C2F200000290FBF77AFE3F
:10467000029982B240F2EC10C2F200004FF4FA73D9
:10468000FEF76CFAFFE7ACE040F22500C2F2000052
:1046900040F25831C2F2000140F22A02C2F2000296
:1046A00000F0A2F8012808D1FFE740F2F001C2F2C1
:1046B0000001086801300860FFE792E040F2250041
:1046C000C2F2000040F25831C2F2000140F22A0268
:1046D000C2F2000200F088F8012808D1FFE740F29A
:1046E000F001C2F20001086801300860FFE778E0DD
:1046F00040F22500C2F2000040F25831C2F200013F
:1047000040F22A02C2F2000200F06EF8012808D13D
:10471000FFE740F2F001C2F20001086801300860D2
:10472000FFE75EE040F22500C2F2000040F258319F
:10473000C2F2000140F22A02C2F2000200F054F874
:10474000012808D1FFE740F2F001C2F20001086839
:1047500001300860FFE744E040F22500C2F20000AB
:1047600040F25831C2F2000140F22A02C2F20002C5
:1047700000F03AF8012808D1FFE740F2F001C2F258
:104780000001086801300860FFE72AE040F22500D8
:10479000C2F2000040F25831C2F2000140F22A0297
:1047A000C2F2000200F020F8012819D1FFE740F220
:1047B0001700C2F200000190FBF7D4FD019982B20C
:1047C00040F26810C2F200004FF4FA73FEF7C6F927
:1047D00040F2F001C2F20001086801300860FFE712
:1047E000FFE70CB080BD000080B58CB00B900A9143
:1047F0000992002008900B98FBF7B4FD82B240F2BA
:10480000EC10C2F200000BA94FF4FA730693FEF706
:10481000A5F90698FBF78CFF0A980790FBF7A2FD15
:104820000799084410F8040C4F2832D1FFE70A9882
:104830000590FBF797FD0599084410F8030C4B28E9
:1048400027D1FFE70A98FBF78DFD82B240F268108E
:10485000C2F2000004900AA94FF4FA730393FEF722
:104860007DF9C820FBF764FF40F20400C2F20000AB
:104870000290FBF777FD0299039B0246049892B2DF
:10488000FEF76CF90A986421FBF7D0FD012008902F
:1048900011E040F2FC00C2F200000190FBF762FD63
:1048A000019982B240F2EC10C2F200004FF4FA73A8
:1048B000FEF754F9FFE708980CB080BD80B596B0BC
:1048C000002010901590FCF725F9FEF76BFDFEF720
:1048D0006DFAFEF7DDFAFEF7FDFAFEF71DFB40F27A
:1048E000EC10C2F20000039040F22141C2F200013C
:1048F00001221492FEF70CF8149A40F26810C2F2EA
:104900000000019040F2BC31C2F20001FEF700F855
:1049100040F28640C2F200000090FBF723FD0099B0
:104920000246019892B2FEF7C1F940F2EA40C2F2A3
:1049300000000290FBF716FD02990246039892B21E
:10494000FEF7B4F940F2FC00C2F200000C90FBF755
:1049500009FD01460C980844059040F25600C2F249
:1049600000000490FBF7FEFC049902460598FBF753
:1049700018FD0C98FBF7F6FC01460C9808440790CC
:1049800040F26B00C2F200000690FBF7EBFC0699C8
:1049900002460798FBF705FD0C98FBF7E3FC014680
:1049A0000C980844099040F27900C2F20000089087
:1049B000FBF7D8FC089902460998FBF7F2FC0C9823
:1049C000FBF7D0FC01460C9808440B9040F27C00A9
:1049D000C2F200000A90FBF7C5FC0A9902460B9848
:1049E000FBF7DFFC0C98FBF7BDFC01460C98084474
:1049F0000E9040F28100C2F200000D90FBF7B2FC75
:104A00000D9902460E98FBF7CCFC149A40F2004038
:104A1000C4F600000F9008211391FCF751F8109A8A
:104A200040F60000C4F6000012902021FCF748F880
:104A30000F98149A1146FCF743F8109A1298022125
:104A40001191FCF73DF8109A12981399FCF738F879
:104A500011991298149AFCF733F843F69820FBF753
:104A600067FE12981399149AFCF72AF84FF4FA602B
:104A7000FBF75EFEFFE7FFF70FFCFFF70DFCFFF70C
:104A8000A1FCF8E7F1EE100A4FF6FF71C0F2C03159
:104A900020EA010040F04070E1EE100A704700008B
:104AA00000000000000001020304060708090000DE
:104AB0000000010203040000A0860100400D030075
:104AC000801A060000350C0040420F0080841E0052
:104AD00000093D0000127A000024F40000366E0147
:104AE0000048E801006CDC02084B000800000020D0
:104AF00090000000D0010008984B000890000020B2
:104B0000C80A0000EC01000800093D00416C6C6F10
:104B1000772072656365697665204F4B0D0A004BFF
:104B20005420484F414E205441540D0A0041540D29
:104B30000A004B54206D6F64756E204F4B0D0A00B8
:104B400041542B4E45544F50454E0D0A004B5420B6
:104B50004E4554204F4B0D0A004B540D0A00415452
:104B60002B4349504F50454E3D312C225443502247
:104B70002C22003131372E362E3136332E31373755
:104B800000222C0037353737002C300D0A00010089
:084B900010000000000000000D
:040000050800019559
:00000001FF
