:020000040800F2
:1000000000800220E5360008691400086B1400081F
:100010006D1400086F14000871140008000000003F
:100020000000000000000000000000007314000841
:100030007514000800000000771400087914000807
:1000400035370008353700083537000835370008E0
:1000500035370008353700083537000835370008D0
:1000600035370008353700083537000835370008C0
:1000700035370008353700083537000835370008B0
:1000800035370008353700083537000835370008A0
:100090003537000835370008353700083537000890
:1000A0003537000835370008353700083537000880
:1000B00035370008353700080000000035370008E4
:1000C0003537000835370008353700083537000860
:1000D00035370008811400083537000891140008EE
:1000E0003537000835370008000000000000000028
:1000F0000000000000000000000000000000000000
:100100000000000035370008000000003537000807
:1001100035370008000000003537000800000000F7
:1001200035370008353700083537000835370008FF
:100130003537000835370008353700080000000063
:1001400035370008353700083537000835370008DF
:1001500035370008353700083537000835370008CF
:100160003537000835370008353700080000000033
:10017000000000003537000800000000000000000B
:10018000353700083537000835370008353700089F
:080190003537000800000000F3
:1001980010B5054C237833B9044B13B10448AFF3B9
:1001A80000800123237010BDE80200200000000039
:1001B800AC37000808B5034B1BB103490348AFF33C
:1001C800008008BD00000000EC020020AC370008E9
:1001D80010F8012B11F8013B012A28BF9A42F7D0E9
:1001E800D01A7047034613F8012B002AFBD1181ABE
:1001F8000138704753B94AB9002908BF00281CBF05
:100208004FF0FF314FF0FF3000F074B9ADF1080C3A
:100218006DE904CE00F006F8DDF804E0DDE902231C
:1002280004B070472DE9F047089D04468E46002B20
:100238004DD18A42944669D9B2FA82F252B101FA92
:1002480002F3C2F1200120FA01F10CFA02FC41EAA2
:10025800030E94404FEA1C48210CBEFBF8F61FFA27
:100268008CF708FB16E341EA034306FB07F19942C2
:100278000AD91CEB030306F1FF3080F01F81994275
:1002880040F21C81023E63445B1AA4B2B3FBF8F04F
:1002980008FB103344EA034400FB07F7A7420AD9D6
:1002A8001CEB040400F1FF3380F00A81A74240F2FE
:1002B80007816444023840EA0640E41B00261DB169
:1002C800D4400023C5E900433146BDE8F0878B429E
:1002D80009D9002D00F0EF800026C5E9000130465D
:1002E8003146BDE8F087B3FA83F6002E4AD18B4237
:1002F80002D3824200F2F980841A61EB03030120E1
:100308009E46002DE0D0C5E9004EDDE702B9FFDECC
:10031800B2FA82F2002A40F09280A1EB0C014FEA77
:100328001C471FFA8CFE0126200CB1FBF7F307FBD4
:10033800131140EA01410EFB03F0884208D91CEB77
:10034800010103F1FF3802D2884200F2CB80434614
:10035800091AA4B2B1FBF7F007FB101144EA0144F3
:100368000EFB00FEA64508D91CEB040400F1FF3182
:1003780002D2A64500F2BB800846A4EB0E0440EA70
:1003880003409CE7C6F12007B34022FA07FC4CEA79
:10039800030C20FA07F401FA06F31C43F9404FEA6C
:1003A8001C4900FA06F3B1FBF9F8200C1FFA8CFE81
:1003B80009FB181140EA014108FB0EF0884202FAD5
:1003C80006F20BD91CEB010108F1FF3A80F0888096
:1003D800884240F28580A8F102086144091AA4B253
:1003E800B1FBF9F009FB101144EA014100FB0EFED4
:1003F8008E4508D91CEB010100F1FF346CD28E4503
:100408006AD90238614440EA0840A0FB0294A1EB93
:100418000E01A142C846A64656D353D05DB1B3EBF0
:10042800080261EB0E0101FA07F722FA06F3F14020
:100438001F43C5E9007100263146BDE8F087C2F1C7
:100448002003D8400CFA02FC21FA03F3914001433F
:100458004FEA1C471FFA8CFEB3FBF7F007FB103678
:100468000B0C43EA064300FB0EF69E4204FA02F424
:1004780008D91CEB030300F1FF382FD29E422DD977
:10048800023863449B1B89B2B3FBF7F607FB1633AC
:1004980041EA034106FB0EF38B4208D91CEB01012C
:1004A80006F1FF3816D28B4214D9023E6144C91AAC
:1004B80046EA004638E72E46284605E70646E3E6BC
:1004C8001846F8E64B45A9D2B9EB020864EB0C0EC6
:1004D8000138A3E74646EAE7204694E74046D1E7D5
:1004E800D0467BE7023B614432E7304609E7644483
:1004F800023842E7704700BFF0B589B00024039482
:100508000494059406940794234BDA6C42F0040291
:10051800DA64DA6C02F004020092009ADA6C42F0B3
:100528000202DA64DA6C02F002020192019ADA6CD1
:1005380042F00102DA64DB6C03F001030293029BD0
:10054800164F22462A21384602F0B0FF144D2246A3
:1005580046F21B01284602F0A9FF2A23039301262D
:1005680004960594069403A9384602F0BBFE46F2A9
:100578001B03039304960594069403A9284602F0E6
:10058800B1FE4FF4487303930494059403A92846D5
:1005980002F0A8FE09B0F0BD0010024000080048B3
:1005A8000004004870B5B249B248FFF711FE10B90F
:1005B800B14B01221A60B04B1B68013B0C2B39D898
:1005C800DFE813F00D005900A000E7002E019401A8
:1005D800DB0122026802AF0214035B03A203642258
:1005E8000021A44803F0D6F8A44C2046FFF7FAFDF2
:1005F8004FF4FA7382B22146A14801F05CFD4FF432
:10060800FA7001F013FF9F4C2046FFF7EBFD031F24
:10061800E35C4F2B03D1C31EE35C4B2B0BD0974CF1
:100628002046FFF7DFFD4FF4FA7382B22146944863
:1006380001F041FD70BD944D4FF4FA7382B221462A
:10064800284601F038FDC82001F0F0FE8F4E3046F4
:10065800FFF7C8FD4FF4FA7382B23146284601F01D
:100668002AFD64220021204603F094F8824A136888
:1006780001331360DEE7864C2046FFF7B3FD4FF4E5
:10068800FA7382B221467E4801F015FD4FF4FA70E4
:1006980001F0CCFE7B4C2046FFF7A4FD031FE35C72
:1006A8004F2B03D1C31EE35C4B2B0BD0784C204659
:1006B800FFF798FD4FF4FA7382B22146704801F0B3
:1006C800FAFCB7E7704D4FF4FA7382B22146284618
:1006D80001F0F1FCC82001F0A9FE6E4E3046FFF78C
:1006E80081FD4FF4FA7382B23146284601F0E3FCEB
:1006F80064220021204603F04DF85F4A1368013355
:10070800136097E7644C2046FFF76CFD4FF4FA73CB
:1007180082B221465A4801F0CEFC4FF4FA7001F03B
:1007280085FE584C2046FFF75DFD031FE35C4F2B09
:1007380003D1C31EE35C4B2B0BD0574C2046FFF76D
:1007480051FD4FF4FA7382B221464D4801F0B3FCD3
:1007580070E74D4D4FF4FA7382B22146284601F0F6
:10076800AAFCC82001F062FE4C4E3046FFF73AFD65
:100778004FF4FA7382B23146284601F09CFC642299
:100788000021204603F006F83B4A13680133136042
:1007980050E7434C2046FFF725FD4FF4FA7382B229
:1007A8002146374801F087FC4FF4FA7001F03EFE0D
:1007B800344C2046FFF716FD031FE35C4F2B03D193
:1007C800C31EE35C4B2B0BD0354C2046FFF70AFDCC
:1007D8004FF4FA7382B22146294801F06CFC29E7EC
:1007E800294D4FF4FA7382B22146284601F063FC82
:1007F800C82001F01BFE2B4E3046FFF7F3FC4FF4E8
:10080800FA7382B23146284601F055FC6422002171
:10081800204602F0BFFF184A13680133136009E746
:10082800214C2046FFF7DEFC4FF4FA7382B22146D2
:10083800134801F040FC4FF4FA7001F0F7FD114C39
:100848002046FFF7CFFC031FE35C4F2B03D1C31EE9
:10085800E35C4B2B2AD0144C2046FFF7C3FC4FF423
:10086800FA7382B22146064801F025FCE2E600BF91
:1008780048000020E405002004030020E8000020D0
:10088800D40400204806002050040020F000002076
:100898001C01002028010020840000209000002076
:1008A800A4000020B000002028000020C04D4FF414
:1008B800FA7382B22146284601F0FDFBC82001F0F8
:1008C800B5FDBC4E3046FFF78DFC4FF4FA7382B28B
:1008D8003146284601F0EFFB64220021204602F051
:1008E80059FFB54A136801331360A3E6B34C204699
:1008F800FFF778FC4FF4FA7382B22146B04801F052
:10090800DAFB4FF4FA7001F091FDAE4C2046FFF788
:1009180069FC031FE35C4F2B03D1C31EE35C4B2B25
:100928000BD0A64C2046FFF75DFC4FF4FA7382B259
:100938002146A34801F0BFFB7CE69D4D4FF4FA73B6
:1009480082B22146284601F0B6FBC82001F06EFDB0
:100958009D4E3046FFF746FC4FF4FA7382B231469B
:10096800284601F0A8FB64220021204602F012FF6D
:10097800914A1368013313605CE6944C2046FFF7F4
:1009880031FC4FF4FA7382B221468D4801F093FB93
:100998004FF4FA7001F04AFD8A4C2046FFF722FC1A
:1009A800031FE35C4F2B03D1C31EE35C4B2B0BD01F
:1009B800864C2046FFF716FC4FF4FA7382B22146A4
:1009C8007F4801F078FB35E6794D4FF4FA7382B22F
:1009D8002146284601F06FFBC82001F027FD7C4E18
:1009E8003046FFF7FFFB4FF4FA7382B231462846D0
:1009F80001F061FB64220021204602F0CBFE6E4A22
:100A080013680133136015E6724C2046FFF7EAFBC2
:100A18004FF4FA7382B22146694801F04CFB4FF457
:100A2800FA7001F003FD674C2046FFF7DBFBC31E9D
:100A3800E35C532B01D04B2B20D1624C5C4D4FF41F
:100A4800FA7382B22146284601F035FBC82001F02E
:100A5800EDFC614E3046FFF7C5FB4FF4FA7382B2E6
:100A68003146284601F027FB64220021204602F087
:100A780091FE514A136801331360DBE5554C20465B
:100A8800FFF7B0FB4FF4FA7382B221464C4801F0ED
:100A980012FBCFE5514C2046FFF7A4FB4FF4FA7345
:100AA80082B22146464801F006FB4FF4FA7001F085
:100AB800BDFC444C2046FFF795FB031FE35C4F2B1E
:100AC80003D1C31EE35C4B2B0BD0444C2046FFF7ED
:100AD80089FB4FF4FA7382B22146394801F0EBFAE8
:100AE800A8E5334D4FF4FA7382B22146284601F047
:100AF800E2FAC82001F09AFC394E3046FFF772FB43
:100B08004FF4FA7382B23146284601F0D4FA6422CF
:100B18000021204602F03EFE274A13680133136085
:100B280088E5304C2046FFF75DFB4FF4FA7382B23C
:100B38002146234801F0BFFA4FF4FA7001F076FC21
:100B4800204C2046FFF74EFB031FE35C4F2B03D1DD
:100B5800C31EE35C4B2B0BD0224C2046FFF742FB15
:100B68004FF4FA7382B22146154801F0A4FA61E500
:100B78000F4D4FF4FA7382B22146284601F09BFAD2
:100B8800C82001F053FC184E3046FFF72BFB4FF4FA
:100B9800FA7382B23146284601F08DFA64220021A8
:100BA800204602F0F7FD044A13680133136041E55B
:100BB80050040020C0000020040300207C02002014
:100BC800D404002048060020A4020020B802002017
:100BD800C80200200001002010010020D0000020E1
:100BE800DC000020580200206C0200206F4C2046D8
:100BF800FFF7F8FA4FF4FA7382B221466C4801F015
:100C08005AFA4FF4FA7001F011FC6A4C2046FFF7CB
:100C1800E9FA031FE35C4F2B03D1C31EE35C4B2BA4
:100C28000BD0624C2046FFF7DDFA4FF4FA7382B21C
:100C380021465F4801F03FFAFCE45F4D4FF4FA7338
:100C480082B22146284601F036FAC82001F0EEFBB0
:100C58005A4E3046FFF7C6FA4FF4FA7382B231465D
:100C6800284601F028FA64220021204602F092FD6D
:100C7800534A136801331360DCE4524C2046FFF7F3
:100C8800B1FA4FF4FA7382B22146494801F013FAD7
:100C98004FF4FA7001F0CAFB464C2046FFF7A2FA5F
:100CA800031FE35C4F2B03D1C31EE35C4B2B0BD01C
:100CB800444C2046FFF796FA4FF4FA7382B2214665
:100CC8003B4801F0F8F9B5E43B4D4FF4FA7382B2B2
:100CD8002146284601F0EFF9C82001F0A7FB3A4E5B
:100CE8003046FFF77FFA4FF4FA7382B2314628464E
:100CF80001F0E1F964220021204602F04BFD304A60
:100D080013680133136095E4304C2046FFF76AFA04
:100D18004FF4FA7382B22146254801F0CCF94FF41A
:100D2800FA7001F083FB234C2046FFF75BFA031FA0
:100D3800E35C4F2B03D1C31EE35C4B2B0BD0234C3E
:100D48002046FFF74FFA4FF4FA7382B2214618484B
:100D580001F0B1F96EE42546174C4FF4FA7382B2EC
:100D68002946204601F0A7F9C82001F05FFB184E7C
:100D78003046FFF737FA4FF4FA7382B2314620460D
:100D880001F099F9134E3046FFF72CFA4FF4FA7335
:100D980082B23146204601F08EF9642200212846AD
:100DA80002F0F8FC064B0F221A6043E414030020FB
:100DB800D4040020480600205004002070010020C0
:100DC800040300200000002014000020340000204C
:100DD800740000205000002070B5044601F020FB8C
:100DE800414B1B68C01A40F2DB53984203D93F4B72
:100DF8001B680F2B0FD001F013FB3D4B1B68C01A6B
:100E08004FF47A7303FB04F4A04203D3374B1B68F7
:100E18000F2B10D070BD374D2846FFF7E3F94FF47C
:100E2800FA7382B22946344801F045F901F0F8FA1C
:100E38002D4B1860DFE7314A138801339BB21380CA
:100E48002F48A0FB0312D20802EB8202A3EB420256
:100E5800D2B22C490A702C49A1FB034149096424E8
:100E680004FB11339BB2A0FB0303C3F3C70327485A
:100E78000370C9B2264801703031264801703033FA
:100E88004370303282702D23C370002307E003F1D2
:100E980011011A1D2048405C1E4988540133072B54
:100EA800F5DD1C4D1D4B1B88AB811D4C642632465D
:100EB8001C49204602F060FC2046FFF793F93246B1
:100EC8002946204402F058FC2046FFF78BF94FF4DE
:100ED800FA7382B22146144801F0EDF801F0A0FA45
:100EE800034B186096E700BFE005002004030020CC
:100EF800DC05002084010020D404002078030020B1
:100F0800CDCCCCCC440400201F85EB510803002035
:100F18000C090020E00300207C0300208001002051
:100F2800A8080020900100205004002008B50B4BB1
:100F38005B78432B00D008BD084B9B78432BFAD134
:100F4800064BDB784C2BF6D1044B1B794B2BF2D19B
:100F580064220249024802F00FFCECE74806002030
:100F68007C030020F8B5294B1B782F2B00D0F8BD47
:100F7800642422462649274802F0FEFB22462649D9
:100F8800264802F0F9FB002305E05A1C1F49885C3B
:100F98002349C8541346622BF7DD204D2846FFF736
:100FA80021F91F4F642422463946284402F0E4FB05
:100FB800184E3046FFF716F922463946304402F0FB
:100FC800DBFB3046FFF70EF94FF4FA7382B2314675
:100FD800144801F070F82846FFF704F94FF4FA7343
:100FE80082B22946104801F066F8224600213046B0
:100FF80002F0D0FB22460021284602F0CBFB224615
:101008000021024802F0C6FBB1E700BFE40500205A
:10101800900100207C070020F401002044080020F3
:10102800E0070020D4040020500400200D4B1B686A
:10103800012B00D0704710B50B4C64220B49204699
:1010480002F09AFBFFF772FF2046FFF7CBF84FF448
:10105800FA7382B22146064801F02DF8014B0022AE
:101068001A6010BD4C04002010090020480600201A
:10107800500400200D4B1B68012B00D0704710B5A1
:10108800FFF770FF0A4C64220A49204602F074FBFD
:101098002046FFF7A7F84FF4FA7382B221460648B4
:1010A80001F009F8014B00221A6010BD4804002025
:1010B80074090020E4050020D404002070B504461B
:1010C8000268314B1B689A4215D0304D2846FFF70D
:1010D80089F8831EEB5C0D2B1BD022682C4B1B68F8
:1010E8009A422CD02B4C2046FFF77CF8831EE35CF9
:1010F8000D2B32D070BD284D01222946224801F01F
:101108001BF9264A136828782049C854013313600C
:10111800DBE7431EEB5C0A2BDFD164263246294607
:101128001F4802F029FB32460021284602F032FB14
:101138001A4B00221A601B4B01221A60CDE71A4C89
:1011480001222146124801F0F7F8184A136820785E
:101158001049C85401331360C4E70138235C0A2BD3
:10116800C8D164252A462146114802F005FB2A46C3
:101178000021204602F00EFB0C4B00221A600D4B9A
:1011880001221A60B6E700BFD40400201807002027
:1011980050040020B006002014070020100300208F
:1011A800480600204C040020AC0600200C03002058
:1011B800E40500204804002072B6FEE708B50B4895
:1011C8000B4B03604FF4E133436000238360C3603B
:1011D80003610C2242618361C3610362436201F0CF
:1011E8000EF800B908BDFFF7E7FF00BF580500205B
:1011F800004C004008B50B480B4B03604FF4E1333B
:10120800436000238360C36003610C2242618361F1
:10121800C3610362436200F0F2FF00B908BDFFF743
:10122800CBFF00BF500400200038014008B50B4830
:101238000B4B03604FF4E133436000238360C360CA
:1012480003610C2242618361C3610362436200F05F
:10125800D6FF00B908BDFFF7AFFF00BFD4040020D8
:101268000048004000B597B04422002105A802F0CC
:1012780091FA0023009301930293039304934FF48C
:10128800007002F06DF920BB022305934FF48072C1
:101298000892402209920F931093012211920A2278
:1012A8001292072213921493159305A801F074F96A
:1012B80088B90F2300930323019300230293039318
:1012C80004930421684601F09DFC30B917B05DF81D
:1012D80004FBFFF771FFFFF76FFFFFF76DFF0000DB
:1012E80008B501F081F8FFF7BDFFFFF705F9FFF733
:1012F80065FFFFF77FFFFFF799FF4B4C01224B4932
:10130800204601F019F84A4D01224A49284601F0C1
:1013180013F8494E3046FEF765FF82B2314628463B
:1013280000F00AFA454D2846FEF75CFF82B22946CE
:10133800204600F001FA424C2046FEF753FF0546CE
:10134800404E3046FEF74EFF02463146601902F025
:1013580013FA2046FEF746FF05463B4E3046FEF799
:1013680041FF02463146601902F006FA2046FEF7B0
:1013780039FF0546354E3046FEF734FF0246314602
:10138800601902F0F9F92046FEF72CFF0546304EA9
:101398003046FEF727FF02463146601902F0ECF9A5
:1013A8002046FEF71FFF05462A4E3046FEF71AFF75
:1013B80002463146601902F0DFF9274D0122082163
:1013C800284602F073F8254C00222021204602F01E
:1013D8006DF801221146284602F068F80022022121
:1013E800204602F063F800220821204602F05EF849
:1013F80001220221204602F059F843F6982001F014
:1014080015F801220821204602F050F84FF4FA603E
:1014180001F00CF8FFF70AFEFFF72CFEFFF7C2F801
:101428000A20FFF7D9FCF5E7D404002014070020B0
:1014380050040020AC060020100900207409002088
:1014480014030020340100204C0100205C0100201E
:1014580060010020680100200004004800080048DE
:10146800FEE7FEE7FEE7FEE7FEE7704770477047D6
:1014780008B500F0C9FF08BD08B5024800F0BAF980
:1014880008BD00BF5004002008B5024800F0B2F9BA
:1014980008BD00BFD404002082B00A4B1A6E42F087
:1014A80001021A661A6E02F001020092009A9A6D01
:1014B80042F080529A659B6D03F080530193019B23
:1014C80002B070470010024030B5A7B004460021B2
:1014D80021912291239124912591682207A802F055
:1014E80059F923684F4A934207D04F4A934230D064
:1014F8004E4A934262D027B030BD0823079307A80D
:1015080001F024FD10BB4A4B9A6D42F400229A6503
:101518009A6D02F400220192019ADA6C42F00402F8
:10152800DA64DB6C03F004030293029B4FF440631C
:101538002193022322930023239303232493082334
:10154800259321A93B4801F0CDFED4E7FFF734FEEF
:10155800D9E70123079307A801F0F8FC58BB344BDF
:101568001A6E42F480421A661A6E02F4804203929E
:10157800039ADA6C42F00102DA64DB6C03F00103CF
:101588000493049B4FF4C063219302232293002405
:101598002394032324930723259321A94FF09040F4
:1015A80001F0A0FE22460121252002F033F8252073
:1015B80002F068F89FE7FFF7FFFDD0E704230793E1
:1015C80007A801F0C3FC50BB194B9A6D42F4802266
:1015D8009A659A6D02F480220592059ADA6C42F0B7
:1015E8000202DA64DB6C03F002030693069B4FF4F5
:1015F80040632193022422940025239503232493F6
:101608000723259321A90C4801F06CFE2A462146A0
:10161800272001F0FFFF272002F034F86BE7FFF7DF
:10162800CBFDD1E7004C00400038014000480040A5
:10163800001002400008004800040048026852E810
:10164800003F23F4907342E800310029F6D1026884
:1016580002F1080353E8003F23F00103083242E88F
:1016680000310029F3D1036E012B05D02023C36775
:101678000023036643667047026852E8003F23F080
:10168800100342E800310029F6D1EFE7836F212BE0
:1016980000D07047B0F852309BB293B9026852E854
:1016A800003F23F0800342E800310029F6D10268A8
:1016B80052E8003F43F0400342E800310029F6D1E8
:1016C8007047C26C036812781A85C36C0133C3640F
:1016D800B0F852309BB2013B9BB2A0F85230D8E729
:1016E800836F212B00D07047B0F852309BB293B96A
:1016F800026852E8003F23F0800342E800310029E5
:10170800F6D1026852E8003F43F0400342E8003156
:101718000029F6D17047C36C1B880268C3F308031D
:101728001385C36C0233C364B0F852309BB2013BDB
:101738009BB2A0F85230D6E7836F202B2FD1002917
:101748002FD0002A2FD090F87430012B2DD00123F0
:1017580080F87430C164A0F85020A0F8522000230B
:101768008366C0F88030212383678368B3F5805F80
:101778000FD00F4B8366002380F87430026852E85C
:10178800003F43F0800342E800310029F6D10020F1
:1017980070470369002BECD1064B8366EBE7022008
:1017A800704701207047012070470220704700BF32
:1017B80095160008E9160008704708B5026852E84F
:1017C800003F23F0400342E800310029F6D12023EE
:1017D800836700238366FFF7EFFF08BD704708B5EE
:1017E800806A0023A0F85A30A0F85230FFF7F6FFBD
:1017F80008BD704770B504460168CB6908688D68F4
:1018080040F60F021A4005D113F0200F02D010F055
:10181800200F20D12AB115F0010222D1AC4E30425E
:101828001FD1226E012A00F0AB8013F4801F03D071
:1018380015F4800F40F0398113F0800F03D010F0B9
:10184800800F40F0398113F0400F03D010F0400FA3
:1018580040F0398170BD636E002BFBD0204698475D
:10186800F8E713F0010F09D010F4807F06D00125A6
:101878000D62D4F880102943C4F8801013F0020FC9
:1018880009D042B1216802250D62D4F8801041F0D8
:101898000401C4F8801013F0040F09D042B1216884
:1018A80004250D62D4F8801041F00201C4F88010BC
:1018B80013F0080F0BD010F0200F00D13AB12268B6
:1018C80008211162D4F880200A43C4F8802013F458
:1018D800006F0CD010F0806F09D022684FF40061BF
:1018E8001162D4F8802042F02002C4F88020D4F895
:1018F8008020002AAED013F0200F06D010F0200F61
:1019080003D0636E0BB120469847D4F88020236833
:101918009B6813F0400F02D112F0280F29D02046FF
:10192800FFF78CFE23689B6813F0400F1DD02268D8
:1019380002F1080353E8003F23F04003083242E86D
:1019480000310029F3D1236F5BB1624A9A63206F9B
:1019580001F0D6FD00283FF47DAF206F836B9847D8
:1019680078E72046FFF73AFF74E72046FFF736FF8F
:1019780070E72046FFF732FF0023C4F8803069E79C
:1019880013F0100F3FF451AF10F0100F3FF44DAFAC
:1019980010230B6223689B6813F0400F4ED0226F10
:1019A80013685B689BB2002B3FF454AFB4F858102F
:1019B80099427FF64FAFA4F85A3013681B6813F0AA
:1019C800200F30D1226852E8003F23F4807342E8A8
:1019D80000310029F6D1226802F1080353E8003FDC
:1019E80023F00103083242E800310029F3D12268CC
:1019F80002F1080353E8003F23F04003083242E8AD
:101A080000310029F3D12023E367002323662268ED
:101A180052E8003F23F0100342E800310029F6D1D4
:101A2800206F01F048FDB4F85810B4F85A309BB252
:101A3800C91A89B22046FFF7DCFE0BE7B4F8581044
:101A4800B4F85A309BB2C91A89B2B4F85A309BB26A
:101A5800002B3FF4FFAE00293FF4FCAE226852E8A9
:101A6800003F23F4907342E800300028F6D1226842
:101A780002F1080353E8003F23F00103083242E86B
:101A880000300028F3D12023E36700232366636630
:101A9800226852E8003F23F0100342E80030002893
:101AA800F6D12046FFF7A5FED4E64FF480130B626B
:101AB800204600F06FFCCDE6A36E002B3FF4CAAEC3
:101AC80020469847C6E62046FFF777FEC2E600BFE5
:101AD80020010004E717000808B5B0F85C30C26FB1
:101AE800222A06D00268138B9BB243F008031383A3
:101AF80008BD0268918CDBB2426D0B401370436DD8
:101B080001334365B0F85A309BB2013B9BB2A0F851
:101B18005A30B0F85A309BB2002BE9D1026852E82B
:101B2800003F23F4907342E800310029F6D102689F
:101B380002F1080353E8003F23F00103083242E8AA
:101B480000310029F3D12023C36700234366036EC5
:101B5800012B16D100230366026852E8003F23F0E8
:101B6800100342E800310029F6D10368DA6912F05F
:101B7800100F01D010221A62B0F85810FFF739FE82
:101B8800B6E7FFF79BFAB3E708B5B0F85C30C26F69
:101B9800222A06D00268138B9BB243F008031383F2
:101BA80008BD0268918C426D0B401380436D02336F
:101BB8004365B0F85A309BB2013B9BB2A0F85A304B
:101BC800B0F85A309BB2002BEAD1026852E8003FC5
:101BD80023F4907342E800310029F6D1026802F13B
:101BE800080353E8003F23F00103083242E80031BC
:101BF8000029F3D12023C36700234366036E012B1A
:101C080016D100230366026852E8003F23F0100350
:101C180042E800310029F6D10368DA6912F0100FA2
:101C280001D010221A62B0F85810FFF7E2FDB7E7AA
:101C3800FFF744FAB4E7000010B50446016883686A
:101C48000269134342691343C269134308688F4A00
:101C5800024013430B602268536823F44053E16841
:101C68000B435360A1692268894B9A4201D0236AC9
:101C78001943936823F430630B4393602368854AC0
:101C8800934223D0844A934234D0844A93424AD020
:101C9800834A934259D07E4A934268D010227C49A5
:101CA8008B4200F09580E069B0F5004F00F0C180EC
:101CB800082A00F22A81DFE812F0F9000F01E70094
:101CC80028011201280128012801150102F55842AE
:101CD800D2F8882002F00302032A09D8DFE802F0CC
:101CE80002045C060122DAE70422D8E70822D6E7D4
:101CF8001022D4E702F5E632D2F8882002F00C026E
:101D08000C2A0ED8DFE802F0070D0D0D090D0D0D98
:101D18004A0D0D0D0B000022C1E70422BFE708227F
:101D2800BDE71022BBE702F5E432D2F8882002F0C2
:101D38003002202A34D004D8A2B3102A34D1042285
:101D4800ADE7302A32D10822A9E702F5E232D2F80B
:101D5800882002F0C002802A2AD004D852B3402A30
:101D68002AD104229BE7C02A28D1082297E702F546
:101D7800C832D2F8882002F44062B2F5006F1FD052
:101D880005D8FAB1B2F5806F1ED1042287E7B2F503
:101D9800406F1BD1082282E7022280E702227EE7F9
:101DA80002227CE700227AE7102278E7102276E701
:101DB800022274E7002272E7102270E710226EE711
:101DC80002226CE700226AE7102268E7102266E721
:101DD800082A00F28A80DFE802F008882A88278823
:101DE800888805004FF4004003E000F0D5FF002884
:101DF8007DD0626802EB420383427AD8B0EB023F9F
:101E080079D8010E00025308C0184FF0000341F1C1
:101E18000001FEF7EFF9A0F54072224B9A426CD808
:101E28002368D860002053E000F05CFBDFE71E4821
:101E3800DFE7082A63D8DFE802F007210562246299
:101E480062620B00184803E000F0A6FF002858D093
:101E58006268530803EB4000B0FBF2F0A0F11002F7
:101E68004FF6EF739A424ED883B223F00F03C0F3B4
:101E7800420018432368D860002029E000F09EFF44
:101E8800E4E700F02FFBE1E7074812E0F369FFEF12
:101E980000800040003801400044004000480040F5
:101EA800004C0040FFFC0F000024F40000F074FF19
:101EB80068B3636800EB5300B0FBF3F0A0F11002C5
:101EC8004FF6EF739A4224D8236880B2D860002076
:101ED80000236366A36610BD00F070FFE8E700F01A
:101EE80001FBE5E74FF40040E3E70120F0E70020BD
:101EF800EEE70120ECE70120EAE70120E8E701200E
:101F0800E6E70020E4E70120E2E70120E0E700201F
:101F1800DEE70120DCE700BF436A13F0010F06D0BB
:101F28000268536823F40033816A0B435360436AA1
:101F380013F0020F06D00268536823F48033C16A95
:101F48000B435360436A13F0040F06D002685368CA
:101F580023F48023016B0B435360436A13F0080F8B
:101F680006D00268536823F40043416B0B43536067
:101F7800436A13F0100F06D00268936823F4805365
:101F8800816B0B439360436A13F0200F06D00268FD
:101F9800936823F40053C16B0B439360436A13F0B7
:101FA800400F0AD00268536823F48013016C0B4376
:101FB8005360036CB3F5801F0BD0436A13F0800F96
:101FC80006D00268536823F40023816C0B435360E6
:101FD80070470268536823F4C003416C0B43536095
:101FE800EBE72DE9F84305460F4616469946DDF816
:101FF80020802C68E46937EA04030CBF4FF0010C19
:102008004FF0000CB44553D1B8F1FF3FF1D000F0C8
:1020180007FAA0EB090040452DD8B8F1000F2AD0E7
:102028002B681A6812F0040FE3D0DA6912F4006F13
:10203800DFD04FF400621A622A6852E8003F23F4A6
:10204800D07342E800310029F6D12A6802F108036A
:1020580053E8003F23F00103083242E80031002929
:10206800F3D12023AB67EB67C5F88030002385F8F0
:10207800743003201DE02A6852E8003F23F4D0732F
:1020880042E800310029F6D12A6802F1080353E832
:10209800003F23F00103083242E800310029F3D160
:1020A8002023AB67EB67002385F87430032000E03A
:1020B8000020BDE8F8832DE9F04182B01E46836F09
:1020C800202B56D104460D469046002955D0002AAB
:1020D80055D090F87430012B53D0012380F8743018
:1020E8000023C0F880302123836700F099F9074660
:1020F800A4F85080A4F85280A368B3F5805F05D097
:102108004FF00008002384F8743014E0236913B1F9
:102118004FF00008F6E7A8460025F3E738F8023B39
:102128002268C3F308031385B4F8522092B2013A27
:1021380092B2A4F85220B4F852309BB273B1009610
:102148003B46002280212046FFF74BFFD8B9002DDF
:10215800E4D0236815F8012B1A85E5E700963B467D
:10216800002240212046FFF73CFF70B92023A367D7
:1021780000E0022002B0BDE8F0810120FAE701206A
:10218800F8E70220F6E70320F4E70320F2E730B58A
:1021980083B004460023C0F8803000F041F90546BA
:1021A8002268126812F0080F0DD123681B6813F01B
:1021B800040F16D12023A367E3670020206684F864
:1021C800740003B030BD6FF07E43009303460022D5
:1021D8004FF400112046FFF704FF0028E5D0032044
:1021E800EFE76FF07E4300932B4600224FF4800107
:1021F8002046FFF7F6FE0028DCD00320E1E768B3AD
:1022080010B50446836F03B32423A36722681368B9
:1022180023F0010313602046FFF70EFD012813D0B9
:10222800636ABBB92268536823F4904353602268F9
:10223800936823F02A0393602268136843F001032C
:1022480013602046FFF7A3FF10BD80F87430FFF736
:102258003BF9D9E72046FFF75FFEE3E70120704727
:102268004165A0F85820A0F85A20002343668368E7
:10227800B3F5805F06D0A3B9036973B9FF23A0F84B
:102288005C3014E0036923B940F2FF13A0F85C3016
:102298000DE0FF23A0F85C3009E07F23A0F85C3054
:1022A80005E0B3F1805F29D00023A0F85C3000235B
:1022B800C0F880302223C367026802F1080353E89C
:1022C800003F43F00103083242E800310029F3D10E
:1022D8008368B3F5805F1BD0154B4366002380F8F5
:1022E80074300369D3B1026852E8003F43F4907335
:1022F80042E800310029F6D10020704703691BB974
:102308007F23A0F85C30D2E73F23A0F85C30CEE70B
:102318000369002BE0D1074B4366DFE7026852E808
:10232800003F43F0200342E800310029F6D1E3E7FB
:10233800E11A0008911B000838B5C36F202B1ED185
:10234800F9B102B390F87430012B1ED0012380F844
:1023580074300023036603680D4CA3420CD05B68FD
:1023680013F4000F08D0046854E8003F43F080637A
:1023780044E80035002DF6D1FFF772FF00E0022097
:1023880038BD0120FCE70120FAE70220F8E700BF8A
:102398000080004070470000104B1B780BB90120EB
:1023A800704710B504464FF47A70B0FBF3F30C4A4B
:1023B8001068B0FBF3F001F073F968B90F2C01D97C
:1023C80001200AE0002221464FF0FF3001F022F9F7
:1023D800044B1C60002000E0012010BDDA02002040
:1023E800E0020020DC02002010B5032001F000F913
:1023F8000F20FFF7D1FF10B10124204610BD04467D
:10240800FFF74AF8F9E70000034B1B78034A116805
:102418000B441360704700BFDA020020D80900207F
:10242800014B1868704700BFD809002038B504462A
:10243800FFF7F6FF0546B4F1FF3F02D0044B1B78C7
:102448001C44FFF7EDFF401BA042FAD338BD00BF84
:10245800DA02002030B583B00446204B9B6D13F0A0
:10246800805F0BD001F074F8B0F5007F17D0802C96
:102478001FD82DD0702C2DD000211BE0174DAB6D2F
:1024880043F08053AB65AB6D03F080530193019B20
:1024980001F05EF8AB6D23F08053AB65E4E7802C68
:1024A80003D9A02C03D9022104E0002102E0012174
:1024B80000E003210A4A136823F007030B43136063
:1024C800136803F007038B4206D1002003B030BD28
:1024D8000221EFE70121EDE70120F7E700100240B4
:1024E80000200240284A9368D26802F0030213F0E1
:1024F8000C030AD00C2B06D0042B1FD0082B20D09D
:102508000020024610E0012AF6D11F4A126812F094
:10251800080F0CD11C4AD2F89420C2F303221B499D
:1025280051F8222043B100200C2B0DD07047164AD9
:102538001268C2F30312F2E71046F5E714480022C6
:10254800F2E714480022EFE70F4BDB6803F00303C0
:10255800022B16D0032B00D10E4A0B49C868C0F3D2
:102568000210431CC868C0F3062002FB00F0B0FB51
:10257800F3F0CB68C3F3416301335B00B0FBF3F0C6
:10258800D4E7034AE9E700BF00100240E03700083B
:102598000024F40000127A00002800F01C83F0B533
:1025A80083B00446964B9D6805F00C05DE6806F07E
:1025B8000306036813F0100F5AD0E5B10C2D18D09C
:1025C800A369002B00F0BB808D4A136843F0010318
:1025D8001360FFF725FF0746894B1B6813F0020FAE
:1025E80040F09A80FFF71CFFC01B0228F4D9032093
:1025F800FCE2012EE4D1824B1B6813F0020F03D0DA
:10260800A369002B00F0E982206A7D4B1B6813F058
:10261800080F5BD07A4B1B6803F0F00398425CD834
:10262800774B1A6842F008021A601A6822F0F00222
:10263800216A0A431A605A6822F47F42E16942EA31
:1026480001225A60002D60D0FFF74CFF6C4B9B684D
:10265800C3F303136B4AD35C03F01F03D8406A4BE0
:1026680018606A4B1868FFF797FE002840F0BE8292
:10267800236813F0010F00F08180082D75D00C2D10
:1026880071D06368B3F5803F00F09780B3F5A02F51
:1026980000F099805A4B1A6822F480321A601A683E
:1026A80022F480221A606368002B00F09980FFF7FB
:1026B800B7FE0746524B1B6813F4003F5ED1FFF785
:1026C800AFFEC01B6428F5D903208FE24C4BD3F82A
:1026D80094301B0903F0F003A0E7FFF7BBFE0028C6
:1026E80040F07D82464B1A6842F008021A601A6868
:1026F80022F0F002216A0A431A605A6822F47F42E3
:10270800E16942EA01225A609EE7206AFFF7A2FEC9
:10271800002899D0012069E2394B1A6842F0080272
:102728001A601A6822F0F002216A0A431A605A688D
:1027380022F47F42E16942EA01225A6098E7304A6E
:10274800136823F001031360FFF76AFE07462C4B5A
:102758001B6813F0020F8BD0FFF762FEC01B022824
:10276800F5D9032042E2032E8BD1254B1B6813F4C5
:10277800003F03D06368002B00F03382236813F016
:10278800020F58D0042D45D00C2D41D0E368002B02
:1027980077D01B4A136843F480731360FFF740FE39
:1027A8000646174B1B6813F4806F61D1FFF738FE9C
:1027B800801B0228F5D9032018E2114A136843F454
:1027C800803313606FE703F18043A3F53C331A6845
:1027D80042F480221A601A6842F480321A6062E772
:1027E800FFF71EFE0746064B1B6813F4003FC5D0D3
:1027F800FFF716FEC01B6428F5D90320F6E100BFD9
:1028080000100240C8370008E0020020DC02002067
:10281800022EBBD1A44B1B6813F4806F03D0E3686E
:10282800002B00F0E081A04A536823F0FE432169A1
:1028380043EA01635360236813F0080F4CD06369BF
:102848009BB3994AD2F8943043F00103C2F894300C
:10285800FFF7E6FD0646944BD3F8943013F0020FC9
:102868003AD1FFF7DDFD801B0228F4D90320BDE132
:102878008D4A536823F0FE43216943EA016353609C
:10288800D9E7894A136823F480731360FFF7C8FDFA
:102898000646854B1B6813F4806FCCD0FFF7C0FD4C
:1028A800801B0228F5D90320A0E17F4AD2F8943092
:1028B80023F00103C2F89430FFF7B2FD06467A4BC5
:1028C800D3F8943013F0020F06D0FFF7A9FD801B50
:1028D8000228F4D9032089E1236813F0040F7AD081
:1028E800714B9B6D13F0805F36D16F4B9A6D42F040
:1028F80080529A659B6D03F080530193019B0126DA
:102908006A4B1B6813F4807F28D0A368012B39D049
:10291800052B3FD0644BD3F8902022F00102C3F876
:102928009020D3F8902022F00402C3F89020A368E6
:10293800002B3DD0FFF774FD07465B4BD3F8903072
:1029480013F0020F46D1FFF76BFDC01B41F288332D
:102958009842F2D9032049E10026D1E7534A136887
:1029680043F480731360FFF75BFD07464F4B1B680A
:1029780013F4807FC9D1FFF753FDC01B0228F5D996
:10298800032033E1484AD2F8903043F00103C2F8FB
:102998009030CCE7444BD3F8902042F00402C3F8BF
:1029A8009020D3F8902042F00102C3F89020BEE7AF
:1029B800FFF736FD07463C4BD3F8903013F0020F73
:1029C80008D0FFF72DFDC01B41F288339842F2D999
:1029D80003200BE1E6B9236813F0200F35D0636AB2
:1029E800E3B1314AD2F8983043F00103C2F8983085
:1029F800FFF716FD06462C4BD3F8983013F0020F5C
:102A080023D1FFF70DFD801B0228F4D90320EDE048
:102A1800254A936D23F080539365DCE7224AD2F868
:102A2800983023F00103C2F89830FFF7F9FC064606
:102A38001D4BD3F8983013F0020F06D0FFF7F0FCC7
:102A4800801B0228F4D90320D0E0A36A002B00F0F1
:102A5800CC80022B17D00C2D00F0CC80124A1368C2
:102A680023F080731360FFF7DBFC04460E4B1B68F2
:102A780013F0007F00F0A880FFF7D2FC001B0228AB
:102A8800F4D90320B2E0084BDB6803F00301E26AE3
:102A980091420DD00C2D00F0AB80034B1B6813F056
:102AA800806F2FD00120A1E000100240007000408C
:102AB80003F07002216B0139B2EB011FEAD103F474
:102AC800FE42616BB2EB012FE4D103F07842A16BB7
:102AD800B2EBC16FDED103F4C001E26B5208013AD8
:102AE800B1EB425FD6D103F0C063226C5208013AC1
:102AF800B3EB426FCED1404B1B6813F0007F49D037
:102B0800002073E03C4A136823F080731360FFF7DA
:102B180087FC0546384B1B6813F0007F06D0FFF78B
:102B28007FFC401B0228F5D903205FE0324AD368B6
:102B380032491940E36A206B013843EA0013606B9D
:102B480043EA0023E06B4008013843EA4053206C15
:102B58004008013843EA4063A06B43EAC0630B4373
:102B6800D360136843F080731360D36843F08073B5
:102B7800D360FFF755FC04461F4B1B6813F0007F1A
:102B880006D1FFF74DFC001B0228F5D903202DE0E4
:102B980000202BE0184B1A6842F080721A60DA683D
:102BA80042F08072DA60FFF73BFC0446124B1B6868
:102BB80013F0007F06D1FFF733FC031B022BF5D976
:102BC800032013E0002011E00B4AD1680C4B0B40A6
:102BD800D36000200AE001207047012006E00120B0
:102BE80004E0012002E0012000E0002003B0F0BD75
:102BF8000120FBE70120F9E7001002408C809D01CD
:102C0800FCFFEEFE002800F0AF8070B50D460446CC
:102C1800594B1B6803F007038B420BD2564A1368C3
:102C280023F007030B431360136803F007038B4279
:102C380040F09C80236813F0020F0CD0A2684F4B21
:102C48009B6803F0F0039A4205D94C498B6823F03E
:102C5800F0031A438A60236813F0010F39D06368C0
:102C6800032B09D0022B26D063BB444A126812F00A
:102C7800020F06D1012076E0404A126812F0007F68
:102C880076D03E498A6822F0030213438B60FFF72F
:102C9800C7FB0646394B9B6803F00C036268B3EB2D
:102CA800820F16D0FFF7BCFB801B41F28833984295
:102CB800F0D9032057E0314A126812F4003FE0D1FE
:102CC800012050E02D4A126812F4806FD9D10120FA
:102CD80049E0236813F0020F0CD0A268274B9B68C9
:102CE80003F0F0039A4205D224498B6823F0F003DD
:102CF8001A438A60204B1B6803F00703AB420AD9CA
:102D08001D4A136823F007032B431360136803F06D
:102D18000703AB422ED1236813F0040F06D0174ADD
:102D2800936823F4E063E1680B439360236813F02E
:102D3800080F07D0114A936823F46053216943EAC6
:102D4800C1039360FFF7CEFB0C4B9B68C3F30313DF
:102D58000B4AD35C03F01F03D8400A4B18600A4B98
:102D68001868FFF719FB70BD012070470120FAE7CA
:102D78000120F8E70120F6E7002002400010024099
:102D8800C8370008E0020020DC020020014B186868
:102D9800704700BFE002002008B5FFF7F7FF054BBA
:102DA8009B68C3F30223044AD35C03F01F03D84093
:102DB80008BD00BF00100240D837000808B5FFF76B
:102DC800E5FF054B9B68C3F3C223044AD35C03F0B9
:102DD8001F03D84008BD00BF00100240D8370008C4
:102DE800F8B504460F46584BDB6813F0030F18D0AC
:102DF800554BDB6803F003030268934202D00125B8
:102E08002846F8BD002A00F09D804F4BDB68C3F3CD
:102E1800021301334268934201D00125F0E70025EF
:102E280009E00368022B56D0032B5BD0012B41D05D
:102E38000125002DE4D1444A136823F08063136010
:102E4800FFF7EEFA0646404B1B6813F0006F05D0FB
:102E5800FFF7E6FA831B022BF5D90325002DCFD106
:102E6800002F4DD138490B6923F0784323F4FE43F2
:102E7800A068E268D20642EA002213430B61324A94
:102E8800136843F080631360FFF7CAFA06462E4BB7
:102E98001B6813F0006F05D1FFF7C2FA831B022BE2
:102EA800F5D90325002DABD1274A1369A1690B4336
:102EB8001361A5E7244A126812F0020F1ED02248B7
:102EC800C26822F073026168013943EA01131343AF
:102ED800C3600025ADE71C4A126812F4806FEED17A
:102EE8000125A6E7184A126812F4003FE7D1164AEE
:102EF800126812F4802FE2D101259AE7012598E79C
:102F0800012F0FD01048026922F0C06222F4FE425D
:102F1800A16863695B08013B5B0643EA012313432D
:102F28000361ACE70848026922F4C00222F4FE42B9
:102F3800A16823695B08013B5B0543EA012313434E
:102F480003619CE701255BE7001002402DE9F04191
:102F580082B00446036813F4006F25D0C36CB3F540
:102F6800000F06D0B3F5400F12D04BB101263746FB
:102F78001CE0444AD36843F48033D360002708E058
:102F880000210430FFF72CFF074610B106460DE07C
:102F980000273C4AD2F8883023F44003E16C0B4305
:102FA800C2F88830002601E000263746236813F46B
:102FB800003F70D0334B9B6D13F0805F4CD1314B89
:102FC8009A6D42F080529A659B6D03F0805301938D
:102FD800019B4FF001082C4A136843F48073136077
:102FE800FFF71EFA0546284B1B6813F4807F05D1AE
:102FF800FFF716FA401B0228F5D90327002F45D101
:10300800204BD3F8903013F4407315D0626E9A4277
:1030180012D01C4AD2F8903023F44073D2F89010A2
:1030280041F48031C2F89010D2F8901021F4803128
:10303800C2F89010C2F8903013F0010F0FD1002F92
:1030480040F016810F4AD2F8903023F44073616E35
:103058000B43C2F890301AE04FF00008BBE7FFF7C7
:10306800DFF90546074BD3F8903013F0020FE6D18D
:10307800FFF7D6F9401B41F288339842F2D903276B
:10308800DDE700BF00100240007000403E46B8F186
:10309800000F40F0EF80236813F0010F08D0904A2A
:1030A800D2F8883023F00303216A0B43C2F8883032
:1030B800236813F0020F08D0894AD2F8883023F029
:1030C8000C03616A0B43C2F88830236813F0040FBD
:1030D80008D0834AD2F8883023F03003A16A0B4322
:1030E800C2F88830236813F0080F08D07C4AD2F859
:1030F800883023F0C003E16A0B43C2F888302368A4
:1031080013F0200F08D0764AD2F8883023F44063B1
:10311800216B0B43C2F88830236813F4007F08D072
:103128006F4AD2F8883023F44023616C0B43C2F80D
:103138008830236813F4806F08D0694AD2F8883041
:1031480023F44013A16C0B43C2F88830236813F0B2
:10315800400F08D0624AD2F8883023F44053616B9C
:103168000B43C2F88830236813F0800F08D05C4AFC
:10317800D2F8883023F44043A16B0B43C2F888305F
:10318800236813F4807F08D0554AD2F8883023F496
:103198004033E16B0B43C2F88830236813F4801F77
:1031A80008D04F4AD2F89C3023F00303216C0B431C
:1031B800C2F89C30236813F4005F0FD0484AD2F855
:1031C800883023F04063216D0B43C2F88830236DAB
:1031D800B3F1006F54D0B3F1806F56D0236813F465
:1031E800002F0FD03E4AD2F8883023F04063616D3B
:1031F8000B43C2F88830636DB3F1006F4DD0B3F163
:10320800806F4FD0236813F4802F0FD0344AD2F840
:10321800883023F04063A16D0B43C2F88830A36D5A
:10322800B3F1006F46D0B3F1806F48D0236813F430
:10323800804F0CD02A4AD2F8883023F04053E16DF1
:103248000B43C2F88830E36DB3F1805F3FD0236849
:1032580013F4803F08D0224AD2F8883023F0004384
:10326800216E0B43C2F88830304602B0BDE8F081C9
:103278003E460CE71A4A936D23F0805393650AE79C
:10328800D36843F48013D360A8E70121201DFFF71A
:10329800A7FD0028A2D00646A0E7D36843F4801310
:1032A800D360AFE70121201DFFF79AFD0028A9D0C0
:1032B8000646A7E7D36843F48013D360B6E7012135
:1032C800201DFFF78DFD0028B0D00646AEE702218D
:1032D800201DFFF785FD0028B9D00646B7E700BFD7
:1032E80000100240F0B583B0002362E085685E00FC
:1032F8000324B44025EA0405CC68B4402C43846018
:10330800446824EA0C0C4C68C4F300149C4044EA5A
:103318000C0444605EE0DD08083550F8256003F0D1
:1033280007044FEA840C0F2404FA0CF426EA040E6E
:103338000C6904FA0CF444EA0E0440F8254060E0F5
:10334800042400E0002404FA0EF42C430CF1020CCF
:10335800524D45F82C40524CA568D44325EA020644
:103368004F6817F4801F01D042EA05064C4DAE6045
:10337800ED6804EA05064F6817F4001F01D042EA19
:103388000506474DEE606D6804EA05064F6817F4B8
:10339800003F01D042EA0506414D6E602D682C4081
:1033A8004E6816F4803F01D042EA05043C4A146096
:1033B80001330A6832FA03F46ED04FF0010C0CFAAC
:1033C80003FC1CEA0202F3D04C6804F00304013C3D
:1033D800012C8BD94C6804F00304032C0CD0C4686E
:1033E8005D004FF0030C0CFA05FC24EA0C0C8C6809
:1033F800AC4044EA0C04C4604C6804F00304022C9A
:1034080089D004684FEA430E4FF0030C0CFA0EFC07
:1034180024EA0C0C4C6804F0030404FA0EF444EAA1
:103428000C0404604C6814F4403FC1D01D4C256E58
:1034380045F001052566246E04F001040194019C01
:103448004FEA930C0CF10205144C54F8255003F084
:1034580003044FEA840E0F2404FA0EF425EA040547
:10346800B0F1904F3FF46EAF0F4CA0420ED004F570
:103478008064A0420CD004F58064A0420AD004F510
:103488008064A0423FF45CAF07245CE701245AE75C
:10349800022458E7032456E703B0F0BD00000140BA
:1034A8000004014000100240000400480AB1816194
:1034B80070478162704790F82530DBB2022B06D046
:1034C8000423C363002380F8243001207047026876
:1034D800136823F00E0313600268136823F00103D6
:1034E8001360436C03F01C03016C012202FA03F31E
:1034F8004B6080F82520002380F824301846704758
:1035080008B590F82530DBB2022B03D00423C3633F
:10351800012008BD0268136823F00E0313600268D7
:10352800136823F001031360436C03F01C03016C60
:10353800012202FA03F34B6080F82520002380F86B
:103548002430836B13B198470020E2E70020E0E7BE
:10355800024B186800F4C060704700BF007000405C
:10356800B0F5007F0FD01F4B1B6803F4C063B3F5A1
:10357800806F34D01B4A136823F4C06343F480631C
:10358800136000207047174B1B6803F4C063B3F542
:10359800007F20D0134A136823F4C06343F40073F8
:1035A8001360114B1B68322202FB03F30F4AA2FB84
:1035B80003239B0C013300E0013B0A4A526912F4D1
:1035C800806F01D0002BF7D1064B5B6913F4806F35
:1035D80003D1002070470020704703207047002067
:1035E800704700BF00700040E002002083DE1B43EC
:1035F800074AD36823F4E0631B041B0C000200F4A1
:10360800E060034343F0BF6343F40033D360704783
:1036180000ED00E000B5194BDB68C3F30223C3F1EA
:10362800070CBCF1040F28BF4FF0040C03F1040E83
:10363800BEF1060F18D9033B4FF0FF3E0EFA0CFC03
:1036480021EA0C0199400EFA03F322EA0303194315
:1036580000280BDB0901C9B200F1604000F56140A8
:1036680080F800135DF804FB0023E5E700F00F0085
:103678000901C9B2024B1954F4E700BF00ED00E09C
:1036880014ED00E0002807DB00F01F0240090123C9
:103698009340024A42F82030704700BF00E100E042
:1036A8000138B0F1807F0BD24FF0E0235861054A12
:1036B800F02182F823100020986107221A617047D0
:1036C8000120704700ED00E0034AD2F8883043F447
:1036D8007003C2F88830704700ED00E0DFF834D09E
:1036E800FFF7F2FF0C480D490D4A002302E0D458B9
:1036F800C4500433C4188C42F9D30A4A0A4C002334
:1037080001E013600432A242FBD300F011F8FDF788
:10371800E7FDFEE70080022000000020E80200200C
:1037280028380008E8020020DC090020FEE7000035
:1037380070B50D4D0D4C641BA4100026A64209D18E
:103748000B4D0C4C00F02EF8641BA4100026A6426A
:1037580005D170BD55F8043B98470136EEE755F89A
:10376800043B98470136F2E7183800081838000873
:10377800183800081C3800080A44914200F1FF3349
:1037880000D1704710B511F8014B03F8014F914271
:10379800F9D110BD02440346934200D1704703F8A3
:1037A800011BF9E7F8B500BFF8BC08BC9E46704796
:1037B800F8B500BFF8BC08BC9E4670470000000082
:1037C80000000000000000000102030406070809C9
:1037D8000000000001020304A0860100400D030060
:1037E800801A060000350C0040420F0080841E003D
:1037F80000093D0000127A000024F40000366E0132
:083808000048E801006CDC023D
:083810001CCAFF7F010000004B
:08381800BD01000800000000E2
:083820009901000800000000FE
:1038280041542B43495052584745543D302C310D93
:103838000A000000416C6C6F7720726563656976D9
:1038480065204F4B0D0A000041542B434741545407
:103858003F0D0A0041542B4349504F505155455292
:10386800593D310D0A0000004B540D0A00000000BC
:103878002D2D2D2D2D2D2D2D2D2D2D2D434F4E4EF6
:1038880045435445442D2D2D2D2D2D2D2D2D2D2DDC
:103898002D0D0A00434F4E4E4543545F4F4B0D0AC2
:1038A8000000000041542B4353510D0A0000000052
:1038B8004B542063756F6E6720646F204F4B0D0A61
:1038C8000000000041542B435245473F0D0A0000B9
:1038D8004B542064616E67206B79204F4B0D0A00B2
:1038E8004B542047505253204F4B0D0A0000000004
:1038F80041542B4950414444520D0A004B5420492D
:1039080050204F4B0D0A000041540D0A00000000E2
:103918004B54206D6F64756E204F4B0D0A000000EC
:1039280041542B4E45544F50454E0D0A000000009F
:103938004B54204E4554204F4B0D0A0041542B4305
:1039480050494E3F0D0A00004B542073696D204FBB
:103958004B0D0A0041542B4349504F50454E3D31C1
:103968002C22544350222C22000000003131372EE3
:10397800362E3136332E313737000000222C000026
:1039880037353737000000002C300D0A00000000E2
:10399800434F4E4E454354204950204F4B0D0A008B
:1039A8000D0A000041542B43434C4B3F0D0A0000C5
:1039B80041542B43495053454E443D312C2C2C2C1B
:1039C80020200000000000000000000000000000AF
:1039D80000000000000000000000000000000000DF
:1039E80000000000000000000000000000000000CF
:1039F80000000000000000000000000000000000BF
:103A080000000000000000000000000000000000AE
:103A1800000000005472616E736D697465643A0049
:103A2800000000000000000000000000000000008E
:103A3800000000000000000000000000000000007E
:103A4800000000000000000000000000000000006E
:103A5800000000000000000000000000000000005E
:103A6800000000000000000000000000000000004E
:103A7800000000000000000041542B4349505258F8
:103A88004745543D302C310D0A0000004B5420723C
:103A9800656365697665204F4B0D0A0041542B43D9
:103AA800495054494D454F55543D33303030302CF2
:103AB80032303030302C34303030302C35303030FB
:103AC800300D0A005365742074696D656F75742034
:103AD800204F4B0D0A00000041542B4349504D4FD5
:103AE80044453D300D0A0000536574207472616EC0
:103AF800736D6974204F4B0D0A000100100000001F
:083B080000093D00000000006F
:04000005080036E5D4
:00000001FF
