:020000040800F2
:100000000080022001410008ED140008EF140008F0
:10001000F1140008F3140008F514000800000000B3
:10002000000000000000000000000000F7140008BD
:10003000F914000800000000FB140008FD1400087B
:100040005141000851410008514100085141000848
:100050005141000851410008514100085141000838
:100060005141000851410008514100085141000828
:100070005141000851410008514100085141000818
:100080005141000851410008514100085141000808
:1000900051410008514100085141000851410008F8
:1000A00051410008514100085141000851410008E8
:1000B00005150008514100080000000051410008EA
:1000C00051410008514100085141000851410008C8
:1000D0005141000815150008514100082515000878
:1000E0005141000835150008000000000000000024
:1000F0000000000000000000000000000000000000
:1001000000000000514100080000000051410008BB
:1001100051410008000000005141000800000000AB
:100120005141000851410008514100085141000867
:1001300051410008514100085141000800000000F1
:100140005141000851410008514100085141000847
:100150005141000851410008514100085141000837
:1001600051410008514100085141000800000000C1
:1001700000000000514100080000000000000000E5
:100180005141000851410008514100085141000807
:080190005141000800000000CD
:1001980010B5054C237833B9044B13B10448AFF3B9
:1001A80000800123237010BD7805002000000000A6
:1001B800C841000808B5034B1BB103490348AFF316
:1001C800008008BD000000007C050020C841000830
:1001D80010F8012B11F8013B012A28BF9A42F7D0E9
:1001E800D01A7047034613F8012B002AFBD1181ABE
:1001F8000138704753B94AB9002908BF00281CBF05
:100208004FF0FF314FF0FF3000F074B9ADF1080C3A
:100218006DE904CE00F006F8DDF804E0DDE902231C
:1002280004B070472DE9F047089D04468E46002B20
:100238004DD18A42944669D9B2FA82F252B101FA92
:1002480002F3C2F1200120FA01F10CFA02FC41EAA2
:10025800030E94404FEA1C48210CBEFBF8F61FFA27
:100268008CF708FB16E341EA034306FB07F19942C2
:100278000AD91CEB030306F1FF3080F01F81994275
:1002880040F21C81023E63445B1AA4B2B3FBF8F04F
:1002980008FB103344EA034400FB07F7A7420AD9D6
:1002A8001CEB040400F1FF3380F00A81A74240F2FE
:1002B80007816444023840EA0640E41B00261DB169
:1002C800D4400023C5E900433146BDE8F0878B429E
:1002D80009D9002D00F0EF800026C5E9000130465D
:1002E8003146BDE8F087B3FA83F6002E4AD18B4237
:1002F80002D3824200F2F980841A61EB03030120E1
:100308009E46002DE0D0C5E9004EDDE702B9FFDECC
:10031800B2FA82F2002A40F09280A1EB0C014FEA77
:100328001C471FFA8CFE0126200CB1FBF7F307FBD4
:10033800131140EA01410EFB03F0884208D91CEB77
:10034800010103F1FF3802D2884200F2CB80434614
:10035800091AA4B2B1FBF7F007FB101144EA0144F3
:100368000EFB00FEA64508D91CEB040400F1FF3182
:1003780002D2A64500F2BB800846A4EB0E0440EA70
:1003880003409CE7C6F12007B34022FA07FC4CEA79
:10039800030C20FA07F401FA06F31C43F9404FEA6C
:1003A8001C4900FA06F3B1FBF9F8200C1FFA8CFE81
:1003B80009FB181140EA014108FB0EF0884202FAD5
:1003C80006F20BD91CEB010108F1FF3A80F0888096
:1003D800884240F28580A8F102086144091AA4B253
:1003E800B1FBF9F009FB101144EA014100FB0EFED4
:1003F8008E4508D91CEB010100F1FF346CD28E4503
:100408006AD90238614440EA0840A0FB0294A1EB93
:100418000E01A142C846A64656D353D05DB1B3EBF0
:10042800080261EB0E0101FA07F722FA06F3F14020
:100438001F43C5E9007100263146BDE8F087C2F1C7
:100448002003D8400CFA02FC21FA03F3914001433F
:100458004FEA1C471FFA8CFEB3FBF7F007FB103678
:100468000B0C43EA064300FB0EF69E4204FA02F424
:1004780008D91CEB030300F1FF382FD29E422DD977
:10048800023863449B1B89B2B3FBF7F607FB1633AC
:1004980041EA034106FB0EF38B4208D91CEB01012C
:1004A80006F1FF3816D28B4214D9023E6144C91AAC
:1004B80046EA004638E72E46284605E70646E3E6BC
:1004C8001846F8E64B45A9D2B9EB020864EB0C0EC6
:1004D8000138A3E74646EAE7204694E74046D1E7D5
:1004E800D0467BE7023B614432E7304609E7644483
:1004F800023842E7704700BFF0B589B00024039482
:100508000494059406940794234BDA6C42F0040291
:10051800DA64DA6C02F004020092009ADA6C42F0B3
:100528000202DA64DA6C02F002020192019ADA6CD1
:1005380042F00102DA64DB6C03F001030293029BD0
:10054800164F22462A21384602F01AFC144D22463C
:1005580046F21B01284602F013FC2A2303930126C6
:1005680004960594069403A9384602F025FB46F242
:100578001B03039304960594069403A9284602F0E6
:100588001BFB4FF4487303930494059403A928466E
:1005980002F012FB09B0F0BD00100240000800484C
:1005A8000004004884B070B504AC84E80F00304EF5
:1005B8006424224604A9304603F0ECFD2D4D224662
:1005C8000DF14201284603F0E5FD22461DA92A48FF
:1005D80003F0E0FD22460DF1A601284803F0DAFDFC
:1005E800369B274A1360274A13603046FFF7FAFD07
:1005F800C82382B23146244803F003FC4FF4FA7052
:1006080001F07EFB2846FFF7EDFDC82382B229469C
:100618001E4803F0F6FB1E4C2046FFF7E3FD031FC0
:10062800E35C4F2B03D10338235C4B2B0ED0124CC9
:100638002046FFF7D7FDC82382B22146134803F0AE
:10064800E0FB0020BDE8704004B070470B4C20462A
:10065800FFF7C8FDC82382B221460C4803F0D1FB3E
:10066800642200210A4803F0A3FD0120EAE700BF45
:100678005C1600202417002094130020F815002091
:10068800F41500201C000020EC1400206814002041
:100698002C13002010B5B0B09149FFF799FD90B127
:1006A800904B1B78013B0B2B2CD8DFE813F01B0079
:1006B800310046005B00700085009A00AF00C4005E
:1006C800D900EE000301642422460021864803F085
:1006D8006FFD22460021854803F06AFD814B012207
:1006E8001A70DDE7824CBC2204F11001684603F061
:1006F80051FD94E80F00FFF755FF012804D0794B0E
:1007080001221A7030B010BD764B02221A70F9E738
:10071800784CBC2204F11001684603F03BFD94E8D4
:100728000F00FFF73FFF012803D06E4B02221A701B
:10073800E8E76C4B03221A70E4E76F4CBC2204F123
:100748001001684603F026FD94E80F00FFF72AFF22
:10075800012803D0634B03221A70D3E7614B0422AC
:100768001A70CFE7654CBC2204F11001684603F00B
:1007780011FD94E80F00FFF715FF012803D0594B2E
:1007880004221A70BEE7574B05221A70BAE75C4C70
:10079800BC2204F11001684603F0FCFC94E80F0049
:1007A800FFF700FF012803D04E4B05221A70A9E776
:1007B8004C4B06221A70A5E7524CBC2204F11001DA
:1007C800684603F0E7FC94E80F00FFF7EBFE01280A
:1007D80003D0444B06221A7094E7424B07221A7042
:1007E80090E7494CBC2204F11001684603F0D2FCA2
:1007F80094E80F00FFF7D6FE012803D0394B0722F3
:100808001A707FE7374B08221A707BE73F4CBC22EF
:1008180004F11001684603F0BDFC94E80F00FFF7EF
:10082800C1FE012803D02F4B08221A706AE72D4B0E
:1008380009221A7066E7364CBC2204F1100168469A
:1008480003F0A8FC94E80F00FFF7ACFE012803D0E2
:10085800244B09221A7055E7224B0A221A7051E7D5
:100868002C4CBC2204F11001684603F093FC94E878
:100878000F00FFF797FE012803D01A4B0A221A70BF
:1008880040E7184B0B221A703CE7234CBC2204F1BA
:100898001001684603F07EFC94E80F00FFF782FE23
:1008A800012803D00F4B0B221A702BE70D4B0C229B
:1008B8001A7027E7194CBC2204F11001684603F0AE
:1008C80069FC94E80F00FFF76DFE012803D0054B83
:1008D8000C221A7016E7034B00221A7012E700BFA9
:1008E8002000002090130020601200202C1300200C
:1008F800F80700205C0A002090090020280B00203F
:1009080060060020F00F0020BC100020C408002062
:100918002C070020240F0020F40B00209405002051
:1009280079B370B504460D46FFF75CFC231813F83D
:10093800023C0D2B00D070BD204410F8013C0A2B5E
:10094800F9D1104A136801331360AB42F3DB0E4E42
:1009580064252A460021304603F02AFC2046FFF78A
:1009680041FC02462146304603F014FC2A46002189
:10097800064803F01DFC0023054A1360014A136072
:10098800D9E770475412002060120020C4120020DA
:100998005C12002038B504460268144B1B689A4262
:1009A80005D02268124B1B689A4212D038BD114DEF
:1009B800012229460D4803F065FB0F4A13680F48CA
:1009C8002978C154013313600D4B1968FFF7A8FF4C
:1009D800E7E70C4C01222146054803F053FB0A23A4
:1009E80001222146014803F00CFADFE768140020D1
:1009F800EC140020581200205C120020C4120020C1
:100A0800180000202813002038B5114C01220821B5
:100A1800204602F0B5F9002220210E4802F0B0F974
:100A280001221146204602F0ABF900240DE0094DE1
:100A38000221284602F0A9F90821284602F0A5F962
:100A48004FF47A7001F05CF901340E2CEFDD38BDFB
:100A58000004004800080048704772B6FEE700002E
:100A680008B50B480B4B03604FF4E1334360002398
:100A78008360C36003610C2242618361C3610362C6
:100A8800436203F062FA00B908BDFFF7E6FF00BF52
:100A980070150020004C004008B50B480B4B036054
:100AA8004FF4E133436000238360C36003610C2289
:100AB80042618361C3610362436203F046FA00B98D
:100AC80008BDFFF7CAFF00BF6814002000380140C6
:100AD80008B50B480B4B03604FF4E1334360002328
:100AE8008360C36003610C2242618361C361036256
:100AF800436203F02AFA00B908BDFFF7AEFF00BF52
:100B0800EC1400200048004010B592B000240D9469
:100B18000E940F94109411940C942C22214601A841
:100B280003F046FB2A482B4B036044607F23836015
:100B3800FF23C360046144618461C46100F0B4FEB2
:100B480000283CD10A238DF8343005238DF8353040
:100B580000228DF83620109211920DA91C4800F041
:100B6800FBFE70BB03238DF8303007238DF831303E
:100B780006238DF8323016238DF8333000220CA965
:100B8800134800F04DFFF0B900228DF804208DF8CD
:100B9800052014238DF806300292049205920692DD
:100BA8000892099201238DF828304FF480730B9333
:100BB80001A9074800F088FF38B912B010BDFFF747
:100BC8004CFFFFF74AFFFFF748FFFFF746FF00BF5C
:100BD800F81300200028004000B589B000230493D2
:100BE80005930693079301930293039314484FF0D8
:100BF8008042026041F63F724260836042F20F72A7
:100C0800C2600361836102F057FB90B94FF48053CF
:100C1800049304A90A4802F08DFB60B900230193EC
:100C2800039301A9064802F005FC30B909B05DF844
:100C380004FBFFF712FFFFF710FFFFF70EFF00BFDF
:100C48001C14002000B597B04422002105A803F029
:100C5800AFFA0023009301930293039304934FF494
:100C6800007002F0F9F800282FD102F0E5F81A4ACE
:100C7800D2F8903023F01803C2F890300623059379
:100C8800012207924FF480730893402309930223AB
:100C98000F93109311920A2212920722139214931F
:100CA800159305A801F0E2F888B90F2300930323F0
:100CB800019300230293039304930421684601F0EF
:100CC8000BFC30B917B05DF804FBFFF7C6FEFFF761
:100CD800C4FEFFF7C2FE00BF0010024008B500F0D6
:100CE800EDFFFFF7AFFFFFF707FCFFF7B9FEFFF7D0
:100CF800D3FEFFF7EDFEFFF707FFFFF76DFF17487D
:100D080002F08EF901221649164803F0BBF90122B8
:100D18001549164803F0B6F91549164800F030F899
:100D28000F20FFF771FE144C2046FFF7B3FC134960
:100D38002046FFF74DFA0028F5D0104C64220E49E2
:100D4800204603F027FA2046FFF74CFAC82382B260
:100D58002146044803F055F8E5E700BF1C140020BD
:100D680028130020EC1400205812002068140020DA
:100D7800100000200000002060120020C016002093
:100D88002DE9F04107460E46F54C2046FFF72AFAB2
:100D98000246F44D2146284603F0FCF9F24C204661
:100DA800FFF720FA0246214605F1320003F0F2F976
:100DB800EE4C2046FFF716FA0246214605F164007C
:100DC80003F0E8F9EA4C2046FFF70CFA0246214600
:100DD80005F1960003F0DEF90124C5F8C840DFF8F4
:100DE800BC834046FFF7FEF90246E24D41462846DD
:100DF80003F0D0F9DFF8A8834046FFF7F3F902467D
:100E0800414605F1320003F0C5F9DFF89883404602
:100E1800FFF7E8F90246414605F1640003F0BAF924
:100E2800DFF884834046FFF7DDF90246414605F1C5
:100E3800960003F0AFF9C5F8C840DFF87083404664
:100E4800FFF7D0F90246CC4D4146284603F0A2F9F7
:100E5800DFF85C834046FFF7C5F90246414605F1D5
:100E6800320003F097F9DFF84C834046FFF7BAF9F0
:100E78000246414605F1640003F08CF9DFF8388337
:100E88004046FFF7AFF90246414605F1960003F0E8
:100E980081F90223C5F8C830DFF820834046FFF700
:100EA800A1F90246B54D4146284603F073F9DFF82B
:100EB80010834046FFF796F90246414605F1320095
:100EC80003F068F9DFF8FC824046FFF78BF9024629
:100ED800414605F1640003F05DF9DFF8EC82404615
:100EE800FFF780F90246414605F1960003F052F9F2
:100EF800C5F8C840DFF8D4824046FFF773F90246C8
:100F08009F4D4146284603F045F9DFF8C482404624
:100F1800FFF768F90246414605F1320003F03AF955
:100F2800DFF8B0824046FFF75DF90246414605F119
:100F3800640003F02FF9DFF8A0824046FFF752F96A
:100F48000246414605F1960003F024F9C5F8C84069
:100F5800DFF888824046FFF745F90246894D414649
:100F6800284603F017F9DFF878824046FFF73AF988
:100F78000246414605F1320003F00CF9DFF86482BD
:100F88004046FFF72FF90246414605F1640003F099
:100F980001F9DFF854824046FFF724F9024641463A
:100FA80005F1960003F0F6F8C5F8C840DFF83C8272
:100FB8004046FFF717F90246734D4146284603F0AD
:100FC800E9F8DFF82C824046FFF70CF90246414663
:100FD80005F1320003F0DEF8DFF818824046FFF72B
:100FE80001F90246414605F1640003F0D3F8DFF841
:100FF80008824046FFF7F6F80246414605F196009A
:1010080003F0C8F8C5F8C840DFF8F0814046FFF79C
:10101800E9F802465D4D4146284603F0BBF8DFF883
:10102800E0814046FFF7DEF80246414605F132000E
:1010380003F0B0F8DFF8CC814046FFF7D3F802465A
:10104800414605F1640003F0A5F8DFF8BC8140468D
:10105800FFF7C8F80246414605F1960003F09AF8F2
:10106800C5F8C840DFF8A4814046FFF7BBF8024640
:10107800474D4146284603F08DF8DFF894814046F5
:10108800FFF7B0F80246414605F1320003F082F856
:10109800DFF880814046FFF7A5F80246414605F192
:1010A800640003F077F8DFF870814046FFF79AF89C
:1010B8000246414605F1960003F06CF8C5F8C840B1
:1010C800DFF858814046FFF78DF80246314D41461A
:1010D800284603F05FF8DFF848814046FFF782F8BA
:1010E8000246414605F1320003F054F8DFF8348136
:1010F8004046FFF777F80246414605F1640003F0E1
:1011080049F8DFF824814046FFF76CF8024641466B
:1011180005F1960003F03EF8C5F8C840DFF80C81E9
:101128004046FFF75FF802461B4D4146284603F04C
:1011380031F8DFF8FC804046FFF754F80246414694
:1011480005F1320003F026F8DFF8E8804046FFF7A3
:1011580049F80246414605F1640003F01BF86BE0CC
:1011680054000020F8070020D4020020C401002009
:10117800DC0100205C0A002090090020280B0020D8
:1011880060060020F00F0020BC100020C4080020DA
:101198002C070020240F0020881100207800002050
:1011A80014030020480200205C0200206C0000208C
:1011B800000300201C0200203402002084000020CC
:1011C800240300206C020020840200203C00002040
:1011D800B40200207C01002090010020D0000020F3
:1011E800EC0400205C04002070040020F8000020BB
:1011F8000005002084040020A00400205C000020DA
:10120800EC020020F0010020080200204800002025
:10121800C4020020A0010020B4010020BC0000206E
:10122800D4040020280400204404002008010020E1
:101238005005002018050020DFF898824046FEF788
:10124800D1FF0246414605F1960002F0A3FFC5F81A
:10125800C840DFF884824046FEF7C4FF0246844D4A
:101268004146284602F096FFC5F8C8403846FEF7C2
:10127800B9FF0246DFF864823946404602F08AFF29
:101288003046FEF7AFFF02467A4F3146384602F045
:1012980081FF794E3046FEF7A5FF0246774D31466D
:1012A800284602F077FF2846FEF79CFF0646404690
:1012B800FEF798FF02464146A81902F06BFF284640
:1012C800FEF790FF0646DFF818824046FEF78AFFD1
:1012D80002464146A81902F05DFF2846FEF782FF44
:1012E80006463846FEF77EFF02463946A81902F040
:1012F80051FF2846FEF776FF0646614F3846FEF74F
:1013080071FF02463946A81902F044FF2846FEF745
:1013180069FF02465B4E2946304602F03BFF3046E5
:10132800FEF760FF0246584D3146284602F032FF6C
:10133800564E3046FEF756FF0246314605F132005A
:1013480002F028FF524E3046FEF74CFF0246314667
:1013580005F1640002F01EFF4E4E3046FEF742FFD4
:101368000246314605F1960002F014FFC5F8C84060
:10137800494E3046FEF736FF0246484D314628466C
:1013880002F008FF464E3046FEF72CFF0246314673
:1013980005F1320002F0FEFE424E3046FEF722FF13
:1013A8000246314605F1640002F0F4FE3E4E304636
:1013B800FEF718FF0246314605F1960002F0EAFEF4
:1013C800C5F8C840394E3046FEF70CFF0246384D86
:1013D8003146284602F0DEFE364E3046FEF702FF62
:1013E8000246314605F1320002F0D4FE324E304654
:1013F800FEF7F8FE0246314605F1640002F0CAFE27
:101408002E4E3046FEF7EEFE0246314605F19600B6
:1014180002F0C0FEC5F8C840294D2846FEF7E2FE96
:101428000246284C2946204602F0B4FE264D28469E
:10143800FEF7D8FE0246294604F1320002F0AAFE61
:10144800224D2846FEF7CEFE024664342946204641
:1014580002F0A0FE1E4D2846FEF7C4FE02462946AD
:1014680004F1320002F096FE01236366BDE8F081C4
:101478008C0D0020D017002028010020E417002040
:101488002001002088170020C00C0020D403002071
:10149800A0030020BC0300202800002094050020A1
:1014A8009C020020400100205C01002090000020E8
:1014B800F40B00203C0300205C0300208003002084
:1014C800AC000020580E0020B8040020EC030020D7
:1014D8000C04002038050020A0000020BC170020C4
:1014E8001C010020FEE7FEE7FEE7FEE7FEE7704787
:1014F8007047704708B500F0F1FB08BD08B5024811
:1015080001F0CCFD08BD00BF1C14002008B502483E
:1015180002F016F808BD00BF6814002008B502489C
:1015280002F00EF808BD00BFEC14002008B5024810
:1015380000F026F908BD00BFF813002082B00A4B5E
:101548001A6E42F001021A661A6E02F00102009247
:10155800009A9A6D42F080529A659B6D03F0805311
:101568000193019B02B070470010024010B59AB079
:10157800044668220021684602F01AFE2268114BD0
:101588009A4201D01AB010BD4FF4003300934FF4C3
:1015980080731993684601F043F978B90A4AD2F87A
:1015A800903043F40043C2F8903000220F212920E4
:1015B80001F0ACFC292001F0E1FCE3E7FFF74DFA6C
:1015C800ECE700BF00280040001002400368B3F1B8
:1015D800804F00D0704700B583B003F504339A6D8F
:1015E80042F001029A659B6D03F001030193019B90
:1015F800002201211C2001F089FC1C2001F0BEFC06
:1016080003B05DF804FB000010B5A6B00446002145
:1016180021912291239124912591682207A802F013
:10162800C7FD23684F4A934207D04F4A934230D0B0
:101638004E4A934262D026B010BD0823079307A8EC
:1016480001F0EEF810BB4A4B9A6D42F400229A65FD
:101658009A6D02F400220192019ADA6C42F00402B7
:10166800DA64DB6C03F004030293029B4FF44063DB
:1016780021930223229300232393032324930823F3
:10168800259321A93B4801F097FAD4E7FFF7E5F93C
:10169800D9E70123079307A801F0C2F858BB344BD8
:1016A8001A6E42F480421A661A6E02F4804203925D
:1016B800039ADA6C42F00102DA64DB6C03F001038E
:1016C8000493049B4FF4C0632193022322930024C4
:1016D8002394032324930723259321A94FF09040B3
:1016E80001F06AFA22460521252001F00FFC252089
:1016F80001F044FC9FE7FFF7B0F9D0E70423079314
:1017080007A801F08DF850BB194B9A6D42F480225E
:101718009A659A6D02F480220592059ADA6C42F075
:101728000202DA64DB6C03F002030693069B4FF4B3
:1017380040632193022322930024239403232493B8
:101748000723259321A90C4801F036FA22460621E1
:10175800272001F0DBFB272001F010FC6BE7FFF7E7
:101768007CF9D1E7004C00400038014000480040B7
:1017780000100240000800480004004870470000BC
:1017880010B50446154B4FF480225A6103689A68D5
:1017980012F4805F03D0DA6812F4807F0CD12368DA
:1017A8009A6812F4005F03D0DA6812F4007F0BD154
:1017B800012384F8213010BDDA68D2B262F4C07215
:1017C800DA60FFF7DBFFEAE7DA68D2B262F4207288
:1017D800DA60204600F048FAEAE700BF000401405A
:1017E80038B504460268D36823F0A003D36000F03C
:1017F80081FA05462368DB6813F0200F07D100F053
:1018080079FA401BB0F57A7FF4D9032000E0002074
:1018180038BD70B50368DA6812F0400F02D00025B1
:10182800284670BD04464FF0FF32DA6000F062FAD5
:10183800064600252368DB6813F0400FF0D1032D1E
:10184800EED000F057FA831BB3F57A7FF2D903255F
:1018580084F82150EEE7000010B50446114BDA6811
:1018680022F08002DA609B6813F0200F07D1FFF79F
:10187800B7FF0346A0B1032384F8213010E0094ADA
:10188800936823F020039360FFF7AAFF034610B183
:10189800032384F8213003498A6842F020028A60D1
:1018A800184610BD00280040002848D038B5044626
:1018B80090F821306BB1022384F821302368CA22C2
:1018C8005A62236853225A622046FFF7A2FF28B1C2
:1018D80038BD80F82030FFF749FEECE722689368AE
:1018E80023F4E00323F04003936021688A68636867
:1018F80020690343A069034313438B602368E268AC
:101908001A6122681369A16843EA014313612046FA
:10191800FFF7A2FF0028DBD12268D36C23F0030372
:10192800D3642168CB6CE26965692A431343CB64AD
:101938002368FF225A62012384F82130C8E7012076
:101948007047002302E001330A38C0B20928FAD8E8
:101958001B01DBB21843704790F82030012B5DD093
:1019680070B504460D461646012380F82030022340
:1019780080F821300368CA225A62036853225A62E7
:10198800FFF747FF68BB002E36D123689B6813F02A
:10199800400F01D10023EB702878FFF7D2FF06042F
:1019A8006878FFF7CEFF46EA0026A878FFF7C9FF58
:1019B8003043EB7840EA8350236800F07F3020F012
:1019C800FE4018602268936823F48023936021689E
:1019D8008B68EA682869024313438B602046FFF747
:1019E8003BFF2368FF225A6210B9012384F8213093
:1019F800002384F8203070BD23689B6813F0400FE3
:101A080001D10023EB702B786878000240EA03408C
:101A1800AB781843EB7840EA8350CDE70220704753
:101A280090F82030012B4CD070B504460E460123A7
:101A380080F82030022380F821303AB94B7813F02F
:101A4800100F03D003F0EF030A334B7022BBF0787A
:101A5800FFF777FF05047078FFF773FF45EA002565
:101A6800B078FFF76EFF0543307845EA40352368C4
:101A7800CA225A62236853225A622046FFF7C9FED7
:101A8800A8B12368FF225A6210B9012384F82130D3
:101A9800002384F8203070BDF37875782D0245EA6C
:101AA8000345B0780543307845EA4035DFE72368D9
:101AB80025F07F4525F0C0055D602046FFF7CCFE88
:101AC800DFE7022070470000F8B590F82030012BBE
:101AD80000F0C68004460D46012380F8203002231A
:101AE80080F82130002A50D103689B6813F0400F1A
:101AF80001D10023CB702E6A2878FFF722FF070454
:101B08006878FFF71EFF47EA0027A878FFF719FF54
:101B18000743E87847EA805795F82400FFF711FF54
:101B280047EA00673E436B691E436F68EB691F43D2
:101B38002368CA225A62236853225A62AB6AB3F5F1
:101B4800807F3CD02268936823F4007393602268F6
:101B5800D368DBB263F42073D36000F0CBF805469A
:101B68002368DA6812F0020F5AD100F0C3F8401B5C
:101B7800B0F57A7FF4D92368FF225A62032084F8EB
:101B88002100002384F8203069E003689B6813F083
:101B9800400F01D10023CB702B786E78360246EACD
:101BA8000346AB781E43EB7846EA835695F8243013
:101BB80046EA03662B6A1E436B691E43B5E7226833
:101BC800936823F4807393602268D368DBB263F46C
:101BD800C073D36000F08EF805462368DA6812F007
:101BE800010F0FD100F086F8401BB0F57A7FF4D9C9
:101BF8002368FF225A62032084F82100002384F816
:101C080020302CE0DE6123685F642268936843F427
:101C1800807393602268936843F4805393600CE068
:101C28001E6223689F642268936843F4007393607C
:101C38002268936843F4005393600A4B1A6842F48D
:101C480080221A609A6842F480229A602368FF22F0
:101C58005A62012384F82130002084F82000F8BD5E
:101C68000220FCE70004014070470000104B1B787D
:101C78000BB90120704710B504464FF47A70B0FBD9
:101C8800F3F30C4A1068B0FBF3F001F085F968B97A
:101C98000F2C01D901200AE0002221464FF0FF3025
:101CA80001F034F9044B1C60002000E0012010BD55
:101CB8006A050020700500206C05002010B503207F
:101CC80001F012F90F20FFF7D1FF10B101242046CF
:101CD80010BD0446FFF732FCF9E70000034B1B7800
:101CE800034A11680B441360704700BF6A0500205F
:101CF80018180020014B1868704700BF18180020FA
:101D080038B50446FFF7F6FF0546B4F1FF3F02D0A9
:101D1800044B1B781C44FFF7EDFF401BA042FAD38D
:101D280038BD00BF6A05002030B583B00446204B9B
:101D38009B6D13F0805F0BD001F086F8B0F5007F43
:101D480017D0802C1FD82DD0702C2DD000211BE04F
:101D5800174DAB6D43F08053AB65AB6D03F080530B
:101D68000193019B01F070F8AB6D23F08053AB65D4
:101D7800E4E7802C03D9A02C03D9022104E0002138
:101D880002E0012100E003210A4A136823F0070357
:101D98000B431360136803F007038B4206D100203E
:101DA80003B030BD0221EFE70121EDE70120F7E79D
:101DB8000010024000200240284A9368D26802F0CE
:101DC800030213F00C030AD00C2B06D0042B1FD0EF
:101DD800082B20D00020024610E0012AF6D11F4A25
:101DE800126812F0080F0CD11C4AD2F89420C2F3E2
:101DF80003221B4951F8222043B100200C2B0DD09F
:101E08007047164A1268C2F30312F2E71046F5E764
:101E180014480022F2E714480022EFE70F4BDB6872
:101E280003F00303022B16D0032B00D10E4A0B49F3
:101E3800C868C0F30210431CC868C0F3062002FB40
:101E480000F0B0FBF3F0CB68C3F3416301335B00F0
:101E5800B0FBF3F0D4E7034AE9E700BF0010024003
:101E6800F84100080024F40000127A00002800F06D
:101E78001C83F0B583B00446964B9D6805F00C05AD
:101E8800DE6806F00306036813F0100F5AD0E5B1B8
:101E98000C2D18D0A369002B00F0BB808D4A136865
:101EA80043F001031360FFF725FF0746894B1B68C2
:101EB80013F0020F40F09A80FFF71CFFC01B0228A6
:101EC800F4D90320FCE2012EE4D1824B1B6813F005
:101ED800020F03D0A369002B00F0E982206A7D4B32
:101EE8001B6813F0080F5BD07A4B1B6803F0F003F4
:101EF80098425CD8774B1A6842F008021A601A6850
:101F080022F0F002216A0A431A605A6822F47F42DA
:101F1800E16942EA01225A60002D60D0FFF74CFFC8
:101F28006C4B9B68C3F303136B4AD35C03F01F032A
:101F3800D8406A4B18606A4B1868FFF797FE00286C
:101F480040F0BE82236813F0010F00F08180082D55
:101F580075D00C2D71D06368B3F5803F00F0978081
:101F6800B3F5A02F00F099805A4B1A6822F48032FA
:101F78001A601A6822F480221A606368002B00F045
:101F88009980FFF7B7FE0746524B1B6813F4003FD2
:101F98005ED1FFF7AFFEC01B6428F5D903208FE29E
:101FA8004C4BD3F894301B0903F0F003A0E7FFF77C
:101FB800BBFE002840F07D82464B1A6842F00802BA
:101FC8001A601A6822F0F002216A0A431A605A68F5
:101FD80022F47F42E16942EA01225A609EE7206AC0
:101FE800FFF7A2FE002899D0012069E2394B1A6850
:101FF80042F008021A601A6822F0F002216A0A43C5
:102008001A605A6822F47F42E16942EA01225A6062
:1020180098E7304A136823F001031360FFF76AFE5C
:1020280007462C4B1B6813F0020F8BD0FFF762FE9C
:10203800C01B0228F5D9032042E2032E8BD1254B81
:102048001B6813F4003F03D06368002B00F0338251
:10205800236813F0020F58D0042D45D00C2D41D021
:10206800E368002B77D01B4A136843F4807313602E
:10207800FFF740FE0646174B1B6813F4806F61D1CB
:10208800FFF738FE801B0228F5D9032018E2114A11
:10209800136843F4803313606FE703F18043A3F5BB
:1020A8003C331A6842F480221A601A6842F480327B
:1020B8001A6062E7FFF71EFE0746064B1B6813F41B
:1020C800003FC5D0FFF716FEC01B6428F5D90320D2
:1020D800F6E100BF00100240E04100087005002052
:1020E8006C050020022EBBD1A44B1B6813F4806F33
:1020F80003D0E368002B00F0E081A04A536823F086
:10210800FE43216943EA01635360236813F0080F13
:102118004CD063699BB3994AD2F8943043F00103D9
:10212800C2F89430FFF7E6FD0646944BD3F8943096
:1021380013F0020F3AD1FFF7DDFD801B0228F4D916
:102148000320BDE18D4A536823F0FE43216943EA29
:1021580001635360D9E7894A136823F480731360D5
:10216800FFF7C8FD0646854B1B6813F4806FCCD07B
:10217800FFF7C0FD801B0228F5D90320A0E17F4AA4
:10218800D2F8943023F00103C2F89430FFF7B2FD7F
:1021980006467A4BD3F8943013F0020F06D0FFF7B7
:1021A800A9FD801B0228F4D9032089E1236813F0D4
:1021B800040F7AD0714B9B6D13F0805F36D16F4B53
:1021C8009A6D42F080529A659B6D03F0805301939B
:1021D800019B01266A4B1B6813F4807F28D0A368F3
:1021E800012B39D0052B3FD0644BD3F8902022F037
:1021F8000102C3F89020D3F8902022F00402C3F81B
:102208009020A368002B3DD0FFF774FD07465B4B79
:10221800D3F8903013F0020F46D1FFF76BFDC01BC7
:1022280041F288339842F2D9032049E10026D1E7E8
:10223800534A136843F480731360FFF75BFD074646
:102248004F4B1B6813F4807FC9D1FFF753FDC01BA8
:102258000228F5D9032033E1484AD2F8903043F0F8
:102268000103C2F89030CCE7444BD3F8902042F0F9
:102278000402C3F89020D3F8902042F00102C3F87A
:102288009020BEE7FFF736FD07463C4BD3F8903069
:1022980013F0020F08D0FFF72DFDC01B41F2883361
:1022A8009842F2D903200BE1E6B9236813F0200F16
:1022B80035D0636AE3B1314AD2F8983043F001036C
:1022C800C2F89830FFF716FD06462C4BD3F8983025
:1022D80013F0020F23D1FFF70DFD801B0228F4D95C
:1022E8000320EDE0254A936D23F080539365DCE7E6
:1022F800224AD2F8983023F00103C2F89830FFF749
:10230800F9FC06461D4BD3F8983013F0020F06D09F
:10231800FFF7F0FC801B0228F4D90320D0E0A36A61
:10232800002B00F0CC80022B17D00C2D00F0CC80B5
:10233800124A136823F080731360FFF7DBFC04462E
:102348000E4B1B6813F0007F00F0A880FFF7D2FC4B
:10235800001B0228F4D90320B2E0084BDB6803F025
:102368000301E26A91420DD00C2D00F0AB80034BC3
:102378001B6813F0806F2FD00120A1E000100240ED
:102388000070004003F07002216B0139B2EB011FAD
:10239800EAD103F4FE42616BB2EB012FE4D103F002
:1023A8007842A16BB2EBC16FDED103F4C001E26BDE
:1023B8005208013AB1EB425FD6D103F0C063226CF8
:1023C8005208013AB3EB426FCED1404B1B6813F071
:1023D800007F49D0002073E03C4A136823F08073E3
:1023E8001360FFF787FC0546384B1B6813F0007F26
:1023F80006D0FFF77FFC401B0228F5D903205FE0D9
:10240800324AD36832491940E36A206B013843EAFB
:102418000013606B43EA0023E06B4008013843EA8D
:102428004053206C4008013843EA4063A06B43EAFC
:10243800C0630B43D360136843F080731360D368A1
:1024480043F08073D360FFF755FC04461F4B1B68AD
:1024580013F0007F06D1FFF74DFC001B0228F5D9C9
:1024680003202DE000202BE0184B1A6842F0807200
:102478001A60DA6842F08072DA60FFF73BFC0446C3
:10248800124B1B6813F0007F06D1FFF733FC031BC8
:10249800022BF5D9032013E0002011E00B4AD16884
:1024A8000C4B0B40D36000200AE00120704701204C
:1024B80006E0012004E0012002E0012000E0002005
:1024C80003B0F0BD0120FBE70120F9E7001002404E
:1024D8008C809D01FCFFEEFE002800F0AF8070B5F7
:1024E8000D460446594B1B6803F007038B420BD279
:1024F800564A136823F007030B431360136803F06D
:1025080007038B4240F09C80236813F0020F0CD025
:10251800A2684F4B9B6803F0F0039A4205D94C49D7
:102528008B6823F0F0031A438A60236813F0010FC5
:1025380039D06368032B09D0022B26D063BB444AE9
:10254800126812F0020F06D1012076E0404A1268A4
:1025580012F0007F76D03E498A6822F003021343C6
:102568008B60FFF7C7FB0646394B9B6803F00C03EB
:102578006268B3EB820F16D0FFF7BCFB801B41F2F9
:1025880088339842F0D9032057E0314A126812F490
:10259800003FE0D1012050E02D4A126812F4806F0C
:1025A800D9D1012049E0236813F0020F0CD0A268AA
:1025B800274B9B6803F0F0039A4205D224498B68A5
:1025C80023F0F0031A438A60204B1B6803F00703CB
:1025D800AB420AD91D4A136823F007032B43136043
:1025E800136803F00703AB422ED1236813F0040FDE
:1025F80006D0174A936823F4E063E1680B439360BD
:10260800236813F0080F07D0114A936823F4605326
:10261800216943EAC1039360FFF7CEFB0C4B9B682B
:10262800C3F303130B4AD35C03F01F03D8400A4BD0
:1026380018600A4B1868FFF719FB70BD0120704736
:102648000120FAE70120F8E70120F6E70020024020
:1026580000100240E0410008700500206C050020D1
:10266800014B1868704700BF7005002008B5FFF7D8
:10267800F7FF054B9B68C3F30223044AD35C03F0BE
:102688001F03D84008BD00BF00100240F0410008F9
:1026980008B5FFF7E5FF054B9B68C3F3C223044A5F
:1026A800D35C03F01F03D84008BD00BF00100240F0
:1026B800F0410008F8B504460F46584BDB6813F0A4
:1026C800030F18D0554BDB6803F0030302689342ED
:1026D80002D001252846F8BD002A00F09D804F4B06
:1026E800DB68C3F3021301334268934201D001252A
:1026F800F0E7002509E00368022B56D0032B5BD0D6
:10270800012B41D00125002DE4D1444A136823F060
:1027180080631360FFF7EEFA0646404B1B6813F020
:10272800006F05D0FFF7E6FA831B022BF5D90325C6
:10273800002DCFD1002F4DD138490B6923F07843B4
:1027480023F4FE43A068E268D20642EA002213435B
:102758000B61324A136843F080631360FFF7CAFACB
:1027680006462E4B1B6813F0006F05D1FFF7C2FA1F
:10277800831B022BF5D90325002DABD1274A1369FA
:10278800A1690B431361A5E7244A126812F0020FEE
:102798001ED02248C26822F073026168013943EAF8
:1027A80001131343C3600025ADE71C4A126812F4F5
:1027B800806FEED10125A6E7184A126812F4003F8F
:1027C800E7D1164A126812F4802FE2D101259AE760
:1027D800012598E7012F0FD01048026922F0C06246
:1027E80022F4FE42A16863695B08013B5B0643EA89
:1027F800012313430361ACE70848026922F4C002CD
:1028080022F4FE42A16823695B08013B5B0543EAA9
:102818000123134303619CE701255BE70010024095
:102828002DE9F04182B00446036813F4006F25D007
:10283800C36CB3F5000F06D0B3F5400F12D04BB1FF
:10284800012637461CE0444AD36843F48033D360FA
:10285800002708E000210430FFF72CFF074610B1DD
:1028680006460DE000273C4AD2F8883023F440039E
:10287800E16C0B43C2F88830002601E00026374699
:10288800236813F4003F70D0334B9B6D13F0805FC7
:102898004CD1314B9A6D42F080529A659B6D03F092
:1028A80080530193019B4FF001082C4A136843F4AD
:1028B80080731360FFF71EFA0546284B1B6813F454
:1028C800807F05D1FFF716FA401B0228F5D90327A8
:1028D800002F45D1204BD3F8903013F4407315D016
:1028E800626E9A4212D01C4AD2F8903023F4407398
:1028F800D2F8901041F48031C2F89010D2F89010BC
:1029080021F48031C2F89010C2F8903013F0010F12
:102918000FD1002F40F016810F4AD2F8903023F4DF
:102928004073616E0B43C2F890301AE04FF0000814
:10293800BBE7FFF7DFF90546074BD3F8903013F0F4
:10294800020FE6D1FFF7D6F9401B41F288339842CF
:10295800F2D90327DDE700BF0010024000700040F5
:102968003E46B8F1000F40F0EF80236813F0010FE6
:1029780008D0904AD2F8883023F00303216A0B4329
:10298800C2F88830236813F0020F08D0894AD2F8B9
:10299800883023F00C03616A0B43C2F8883023683F
:1029A80013F0040F08D0834AD2F8883023F030039C
:1029B800A16A0B43C2F88830236813F0080F08D0C7
:1029C8007C4AD2F8883023F0C003E16A0B43C2F88E
:1029D8008830236813F0200F08D0764AD2F8883060
:1029E80023F44063216B0B43C2F88830236813F447
:1029F800007F08D06F4AD2F8883023F44023616CF6
:102A08000B43C2F88830236813F4806F08D0694AF2
:102A1800D2F8883023F44013A16C0B43C2F88830F5
:102A2800236813F0400F08D0624AD2F8883023F4A4
:102A38004053616B0B43C2F88830236813F0800F52
:102A480008D05C4AD2F8883023F44043A16B0B438A
:102A5800C2F88830236813F4807F08D0554AD2F82A
:102A6800883023F44033E16B0B43C2F88830236885
:102A780013F4801F08D04F4AD2F89C3023F0030388
:102A8800216C0B43C2F89C30236813F4005F0FD00D
:102A9800484AD2F8883023F04063216D0B43C2F8CE
:102AA8008830236DB3F1006F54D0B3F1806F56D0E6
:102AB800236813F4002F0FD03E4AD2F8883023F051
:102AC8004063616D0B43C2F88830636DB3F1006FEA
:102AD8004DD0B3F1806F4FD0236813F4802F0FD0FF
:102AE800344AD2F8883023F04063A16D0B43C2F812
:102AF8008830A36DB3F1006F46D0B3F1806F48D032
:102B0800236813F4804F0CD02A4AD2F8883023F077
:102B18004053E16D0B43C2F88830E36DB3F1805F39
:102B28003FD0236813F4803F08D0224AD2F8883077
:102B380023F00043216E0B43C2F88830304602B0C0
:102B4800BDE8F0813E460CE71A4A936D23F08053A6
:102B580093650AE7D36843F48013D360A8E701219B
:102B6800201DFFF7A7FD0028A2D00646A0E7D368DE
:102B780043F48013D360AFE70121201DFFF79AFDCE
:102B88000028A9D00646A7E7D36843F48013D3608A
:102B9800B6E70121201DFFF78DFD0028B0D00646BD
:102BA800AEE70221201DFFF785FD0028B9D00646B3
:102BB800B7E700BF00100240F0B583B0002362E021
:102BC80085685E000324B44025EA0405CC68B44057
:102BD8002C438460446824EA0C0C4C68C4F3001449
:102BE8009C4044EA0C0444605EE0DD08083550F877
:102BF800256003F007044FEA840C0F2404FA0CF450
:102C080026EA040E0C6904FA0CF444EA0E0440F8AF
:102C1800254060E0042400E0002404FA0EF42C436C
:102C28000CF1020C524D45F82C40524CA568D44387
:102C380025EA02064F6817F4801F01D042EA05060C
:102C48004C4DAE60ED6804EA05064F6817F4001FA6
:102C580001D042EA0506474DEE606D6804EA0506B4
:102C68004F6817F4003F01D042EA0506414D6E60F7
:102C78002D682C404E6816F4803F01D042EA0504C6
:102C88003C4A146001330A6832FA03F46ED04FF0FC
:102C9800010C0CFA03FC1CEA0202F3D04C6804F0A5
:102CA8000304013C012C8BD94C6804F00304032C69
:102CB8000CD0C4685D004FF0030C0CFA05FC24EA44
:102CC8000C0C8C68AC4044EA0C04C4604C6804F0FA
:102CD8000304022C89D004684FEA430E4FF0030C1A
:102CE8000CFA0EFC24EA0C0C4C6804F0030404FAF9
:102CF8000EF444EA0C0404604C6814F4403FC1D05C
:102D08001D4C256E45F001052566246E04F001046E
:102D18000194019C4FEA930C0CF10205144C54F8F1
:102D2800255003F003044FEA840E0F2404FA0EF42E
:102D380025EA0405B0F1904F3FF46EAF0F4CA04266
:102D48000ED004F58064A0420CD004F58064A04243
:102D58000AD004F58064A0423FF45CAF07245CE726
:102D680001245AE7022458E7032456E703B0F0BDCC
:102D78000000014000040140001002400004004827
:102D88000AB18161704781627047436901EA0302B1
:102D980021EA030141EA02418161704790F8253038
:102DA800DBB2022B06D00423C363002380F824304F
:102DB800012070470268136823F00E03136002684D
:102DC800136823F001031360436C03F01C03016CC8
:102DD800012202FA03F34B6080F82520002380F8D3
:102DE80024301846704708B590F82530DBB2022B1E
:102DF80003D00423C363012008BD0268136823F0CD
:102E08000E0313600268136823F001031360436C18
:102E180003F01C03016C012202FA03F34B6080F8F3
:102E28002520002380F82430836B13B198470020B5
:102E3800E2E70020E0E70000024A136843F48073E9
:102E48001360704700700040024B186800F4C060BF
:102E5800704700BF00700040B0F5007F0FD01F4BD7
:102E68001B6803F4C063B3F5806F34D01B4A136842
:102E780023F4C06343F48063136000207047174B4A
:102E88001B6803F4C063B3F5007F20D0134A1368AE
:102E980023F4C06343F400731360114B1B683222A0
:102EA80002FB03F30F4AA2FB03239B0C013300E050
:102EB800013B0A4A526912F4806F01D0002BF7D106
:102EC800064B5B6913F4806F03D100207047002024
:102ED8007047032070470020704700BF0070004013
:102EE8007005002083DE1B43074AD36823F4E063A0
:102EF8001B041B0C000200F4E060034343F0BF63B3
:102F080043F40033D360704700ED00E000B5194B7F
:102F1800DB68C3F30223C3F1070CBCF1040F28BF1D
:102F28004FF0040C03F1040EBEF1060F18D9033B51
:102F38004FF0FF3E0EFA0CFC21EA0C0199400EFA04
:102F480003F322EA0303194300280BDB0901C9B282
:102F580000F1604000F5614080F800135DF804FB63
:102F68000023E5E700F00F000901C9B2024B19542C
:102F7800F4E700BF00ED00E014ED00E0002807DBF7
:102F880000F01F02400901239340024A42F8203012
:102F9800704700BF00E100E00138B0F1807F0BD23C
:102FA8004FF0E0235861054AF02182F823100020F1
:102FB800986107221A6170470120704700ED00E010
:102FC80010B4036A046A24F001040462846924F0DA
:102FD800F00C4CEA021223F00A030B4382610362ED
:102FE8005DF8044B704710B4046A24F010040462BE
:102FF8008469036A24F4704C4CEA023223F0A0037B
:1030080043EA0113826103625DF8044B70478368E9
:1030180023F070030B4343F00703836070470000FD
:1030280090F83D30DBB2012B2AD1022380F83D30E5
:103038000268D36843F00103D3600368134A9342DC
:1030480010D0B3F1804F0DD0A2F59432934209D03D
:1030580002F59E32934205D01A6842F001021A60C6
:103068000020704799680A4A0A40062A0AD0B2F531
:10307800803F09D01A6842F001021A6000207047A8
:10308800012070470020704700207047002C014045
:1030980007000100704770477047704710B5044635
:1030A80003681A6912F0020F11D0DA6812F0020FE1
:1030B8000DD06FF002021A610123037703689B6940
:1030C80013F0030F79D0FFF7E6FF00232377236877
:1030D8001A6912F0040F12D0DA6812F0040F0ED039
:1030E8006FF004021A610223237723689B6913F4A3
:1030F800407F68D02046FFF7CEFF00232377236860
:103108001A6912F0080F12D0DA6812F0080F0ED000
:103118006FF008021A61042323772368DB6913F030
:10312800030F57D02046FFF7B6FF00232377236805
:103138001A6912F0100F12D0DA6812F0100F0ED0C0
:103148006FF010021A61082323772368DB6913F4F0
:10315800407F46D02046FFF79EFF00232377236851
:103168001A6912F0010F03D0DA6812F0010F3FD18B
:1031780023681A6912F0800F03D0DA6812F0800F02
:103188003DD123681A6912F4807F03D0DA6812F0FF
:10319800800F3BD123681A6912F0400F03D0DA6818
:1031A80012F0400F39D123681A6912F0200F03D0AA
:1031B800DA6812F0200F37D110BDFFF76BFF2046F9
:1031C800FFF76AFF81E72046FFF764FF2046FFF715
:1031D80063FF92E72046FFF75DFF2046FFF75CFF9D
:1031E800A3E72046FFF756FF2046FFF755FFB4E751
:1031F8006FF001021A612046FDF72EFCB8E76FF068
:1032080080021A61204600F052F9BAE76FF4807222
:103218001A61204600F04CF9BCE76FF040021A61D1
:103228002046FFF73AFFBEE76FF020021A612046FA
:1032380000F03CF9C0E7000003681E4A904206D03F
:10324800B0F1804F03D0A2F59432904203D123F01D
:1032580070034A681343174A90420ED0B0F1804F6A
:103268000BD0A2F59432904207D002F59E329042DC
:1032780003D002F58062904203D123F44073CA68F8
:10328800134323F080034A69134303608B68C362C6
:103298000B688362074B984207D003F5A053984206
:1032A80003D003F58063984201D10B6903630123BE
:1032B80043617047002C014060B310B5044690F894
:1032C8003D3013B3022384F83D30214651F8040BF6
:1032D800FFF7B2FF012384F8483084F83E3084F8C1
:1032E8003F3084F8403084F8413084F8423084F824
:1032F800433084F8443084F8453084F8463084F804
:10330800473084F83D30002010BD80F83C30FEF78F
:103318005DF9D7E70120704710B4846824F47F4C26
:1033280042EA03220A4342EA0C0282605DF8044B37
:103338007047000090F83C30012B76D010B5044659
:10334800012380F83C30022380F83D300268906801
:10335800374B034093600B68602B4CD029D8402B27
:1033680054D00CD9502B22D1CA6849682068FFF77D
:1033780027FE50212068FFF74AFE002005E0202B99
:103388000DD009D9302B0AD00120012384F83D3013
:10339800002384F83C3010BD0BB1102B05D1194621
:1033A8002068FFF734FE0020EFE70120EDE7012059
:1033B800EBE7B3F5805F34D0B3F5005F0CD1CB6891
:1033C8004A6889682068FFF7A7FF2268936843F472
:1033D800804393600020D8E7702B24D1CB684A68DB
:1033E80089682068FFF798FF2268936843F077039D
:1033F80093600020C9E7CA6849682068FFF7F3FDB1
:1034080060212068FFF703FE0020BEE7CA6849680C
:103418002068FFF7D5FD40212068FFF7F8FD002060
:10342800B3E70020B1E70120AFE70220704700BFF3
:103438008800FEFF90F83C30012B33D030B40123D4
:1034480080F83C30022380F83D3002685368946865
:10345800154DAA4221D023F070030D682B43536009
:103468000368114A93420AD0B3F1804F07D0A2F5FE
:103478009432934203D002F59E32934204D124F051
:1034880080048A6814439C60012380F83D3000233F
:1034980080F83C30184630BC704723F470034D6800
:1034A8002B43D8E702207047002C01407047704733
:1034B8007047026852E8003F23F4907342E80031F5
:1034C8000029F6D1026802F1080353E8003F23F00F
:1034D8000103083242E800310029F3D1036E012BC1
:1034E80005D02023C367002303664366704702683C
:1034F80052E8003F23F0100342E800310029F6D1DA
:10350800EFE7704708B5026852E8003F23F0400330
:1035180042E800310029F6D120238367002383661F
:10352800FFF7EFFF08BD704708B5806A0023A0F8D1
:103538005A30A0F85230FFF7F6FF08BD7047000078
:1035480070B504460168CB6908688D6840F60F02BB
:103558001A4005D113F0200F02D010F0200F20D10F
:103568002AB115F0010222D1AC4E30421FD1226E91
:10357800012A00F0AB8013F4801F03D015F4800FEC
:1035880040F0398113F0800F03D010F0800F40F025
:10359800398113F0400F03D010F0400F40F039810B
:1035A80070BD636E002BFBD020469847F8E713F0F8
:1035B800010F09D010F4807F06D001250D62D4F8E0
:1035C80080102943C4F8801013F0020F09D042B1CB
:1035D800216802250D62D4F8801041F00401C4F876
:1035E800801013F0040F09D042B1216804250D6240
:1035F800D4F8801041F00201C4F8801013F0080FCD
:103608000BD010F0200F00D13AB1226808211162C6
:10361800D4F880200A43C4F8802013F4006F0CD03B
:1036280010F0806F09D022684FF400611162D4F85D
:10363800802042F02002C4F88020D4F88020002A9C
:10364800AED013F0200F06D010F0200F03D0636E19
:103658000BB120469847D4F8802023689B6813F064
:10366800400F02D112F0280F29D02046FFF721FF82
:1036780023689B6813F0400F1DD0226802F10803ED
:1036880053E8003F23F04003083242E800310029A4
:10369800F3D1236F5BB1624A9A63206FFFF7A3FBF4
:1036A80000283FF47DAF206F836B984778E720466A
:1036B800FFF739FF74E72046FFF735FF70E720462C
:1036C800FFF731FF0023C4F8803069E713F0100FCB
:1036D8003FF451AF10F0100F3FF44DAF10230B62C1
:1036E80023689B6813F0400F4ED0226F13685B6805
:1036F8009BB2002B3FF454AFB4F8581099427FF6B0
:103708004FAFA4F85A3013681B6813F0200F30D15C
:10371800226852E8003F23F4807342E80031002910
:10372800F6D1226802F1080353E8003F23F00103B1
:10373800083242E800310029F3D1226802F1080377
:1037480053E8003F23F04003083242E800310029E3
:10375800F3D12023E36700232366226852E8003F61
:1037680023F0100342E800310029F6D1206FFFF75B
:1037780015FBB4F85810B4F85A309BB2C91A89B27C
:103788002046FFF7DBFE0BE7B4F85810B4F85A30C0
:103798009BB2C91A89B2B4F85A309BB2002B3FF4D5
:1037A800FFAE00293FF4FCAE226852E8003F23F444
:1037B800907342E800300028F6D1226802F108032D
:1037C80053E8003F23F00103083242E800300028A4
:1037D800F3D12023E367002323666366226852E857
:1037E800003F23F0100342E800300028F6D12046BD
:1037F800FFF7A4FED4E64FF480130B62204600F0D6
:103808006FFCCDE6A36E002B3FF4CAAE2046984766
:10381800C6E62046FFF776FEC2E600BF2001000498
:103828003135000808B5B0F85C30C26F222A06D0DE
:103838000268138B9BB243F00803138308BD026828
:10384800918CDBB2426D0B401370436D01334365BD
:10385800B0F85A309BB2013B9BB2A0F85A30B0F88E
:103868005A309BB2002BE9D1026852E8003F23F49A
:10387800907342E800310029F6D1026802F108038A
:1038880053E8003F23F00103083242E800310029E1
:10389800F3D12023C36700234366036E012B16D19F
:1038A80000230366026852E8003F23F0100342E851
:1038B80000310029F6D10368DA6912F0100F01D03F
:1038C80010221A62B0F85810FFF738FEB6E7FDF775
:1038D80061F8B3E708B5B0F85C30C26F222A06D0A9
:1038E8000268138B9BB243F00803138308BD026878
:1038F800918C426D0B401380436D02334365B0F8E1
:103908005A309BB2013B9BB2A0F85A30B0F85A30FB
:103918009BB2002BEAD1026852E8003F23F490736F
:1039280042E800310029F6D1026802F1080353E8A1
:10393800003F23F00103083242E800310029F3D1A7
:103948002023C36700234366036E012B16D100238F
:103958000366026852E8003F23F0100342E8003192
:103968000029F6D10368DA6912F0100F01D010228D
:103978001A62B0F85810FFF7E1FDB7E7FDF70AF84B
:10398800B4E7000010B50446016883680269134370
:1039980042691343C269134308688F4A02401343BC
:1039A8000B602268536823F44053E1680B4353606B
:1039B800A1692268894B9A4201D0236A1943936806
:1039C80023F430630B4393602368854A934223D0E2
:1039D800844A934234D0844A93424AD0834A9342D9
:1039E80059D07E4A934268D010227C498B4200F01D
:1039F8009580E069B0F5004F00F0C180082A00F218
:103A08002A81DFE812F0F9000F01E700280112010E
:103A1800280128012801150102F55842D2F888200A
:103A280002F00302032A09D8DFE802F002045C0668
:103A38000122DAE70422D8E70822D6E71022D4E7E1
:103A480002F5E632D2F8882002F00C020C2A0ED8D1
:103A5800DFE802F0070D0D0D090D0D0D4A0D0D0DD6
:103A68000B000022C1E70422BFE70822BDE71022AD
:103A7800BBE702F5E432D2F8882002F03002202AAF
:103A880034D004D8A2B3102A34D10422ADE7302AA6
:103A980032D10822A9E702F5E232D2F8882002F0F2
:103AA800C002802A2AD004D852B3402A2AD104223C
:103AB8009BE7C02A28D1082297E702F5C832D2F836
:103AC800882002F44062B2F5006F1FD005D8FAB121
:103AD800B2F5806F1ED1042287E7B2F5406F1BD183
:103AE800082282E7022280E702227EE702227CE7A0
:103AF80000227AE7102278E7102276E7022274E79C
:103B0800002272E7102270E710226EE702226CE7AB
:103B180000226AE7102268E7102266E7082A00F206
:103B28008A80DFE802F008882A88278888880500C4
:103B38004FF4004003E0FEF799FD00287DD062684D
:103B480002EB420383427AD8B0EB023F79D8010EE8
:103B580000025308C0184FF0000341F10001FCF7C0
:103B680049FBA0F54072224B9A426CD82368D86072
:103B7800002053E0FEF720F9DFE71E48DFE7082AB8
:103B880063D8DFE802F007210562246262620B0055
:103B9800184803E0FEF76AFD002858D06268530809
:103BA80003EB4000B0FBF2F0A0F110024FF6EF7308
:103BB8009A424ED883B223F00F03C0F34200184351
:103BC8002368D860002029E0FEF762FDE4E7FEF7ED
:103BD800F3F8E1E7074812E0F369FFEF00800040DF
:103BE800003801400044004000480040004C0040BC
:103BF800FFFC0F000024F400FEF738FD68B363688B
:103C080000EB5300B0FBF3F0A0F110024FF6EF7396
:103C18009A4224D8236880B2D860002000236366C3
:103C2800A36610BDFEF734FDE8E7FEF7C5F8E5E743
:103C38004FF40040E3E70120F0E70020EEE7012021
:103C4800ECE70120EAE70120E8E70120E6E70020A9
:103C5800E4E70120E2E70120E0E70020DEE70120B9
:103C6800DCE700BF436A13F0010F06D0026853680F
:103C780023F40033816A0B435360436A13F0020F45
:103C880006D00268536823F48033C16A0B4353603B
:103C9800436A13F0040F06D00268536823F48023A4
:103CA800016B0B435360436A13F0080F06D0026898
:103CB800536823F40043416B0B435360436A13F08A
:103CC800100F06D00268936823F48053816B0B436E
:103CD8009360436A13F0200F06D00268936823F4B8
:103CE8000053C16B0B439360436A13F0400F0AD033
:103CF8000268536823F48013016C0B435360036C10
:103D0800B3F5801F0BD0436A13F0800F06D002680A
:103D1800536823F40023816C0B4353607047026897
:103D2800536823F4C003416C0B435360EBE72DE960
:103D3800F84305460F4616469946DDF820802C685C
:103D4800E46937EA04030CBF4FF0010C4FF0000C94
:103D5800B44553D1B8F1FF3FF1D0FDF7CBFFA0EB4D
:103D6800090040452DD8B8F1000F2AD02B681A68F1
:103D780012F0040FE3D0DA6912F4006FDFD04FF4C9
:103D880000621A622A6852E8003F23F4D07342E8BE
:103D980000310029F6D12A6802F1080353E8003FF0
:103DA80023F00103083242E800310029F3D120232F
:103DB800AB67EB67C5F88030002385F874300320C3
:103DC8001DE02A6852E8003F23F4D07342E800312E
:103DD8000029F6D12A6802F1080353E8003F23F0CE
:103DE8000103083242E800310029F3D12023AB67F0
:103DF800EB67002385F87430032000E00020BDE85D
:103E0800F8832DE9F04182B01E46836F202B56D1EE
:103E180004460D469046002955D0002A55D090F802
:103E28007430012B53D0012380F874300023C0F87C
:103E3800803021238367FDF75DFF0746A4F8508093
:103E4800A4F85280A368B3F5805F05D04FF000084E
:103E5800002384F8743014E0236913B14FF000088C
:103E6800F6E7A8460025F3E738F8023B2268C3F3D3
:103E780008031385B4F8522092B2013A92B2A4F81A
:103E88005220B4F852309BB273B100963B460022E0
:103E980080212046FFF74BFFD8B9002DE4D02368D6
:103EA80015F8012B1A85E5E700963B4600224021CC
:103EB8002046FFF73CFF70B92023A36700E00220EB
:103EC80002B0BDE8F0810120FAE70120F8E70220FE
:103ED800F6E70320F4E70320F2E730B583B00446A1
:103EE8000023C0F88030FDF705FF054622681268F8
:103EF80012F0080F0DD123681B6813F0040F16D1B8
:103F08002023A367E3670020206684F8740003B0C9
:103F180030BD6FF07E430093034600224FF400113A
:103F28002046FFF704FF0028E5D00320EFE76FF0F5
:103F38007E4300932B4600224FF480012046FFF772
:103F4800F6FE0028DCD00320E1E768B310B504468C
:103F5800836F03B32423A3672268136823F0010344
:103F680013602046FFF70EFD012813D0636ABBB922
:103F78002268536823F4904353602268936823F0BF
:103F88002A0393602268136843F0010313602046F4
:103F9800FFF7A3FF10BD80F87430FDF735FBD9E7B4
:103FA8002046FFF75FFEE3E7012070474165A0F870
:103FB8005820A0F85A20002343668368B3F5805F31
:103FC80006D0A3B9036973B9FF23A0F85C3014E0E5
:103FD800036923B940F2FF13A0F85C300DE0FF231A
:103FE800A0F85C3009E07F23A0F85C3005E0B3F16D
:103FF800805F29D00023A0F85C300023C0F880300F
:104008002223C367026802F1080353E8003F43F024
:104018000103083242E800310029F3D18368B3F57F
:10402800805F1BD0154B4366002380F8743003690A
:10403800D3B1026852E8003F43F4907342E800317C
:104048000029F6D10020704703691BB97F23A0F827
:104058005C30D2E73F23A0F85C30CEE70369002B41
:10406800E0D1074B4366DFE7026852E8003F43F0C0
:10407800200342E800310029F6D1E3E72D38000893
:10408800DD38000838B5C36F202B1ED1F9B102B353
:1040980090F87430012B1ED0012380F8743000236F
:1040A800036603680D4CA3420CD05B6813F4000F41
:1040B80008D0046854E8003F43F0806344E80035C2
:1040C800002DF6D1FFF772FF00E0022038BD012075
:1040D800FCE70120FAE70220F8E700BF0080004073
:1040E80070470000034AD2F8883043F47003C2F8DE
:1040F8008830704700ED00E0DFF834D0FFF7F2FFBA
:104108000C480D490D4A002302E0D458C45004332A
:10411800C4188C42F9D30A4A0A4C002301E0136000
:104128000432A242FBD300F011F8FCF7D7FDFEE7FA
:10413800008002200000002078050020404200088E
:10414800780500201C180020FEE7000070B50D4D12
:104158000D4C641BA4100026A64209D10B4D0C4C33
:1041680000F02EF8641BA4100026A64205D170BDED
:1041780055F8043B98470136EEE755F8043B984755
:104188000136F2E7304200083042000830420008A9
:10419800344200080A44914200F1FF3300D17047CD
:1041A80010B511F8014B03F8014F9142F9D110BD38
:1041B80002440346934200D1704703F8011BF9E714
:1041C800F8B500BFF8BC08BC9E467047F8B500BFFC
:0841D800F8BC08BC9E467047CC
:1041E00000000000000000000102030406070809A7
:1041F0000000000001020304A0860100400D03003E
:10420000801A060000350C0040420F0080841E001A
:1042100000093D0000127A000024F40000366E010F
:084220000048E801006CDC021B
:0842280004C0FF7F010000004B
:08423000BD01000800000000C0
:084238009901000800000000DC
:104240003131372E362E3136332E313737000000DC
:10425000373537370000000001000000050000007E
:104260004B540D0A0000000041542B4349504F505D
:1042700051554552593F0D0A0000000041542B434F
:10428000474154543F0D0A0041542B495041444486
:10429000520D0A0041540D0A0000000041542B4EFB
:1042A00045544F50454E0D0A0000000041542B4329
:1042B00053510D0A0000000041542B4350494E3F1A
:1042C0000D0A000041542B435245473F0D0A0000A0
:1042D00041542B434950434C4F53453D310D0A0047
:1042E00041542B43434C4B3F0D0A000041542B4E8D
:1042F0004554434C4F53450D0A00000041542B4395
:10430000495052584745543D302C310D0A000000A9
:1043100041542B43495054494D454F55543D33303A
:104320003030302C32303030302C34303030302C93
:1043300035303030300D0A0041542B4349504D4F39
:1043400044453D300D0A000041542B43495053452C
:104350004E443D312C2C2C2C00000000222C00005F
:104360002C300D0A0000000041542B4349504F509F
:10437000454E3D312C22544350222C220000000097
:10438000436865636B20436F6E65637420544350CC
:10439000204572726F720D0A000000005265616460
:1043A0007920546F20436F6D6D756E69636174651C
:1043B0002057697468205443500D0A0043686563B0
:1043C0006B2047505253204572726F720D0A0000E5
:1043D000436865636B2047505253204F6B0D0A00B2
:1043E000436865636B204950204572726F720D0AF5
:1043F00000000000436865636B204950204F6B0D3F
:104400000A000000436865636B204D6F64756C653E
:10441000204572726F720D0A0000000043686563E8
:104420006B204D6F64756C65204F6B0D0A000000AA
:10443000436865636B20496E7465726E65742045D0
:1044400072726F720D0A0000436865636B20496EDB
:104450007465726E6574204F6B0D0A004368656366
:104460006B205369676E616C204572726F720D0A22
:1044700000000000436865636B205369676E616CE0
:10448000204F6B0D0A000000436865636B20536981
:104490006D204572726F720D0A00000043686563FB
:1044A0006B2053696D204F6B0D0A000043686563F4
:1044B0006B20537562736372696265204572726F17
:1044C000720D0A00436865636B20537562736372F3
:1044D000696265204F6B0D0A000000004368656348
:1044E0006B696E6720436F6E656374205443500D93
:1044F0000A000000436865636B696E67204750528D
:10450000530D0A00436865636B696E672049500D5F
:104510000A000000436865636B696E67204D6F6435
:10452000756C652053696D0D0A0000004368656372
:104530006B696E6720496E7465726E65740D0A0052
:10454000436865636B696E67205369676E616C0DC4
:104550000A000000436865636B696E672053696DEC
:104560000D0A0000436865636B696E6720537562CE
:104570007363726962650D0A00000000436C6F731B
:1045800073696E6720436F6E6E6563742054435089
:10459000205365727665720D0A000000436C6F73DC
:1045A0006520436F6E6E65637420544350205365DD
:1045B00072766572204572726F720D0A00000000FB
:1045C000436C6F736520436F6E6E65637420544354
:1045D0005020536572766572204F6B0D0A00000003
:1045E000436F6E6E6563742054435020536572763A
:1045F0006572204572726F720D0A0000436F6E6E15
:104600006563742054435020536572766572204F61
:104610006B0D0A00436F6E6E656374696E6720549C
:104620004350205365727665720D0A00436C6F73B8
:104630006520436F6E6E65637420496E7465726E9B
:104640006574204572726F720D0A0000436C6F73BF
:104650006520436F6E6E65637420496E7465726E7B
:104660006574204F6B0D0A005365742052656365B5
:10467000697665204D6F6465204572726F720D0A10
:1046800000000000536574205265636569766520FB
:104690004D6F6465204F6B0D0A0000005365742058
:1046A00054696D656F7574204572726F720D0A00E2
:1046B0005365742054696D656F7574204F6B0D0AD6
:1046C00000000000536574205472616E736D69744C
:1046D000204D6F6465204572726F720D0A000000F4
:1046E000536574205472616E736D6974204D6F64EC
:1046F00065204F6B0D0A0000436C6F7373696E6722
:1047000020436F6E6E65637420496E7465726E65CA
:10471000740D0A0053657474696E67205265636591
:10472000697665204D6F64650D0A000053657474E9
:10473000696E672054696D656F75740D0A0000001D
:1047400053657474696E67205472616E736D697419
:10475000204D6F64650D0A005472616E736D69744B
:10476000204461746120546F20544350204572727C
:104770006F720D0A000000005472616E736D6974EF
:10478000204461746120546F204F6B0D0A000000BB
:104790005472616E736D6974696E672044617461EF
:1047A00020546F205443500D0A00010010000000F7
:0847B00000093D0000000000BB
:0400000508004101AD
:00000001FF
