:020000040800F2
:1000000000800220C1350008C10A0008C30A0008A8
:10001000C50A0008C70A0008C90A00080000000055
:10002000000000000000000000000000CB0A0008F3
:10003000CD0A000800000000CF0A0008D10A00081D
:100040001136000811360008113600081136000874
:100050001136000811360008113600081136000864
:100060001136000811360008113600081136000854
:100070001136000811360008113600081136000844
:100080001136000811360008113600081136000834
:100090001136000811360008113600081136000824
:1000A0001136000811360008113600081136000814
:1000B000D90A0008113600080000000011360008B7
:1000C00011360008113600081136000811360008F4
:1000D00011360008E90A000811360008F90A00087C
:1000E00011360008090B00080000000000000000A5
:1000F0000000000000000000000000000000000000
:100100000000000011360008000000001136000851
:100110001136000800000000113600080000000041
:100120001136000811360008113600081136000893
:1001300011360008113600081136000800000000D2
:100140001136000811360008113600081136000873
:100150001136000811360008113600081136000863
:1001600011360008113600081136000800000000A2
:100170000000000011360008000000000000000030
:100180001136000811360008113600081136000833
:08019000113600080000000018
:1001980010B5054C237833B9044B13B10448AFF3B9
:1001A80000800123237010BD3801002000000000EA
:1001B8008836000808B5034B1BB103490348AFF361
:1001C800008008BD000000003C01002088360008BF
:1001D800034613F8012B002AFBD1181A013870477F
:1001E80053B94AB9002908BF00281CBF4FF0FF3196
:1001F8004FF0FF3000F074B9ADF1080C6DE904CE92
:1002080000F006F8DDF804E0DDE9022304B07047E9
:100218002DE9F047089D04468E46002B4DD18A42B1
:10022800944669D9B2FA82F252B101FA02F3C2F1E4
:10023800200120FA01F10CFA02FC41EA030E944075
:100248004FEA1C48210CBEFBF8F61FFA8CF708FB96
:1002580016E341EA034306FB07F199420AD91CEB6E
:10026800030306F1FF3080F01F81994240F21C81A0
:10027800023E63445B1AA4B2B3FBF8F008FB1033E8
:1002880044EA034400FB07F7A7420AD91CEB04041D
:1002980000F1FF3380F00A81A74240F207816444ED
:1002A800023840EA0640E41B00261DB1D440002372
:1002B800C5E900433146BDE8F0878B4209D9002DD6
:1002C80000F0EF800026C5E9000130463146BDE860
:1002D800F087B3FA83F6002E4AD18B4202D38242CA
:1002E80000F2F980841A61EB030301209E46002D79
:1002F800E0D0C5E9004EDDE702B9FFDEB2FA82F2CE
:10030800002A40F09280A1EB0C014FEA1C471FFA2B
:100318008CFE0126200CB1FBF7F307FB131140EA12
:1003280001410EFB03F0884208D91CEB010103F1DF
:10033800FF3802D2884200F2CB804346091AA4B2A1
:10034800B1FBF7F007FB101144EA01440EFB00FE75
:10035800A64508D91CEB040400F1FF3102D2A645DA
:1003680000F2BB800846A4EB0E0440EA03409CE779
:10037800C6F12007B34022FA07FC4CEA030C20FA26
:1003880007F401FA06F31C43F9404FEA1C4900FA46
:1003980006F3B1FBF9F8200C1FFA8CFE09FB1811C3
:1003A80040EA014108FB0EF0884202FA06F20BD936
:1003B8001CEB010108F1FF3A80F08880884240F286
:1003C8008580A8F102086144091AA4B2B1FBF9F0CA
:1003D80009FB101144EA014100FB0EFE8E4508D9C5
:1003E8001CEB010100F1FF346CD28E456AD902384A
:1003F800614440EA0840A0FB0294A1EB0E01A1422F
:10040800C846A64656D353D05DB1B3EB080261EB9C
:100418000E0101FA07F722FA06F3F1401F43C5E976
:10042800007100263146BDE8F087C2F12003D840AC
:100438000CFA02FC21FA03F3914001434FEA1C47EE
:100448001FFA8CFEB3FBF7F007FB10360B0C43EAE0
:10045800064300FB0EF69E4204FA02F408D91CEB90
:10046800030300F1FF382FD29E422DD9023863448E
:100478009B1B89B2B3FBF7F607FB163341EA03412E
:1004880006FB0EF38B4208D91CEB010106F1FF387D
:1004980016D28B4214D9023E6144C91A46EA004674
:1004A80038E72E46284605E70646E3E61846F8E606
:1004B8004B45A9D2B9EB020864EB0C0E0138A3E74F
:1004C8004646EAE7204694E74046D1E7D0467BE730
:1004D800023B614432E7304609E76444023842E7A8
:1004E800704700BFF0B589B00024039404940594C4
:1004F80006940794234BDA6C42F00402DA64DA6C4F
:1005080002F004020092009ADA6C42F00202DA6405
:10051800DA6C02F002020192019ADA6C42F00102EE
:10052800DA64DB6C03F001030293029B164F224648
:100538002A21384601F0FAFE144D224646F21B01E4
:10054800284601F0F3FE2A23039301260496059416
:10055800069403A9384601F005FE46F21B030393EF
:1005680004960594069403A9284601F0FBFD4FF470
:10057800487303930494059403A9284601F0F2FDF7
:1005880009B0F0BD0010024000080048000400480F
:10059800704772B6FEE7000008B50B480B4B0360C6
:1005A8004FF4E133436000238360C36003610C228E
:1005B80042618361C3610362436202F026FF00B9AE
:1005C80008BDFFF7E6FF00BFD0020020004C004046
:1005D80008B50B480B4B03604FF4E133436000232D
:1005E8008360C36003610C2242618361C36103625B
:1005F800436202F00AFF00B908BDFFF7CAFF00BF57
:10060800C80100200038014008B50B480B4B0360B7
:100618004FF4E133436000238360C36003610C221D
:1006280042618361C3610362436202F0EEFE00B976
:1006380008BDFFF7AEFF00BF4C0200200048004095
:1006480010B592B000240D940E940F941094119448
:100658000C942C22214601A803F00AF82A482B4BB7
:10066800036044607F238360FF23C36004614461A7
:100678008461C46100F002FC00283CD10A238DF893
:10068800343005238DF8353000228DF8362010924D
:1006980011920DA91C4800F049FC70BB03238DF88A
:1006A800303007238DF8313006238DF83230162389
:1006B8008DF8333000220CA9134800F09BFCF0B9E8
:1006C80000228DF804208DF8052014238DF80630BB
:1006D80002920492059206920892099201238DF8DB
:1006E80028304FF480730B9301A9074800F0D6FC1B
:1006F80038B912B010BDFFF74CFFFFF74AFFFFF7FC
:1007080048FFFFF746FF00BF5801002000280040BF
:1007180000B589B0002304930593069307930193CA
:100728000293039314484FF08042026041F63F72EF
:100738004260836042F20F72C2600361836102F01B
:1007480087F890B94FF48053049304A90A4802F03B
:10075800BDF860B900230193039301A9064802F08C
:1007680035F930B909B05DF804FBFFF712FFFFF760
:1007780010FFFFF70EFF00BF7C01002000B597B007
:100788004422002105A802F073FF0023009301937F
:100798000293039304934FF4007001F029FE00289C
:1007A8002FD101F015FE1A4AD2F8903023F0180321
:1007B800C2F8903006230593012207924FF4807304
:1007C80008934023099302230F93109311920A224E
:1007D8001292072213921493159305A800F01CFE99
:1007E80088B90F23009303230193002302930393F3
:1007F80004930421684601F045F930B917B05DF853
:1008080004FBFFF7C6FEFFF7C4FEFFF7C2FE00BFFA
:100818000010024008B500F03BFDFFF7AFFFFFF7FF
:1008280061FEFFF7B9FEFFF7D3FEFFF7EDFEFFF716
:1008380007FFFFF76DFF094801F0BEFE01220849D6
:10084800084802F07FFE01220749084802F07AFEB4
:100858000749084800F010F8FEE700BF7C010020B7
:10086800550100204C02002054010020C80100203E
:1008780010000020000000202DE9F04106460D463A
:10088800774F3846FFF7A4FC0246764C3946204697
:1008980002F0E0FE744F3846FFF79AFC02463946EC
:1008A800201D02F0D7FE714F3846FFF791FC024633
:1008B800394604F10E0002F0CDFE6D4F3846FFF7C1
:1008C80087FC0246394604F1160002F0C3FE694F60
:1008D8003846FFF77DFC0246394604F1200002F055
:1008E800B9FE654F3846FFF773FC0246394604F1F6
:1008F8002B0002F0AFFE614F3846FFF769FC024655
:10090800394604F1520002F0A5FE5D4F3846FFF764
:100918005FFC0246394604F1600002F09BFE594F25
:100928003846FFF755FC0246394604F16C0002F0E0
:1009380091FE554F3846FFF74BFC0246394604F105
:10094800770002F087FE514F3846FFF741FC024618
:10095800394604F1880002F07DFE4D4F3846FFF716
:1009680037FC0246394604F1EC0002F073FE494FA9
:100978003846FFF72DFC0246394604F59C7002F014
:1009880069FE454F3846FFF723FC0246394604F214
:10099800451002F05FFE3046FFF71AFC0246DFF80A
:1009A80010813146404602F055FE2846FFF710FCFC
:1009B80002463A4F2946384602F04CFE384E304639
:1009C800FFF706FC0246374D3146284602F042FE44
:1009D8002846FFF7FDFB06464046FFF7F9FB0246AF
:1009E8004146A81902F036FE2846FFF7F1FB0646F5
:1009F800DFF8C0804046FFF7EBFB02464146A819E6
:100A080002F028FE2846FFF7E3FB06463846FFF7C4
:100A1800DFFB02463946A81902F01CFE2846FFF7FC
:100A2800D7FB0646204F3846FFF7D2FB0246394629
:100A3800A81902F00FFE2846FFF7CAFB024629460E
:100A480004F1F60002F006FE184D2846FFF7C0FB39
:100A58000246294604F5947002F0FCFDBDE8F081D9
:100A6800500000205403002068000020740000207B
:100A78003800002018000020F40000201C0100208D
:100A88005800002044000020E0000020CC00002096
:100A9800C00000208000002090000020EC0400200E
:100AA800A8000020A4040020A000002024000020AA
:100AB800D80400209C000020FEE7FEE7FEE7FEE7E2
:100AC800FEE770477047704708B500F0F1FB08BDB6
:100AD80008B5024801F0AEFD08BD00BF7C0100204A
:100AE80008B5024801F0F8FF08BD00BFC8010020A2
:100AF80008B5024801F0F0FF08BD00BF4C02002015
:100B080008B5024800F026F908BD00BF58010020CA
:100B180082B00A4B1A6E42F001021A661A6E02F08F
:100B280001020092009A9A6D42F080529A659B6D7C
:100B380003F080530193019B02B0704700100240FC
:100B480010B59AB0044668220021684602F090FD6C
:100B58002268114B9A4201D01AB010BD4FF40033ED
:100B680000934FF480731993684601F02FF978B910
:100B78000A4AD2F8903043F40043C2F89030002279
:100B88000F21292001F08EFC292001F0C3FCE3E7A6
:100B9800FFF7FFFCECE700BF002800400010024010
:100BA8000368B3F1804F00D0704700B583B003F5F8
:100BB80004339A6D42F001029A659B6D03F00103BC
:100BC8000193019B002201211C2001F06BFC1C20D9
:100BD80001F0A0FC03B05DF804FB000010B5A6B05E
:100BE8000446002121912291239124912591682284
:100BF80007A802F03DFD23684F4A934207D04F4AA9
:100C0800934230D04E4A934262D026B010BD08239A
:100C1800079307A801F0DAF810BB4A4B9A6D42F423
:100C280000229A659A6D02F400220192019ADA6C08
:100C380042F00402DA64DB6C03F004030293029BC3
:100C48004FF4406321930223229300232393032329
:100C580024930823259321A93B4801F083FAD4E77C
:100C6800FFF797FCD9E70123079307A801F0AEF82F
:100C780058BB344B1A6E42F480421A661A6E02F45C
:100C880080420392039ADA6C42F00102DA64DB6C68
:100C980003F001030493049B4FF4C06321930223E0
:100CA800229300242394032324930723259321A923
:100CB8004FF0904001F056FA22460521252001F018
:100CC800F1FB252001F026FC9FE7FFF762FCD0E747
:100CD8000423079307A801F079F850BB194B9A6DC4
:100CE80042F480229A659A6D02F480220592059A50
:100CF800DA6C42F00202DA64DB6C03F0020306935A
:100D0800069B4FF4406321930223229300242394EB
:100D1800032324930723259321A90C4801F022FAE1
:100D280022460621272001F0BDFB272001F0F2FB17
:100D38006BE7FFF72EFCD1E7004C0040003801407C
:100D48000048004000100240000800480004004825
:100D58007047000010B50446154B4FF480225A61C5
:100D680003689A6812F4805F03D0DA6812F4807F0F
:100D78000CD123689A6812F4005F03D0DA6812F481
:100D8800007F0BD1012384F8213010BDDA68D2B27C
:100D980062F4C072DA60FFF7DBFFEAE7DA68D2B222
:100DA80062F42072DA60204600F048FAEAE700BFF1
:100DB8000004014038B504460268D36823F0A00354
:100DC800D36000F081FA05462368DB6813F0200F32
:100DD80007D100F079FA401BB0F57A7FF4D90320E7
:100DE80000E0002038BD70B50368DA6812F0400FE3
:100DF80002D00025284670BD04464FF0FF32DA6065
:100E080000F062FA064600252368DB6813F0400FFD
:100E1800F0D1032DEED000F057FA831BB3F57A7F9B
:100E2800F2D9032584F82150EEE7000010B50446F6
:100E3800114BDA6822F08002DA609B6813F0200F09
:100E480007D1FFF7B7FF0346A0B1032384F8213089
:100E580010E0094A936823F020039360FFF7AAFF84
:100E6800034610B1032384F8213003498A6842F00D
:100E780020028A60184610BD00280040002848D08B
:100E880038B5044690F821306BB1022384F821303C
:100E98002368CA225A62236853225A622046FFF7FF
:100EA800A2FF28B138BD80F82030FFF749FEECE7F3
:100EB8002268936823F4E00323F0400393602168D9
:100EC8008A68636820690343A069034313438B60FE
:100ED8002368E2681A6122681369A16843EA01433A
:100EE80013612046FFF7A2FF0028DBD12268D36CEC
:100EF80023F00303D3642168CB6CE26965692A4354
:100F08001343CB642368FF225A62012384F82130FB
:100F1800C8E701207047002302E001330A38C0B255
:100F28000928FAD81B01DBB21843704790F8203023
:100F3800012B5DD070B504460D461646012380F896
:100F48002030022380F821300368CA225A620368DD
:100F580053225A62FFF747FF68BB002E36D1236839
:100F68009B6813F0400F01D10023EB702878FFF73E
:100F7800D2FF06046878FFF7CEFF46EA0026A87875
:100F8800FFF7C9FF3043EB7840EA8350236800F04D
:100F98007F3020F0FE4018602268936823F4802395
:100FA800936021688B68EA682869024313438B6061
:100FB8002046FFF73BFF2368FF225A6210B901233E
:100FC80084F82130002384F8203070BD23689B68A2
:100FD80013F0400F01D10023EB702B7868780002E2
:100FE80040EA0340AB781843EB7840EA8350CDE7FA
:100FF8000220704790F82030012B4CD070B5044681
:101008000E46012380F82030022380F821303AB9B7
:101018004B7813F0100F03D003F0EF030A334B7033
:1010280022BBF078FFF777FF05047078FFF773FFAE
:1010380045EA0025B078FFF76EFF0543307845EAAA
:1010480040352368CA225A62236853225A622046CE
:10105800FFF7C9FEA8B12368FF225A6210B901231D
:1010680084F82130002384F8203070BDF378757837
:101078002D0245EA0345B0780543307845EA403506
:10108800DFE7236825F07F4525F0C0055D60204631
:10109800FFF7CCFEDFE7022070470000F8B590F8B4
:1010A8002030012B00F0C68004460D46012380F84D
:1010B8002030022380F82130002A50D103689B6831
:1010C80013F0400F01D10023CB702E6A2878FFF768
:1010D80022FF07046878FFF71EFF47EA0027A87871
:1010E800FFF719FF0743E87847EA805795F8240087
:1010F800FFF711FF47EA00673E436B691E436F68BD
:10110800EB691F432368CA225A62236853225A6232
:10111800AB6AB3F5807F3CD02268936823F40073F0
:1011280093602268D368DBB263F42073D36000F065
:10113800CBF805462368DA6812F0020F5AD100F09E
:10114800C3F8401BB0F57A7FF4D92368FF225A62AE
:10115800032084F82100002384F8203069E0036824
:101168009B6813F0400F01D10023CB702B786E7869
:10117800360246EA0346AB781E43EB7846EA8356C6
:1011880095F8243046EA03662B6A1E436B691E43B2
:10119800B5E72268936823F4807393602268D36864
:1011A800DBB263F4C073D36000F08EF805462368A1
:1011B800DA6812F0010F0FD100F086F8401BB0F585
:1011C8007A7FF4D92368FF225A62032084F8210029
:1011D800002384F820302CE0DE6123685F642268F5
:1011E800936843F4807393602268936843F4805350
:1011F80093600CE01E6223689F642268936843F43E
:10120800007393602268936843F4005393600A4B19
:101218001A6842F480221A609A6842F480229A601E
:101228002368FF225A62012384F82130002084F8C1
:101238002000F8BD0220FCE70004014070470000D0
:10124800104B1B780BB90120704710B504464FF4BA
:101258007A70B0FBF3F30C4A1068B0FBF3F001F0BE
:1012680067F968B90F2C01D901200AE0002221464C
:101278004FF0FF3001F016F9044B1C60002000E02D
:10128800012010BD2B010020300100202C0100207E
:1012980010B5032001F0F4F80F20FFF7D1FF10B1CB
:1012A8000124204610BD0446FFF732FCF9E7000090
:1012B800034B1B78034A11680B441360704700BF47
:1012C8002B01002000050020014B1868704700BF63
:1012D8000005002030B583B00446204B9B6D13F009
:1012E800805F0BD001F07CF8B0F5007F17D0802C20
:1012F8001FD82DD0702C2DD000211BE0174DAB6DC1
:1013080043F08053AB65AB6D03F080530193019BB1
:1013180001F066F8AB6D23F08053AB65E4E7802CF1
:1013280003D9A02C03D9022104E0002102E0012105
:1013380000E003210A4A136823F007030B431360F4
:10134800136803F007038B4206D1002003B030BDB9
:101358000221EFE70121EDE70120F7E70010024045
:1013680000200240284A9368D26802F0030213F072
:101378000C030AD00C2B06D0042B1FD0082B20D02E
:101388000020024610E0012AF6D11F4A126812F026
:10139800080F0CD11C4AD2F89420C2F303221B492F
:1013A80051F8222043B100200C2B0DD07047164A6B
:1013B8001268C2F30312F2E71046F5E71448002258
:1013C800F2E714480022EFE70F4BDB6803F0030352
:1013D800022B16D0032B00D10E4A0B49C868C0F364
:1013E8000210431CC868C0F3062002FB00F0B0FBE3
:1013F800F3F0CB68C3F3416301335B00B0FBF3F058
:10140800D4E7034AE9E700BF00100240B8360008F5
:101418000024F40000127A00002800F01C83F0B5C4
:1014280083B00446964B9D6805F00C05DE6806F00F
:101438000306036813F0100F5AD0E5B10C2D18D02D
:10144800A369002B00F0BB808D4A136843F00103A9
:101458001360FFF739FF0746894B1B6813F0020F2B
:1014680040F09A80FFF730FFC01B0228F4D9032010
:10147800FCE2012EE4D1824B1B6813F0020F03D06B
:10148800A369002B00F0E982206A7D4B1B6813F0EA
:10149800080F5BD07A4B1B6803F0F00398425CD8C6
:1014A800774B1A6842F008021A601A6822F0F002B4
:1014B800216A0A431A605A6822F47F42E16942EAC3
:1014C80001225A60002D60D0FFF74CFF6C4B9B68DF
:1014D800C3F303136B4AD35C03F01F03D8406A4B72
:1014E80018606A4B1868FFF7ABFE002840F0BE8210
:1014F800236813F0010F00F08180082D75D00C2DA2
:1015080071D06368B3F5803F00F09780B3F5A02FE2
:1015180000F099805A4B1A6822F480321A601A68CF
:1015280022F480221A606368002B00F09980FFF78C
:10153800CBFE0746524B1B6813F4003F5ED1FFF702
:10154800C3FEC01B6428F5D903208FE24C4BD3F8A7
:1015580094301B0903F0F003A0E7FFF7BBFE002857
:1015680040F07D82464B1A6842F008021A601A68F9
:1015780022F0F002216A0A431A605A6822F47F4274
:10158800E16942EA01225A609EE7206AFFF7A2FE5B
:10159800002899D0012069E2394B1A6842F0080204
:1015A8001A601A6822F0F002216A0A431A605A681F
:1015B80022F47F42E16942EA01225A6098E7304A00
:1015C800136823F001031360FFF77EFE07462C4BD8
:1015D8001B6813F0020F8BD0FFF776FEC01B0228A2
:1015E800F5D9032042E2032E8BD1254B1B6813F457
:1015F800003F03D06368002B00F03382236813F0A8
:10160800020F58D0042D45D00C2D41D0E368002B93
:1016180077D01B4A136843F480731360FFF754FEB6
:101628000646174B1B6813F4806F61D1FFF74CFE19
:10163800801B0228F5D9032018E2114A136843F4E5
:10164800803313606FE703F18043A3F53C331A68D6
:1016580042F480221A601A6842F480321A6062E703
:10166800FFF732FE0746064B1B6813F4003FC5D050
:10167800FFF72AFEC01B6428F5D90320F6E100BF56
:1016880000100240A0360008300100202C01002084
:10169800022EBBD1A44B1B6813F4806F03D0E36800
:1016A800002B00F0E081A04A536823F0FE43216933
:1016B80043EA01635360236813F0080F4CD0636951
:1016C8009BB3994AD2F8943043F00103C2F894309E
:1016D800FFF7FAFD0646944BD3F8943013F0020F47
:1016E8003AD1FFF7F1FD801B0228F4D90320BDE1B0
:1016F8008D4A536823F0FE43216943EA016353602E
:10170800D9E7894A136823F480731360FFF7DCFD77
:101718000646854B1B6813F4806FCCD0FFF7D4FDC9
:10172800801B0228F5D90320A0E17F4AD2F8943023
:1017380023F00103C2F89430FFF7C6FD06467A4B42
:10174800D3F8943013F0020F06D0FFF7BDFD801BCD
:101758000228F4D9032089E1236813F0040F7AD012
:10176800714B9B6D13F0805F36D16F4B9A6D42F0D1
:1017780080529A659B6D03F080530193019B01266B
:101788006A4B1B6813F4807F28D0A368012B39D0DB
:10179800052B3FD0644BD3F8902022F00102C3F808
:1017A8009020D3F8902022F00402C3F89020A36878
:1017B800002B3DD0FFF788FD07465B4BD3F89030F0
:1017C80013F0020F46D1FFF77FFDC01B41F28833AB
:1017D8009842F2D9032049E10026D1E7534A136819
:1017E80043F480731360FFF76FFD07464F4B1B6888
:1017F80013F4807FC9D1FFF767FDC01B0228F5D914
:10180800032033E1484AD2F8903043F00103C2F88C
:101818009030CCE7444BD3F8902042F00402C3F850
:101828009020D3F8902042F00102C3F89020BEE740
:10183800FFF74AFD07463C4BD3F8903013F0020FF0
:1018480008D0FFF741FDC01B41F288339842F2D916
:1018580003200BE1E6B9236813F0200F35D0636A43
:10186800E3B1314AD2F8983043F00103C2F8983016
:10187800FFF72AFD06462C4BD3F8983013F0020FD9
:1018880023D1FFF721FD801B0228F4D90320EDE0C6
:10189800254A936D23F080539365DCE7224AD2F8FA
:1018A800983023F00103C2F89830FFF70DFD064683
:1018B8001D4BD3F8983013F0020F06D0FFF704FD44
:1018C800801B0228F4D90320D0E0A36A002B00F083
:1018D800CC80022B17D00C2D00F0CC80124A136854
:1018E80023F080731360FFF7EFFC04460E4B1B6870
:1018F80013F0007F00F0A880FFF7E6FC001B022829
:10190800F4D90320B2E0084BDB6803F00301E26A74
:1019180091420DD00C2D00F0AB80034B1B6813F0E7
:10192800806F2FD00120A1E000100240007000401D
:1019380003F07002216B0139B2EB011FEAD103F405
:10194800FE42616BB2EB012FE4D103F07842A16B48
:10195800B2EBC16FDED103F4C001E26B5208013A69
:10196800B1EB425FD6D103F0C063226C5208013A52
:10197800B3EB426FCED1404B1B6813F0007F49D0C8
:10198800002073E03C4A136823F080731360FFF76C
:101998009BFC0546384B1B6813F0007F06D0FFF709
:1019A80093FC401B0228F5D903205FE0324AD36834
:1019B80032491940E36A206B013843EA0013606B2F
:1019C80043EA0023E06B4008013843EA4053206CA7
:1019D8004008013843EA4063A06B43EAC0630B4305
:1019E800D360136843F080731360D36843F0807347
:1019F800D360FFF769FC04461F4B1B6813F0007F98
:101A080006D1FFF761FC001B0228F5D903202DE061
:101A180000202BE0184B1A6842F080721A60DA68CE
:101A280042F08072DA60FFF74FFC0446124B1B68E5
:101A380013F0007F06D1FFF747FC031B022BF5D9F3
:101A4800032013E0002011E00B4AD1680C4B0B4037
:101A5800D36000200AE001207047012006E0012041
:101A680004E0012002E0012000E0002003B0F0BD06
:101A78000120FBE70120F9E7001002408C809D015E
:101A8800FCFFEEFE002800F0AF8070B50D4604465E
:101A9800594B1B6803F007038B420BD2564A136855
:101AA80023F007030B431360136803F007038B420B
:101AB80040F09C80236813F0020F0CD0A2684F4BB3
:101AC8009B6803F0F0039A4205D94C498B6823F0D0
:101AD800F0031A438A60236813F0010F39D0636852
:101AE800032B09D0022B26D063BB444A126812F09C
:101AF800020F06D1012076E0404A126812F0007FFA
:101B080076D03E498A6822F0030213438B60FFF7C0
:101B1800DBFB0646394B9B6803F00C036268B3EBAA
:101B2800820F16D0FFF7D0FB801B41F28833984212
:101B3800F0D9032057E0314A126812F4003FE0D18F
:101B4800012050E02D4A126812F4806FD9D101208B
:101B580049E0236813F0020F0CD0A268274B9B685A
:101B680003F0F0039A4205D224498B6823F0F0036E
:101B78001A438A60204B1B6803F00703AB420AD95B
:101B88001D4A136823F007032B431360136803F0FF
:101B98000703AB422ED1236813F0040F06D0174A6F
:101BA800936823F4E063E1680B439360236813F0C0
:101BB800080F07D0114A936823F46053216943EA58
:101BC800C1039360FFF7CEFB0C4B9B68C3F3031371
:101BD8000B4AD35C03F01F03D8400A4B18600A4B2A
:101BE8001868FFF72DFB70BD012070470120FAE748
:101BF8000120F8E70120F6E700200240001002402B
:101C0800A0360008300100202C010020014B186884
:101C1800704700BF3001002008B5FFF7F7FF054BFC
:101C28009B68C3F30223044AD35C03F01F03D84024
:101C380008BD00BF00100240B036000808B5FFF725
:101C4800E5FF054B9B68C3F3C223044AD35C03F04A
:101C58001F03D84008BD00BF00100240B03600087E
:101C6800F8B504460F46584BDB6813F0030F18D03D
:101C7800554BDB6803F003030268934202D0012549
:101C88002846F8BD002A00F09D804F4BDB68C3F35F
:101C9800021301334268934201D00125F0E7002581
:101CA80009E00368022B56D0032B5BD0012B41D0EF
:101CB8000125002DE4D1444A136823F080631360A2
:101CC800FFF702FB0646404B1B6813F0006F05D078
:101CD800FFF7FAFA831B022BF5D90325002DCFD184
:101CE800002F4DD138490B6923F0784323F4FE4384
:101CF800A068E268D20642EA002213430B61324A26
:101D0800136843F080631360FFF7DEFA06462E4B34
:101D18001B6813F0006F05D1FFF7D6FA831B022B5F
:101D2800F5D90325002DABD1274A1369A1690B43C7
:101D38001361A5E7244A126812F0020F1ED0224848
:101D4800C26822F073026168013943EA0113134340
:101D5800C3600025ADE71C4A126812F4806FEED10B
:101D68000125A6E7184A126812F4003FE7D1164A7F
:101D7800126812F4802FE2D101259AE7012598E72D
:101D8800012F0FD01048026922F0C06222F4FE42EF
:101D9800A16863695B08013B5B0643EA01231343BF
:101DA8000361ACE70848026922F4C00222F4FE424B
:101DB800A16823695B08013B5B0543EA01231343E0
:101DC80003619CE701255BE7001002402DE9F04123
:101DD80082B00446036813F4006F25D0C36CB3F5D2
:101DE800000F06D0B3F5400F12D04BB1012637468D
:101DF8001CE0444AD36843F48033D360002708E0EA
:101E080000210430FFF72CFF074610B106460DE00D
:101E180000273C4AD2F8883023F44003E16C0B4396
:101E2800C2F88830002601E000263746236813F4FC
:101E3800003F70D0334B9B6D13F0805F4CD1314B1A
:101E48009A6D42F080529A659B6D03F0805301931E
:101E5800019B4FF001082C4A136843F48073136008
:101E6800FFF732FA0546284B1B6813F4807F05D12B
:101E7800FFF72AFA401B0228F5D90327002F45D17E
:101E8800204BD3F8903013F4407315D0626E9A4209
:101E980012D01C4AD2F8903023F44073D2F8901034
:101EA80041F48031C2F89010D2F8901021F48031BA
:101EB800C2F89010C2F8903013F0010F0FD1002F24
:101EC80040F016810F4AD2F8903023F44073616EC7
:101ED8000B43C2F890301AE04FF00008BBE7FFF759
:101EE800F3F90546074BD3F8903013F0020FE6D10B
:101EF800FFF7EAF9401B41F288339842F2D90327E9
:101F0800DDE700BF00100240007000403E46B8F117
:101F1800000F40F0EF80236813F0010F08D0904ABB
:101F2800D2F8883023F00303216A0B43C2F88830C3
:101F3800236813F0020F08D0894AD2F8883023F0BA
:101F48000C03616A0B43C2F88830236813F0040F4E
:101F580008D0834AD2F8883023F03003A16A0B43B3
:101F6800C2F88830236813F0080F08D07C4AD2F8EA
:101F7800883023F0C003E16A0B43C2F88830236835
:101F880013F0200F08D0764AD2F8883023F4406343
:101F9800216B0B43C2F88830236813F4007F08D004
:101FA8006F4AD2F8883023F44023616C0B43C2F89F
:101FB8008830236813F4806F08D0694AD2F88830D3
:101FC80023F44013A16C0B43C2F88830236813F044
:101FD800400F08D0624AD2F8883023F44053616B2E
:101FE8000B43C2F88830236813F0800F08D05C4A8E
:101FF800D2F8883023F44043A16B0B43C2F88830F1
:10200800236813F4807F08D0554AD2F8883023F427
:102018004033E16B0B43C2F88830236813F4801F08
:1020280008D04F4AD2F89C3023F00303216C0B43AD
:10203800C2F89C30236813F4005F0FD0484AD2F8E6
:10204800883023F04063216D0B43C2F88830236D3C
:10205800B3F1006F54D0B3F1806F56D0236813F4F6
:10206800002F0FD03E4AD2F8883023F04063616DCC
:102078000B43C2F88830636DB3F1006F4DD0B3F1F4
:10208800806F4FD0236813F4802F0FD0344AD2F8D2
:10209800883023F04063A16D0B43C2F88830A36DEC
:1020A800B3F1006F46D0B3F1806F48D0236813F4C2
:1020B800804F0CD02A4AD2F8883023F04053E16D83
:1020C8000B43C2F88830E36DB3F1805F3FD02368DB
:1020D80013F4803F08D0224AD2F8883023F0004316
:1020E800216E0B43C2F88830304602B0BDE8F0815B
:1020F8003E460CE71A4A936D23F0805393650AE72E
:10210800D36843F48013D360A8E70121201DFFF7AB
:10211800A7FD0028A2D00646A0E7D36843F48013A1
:10212800D360AFE70121201DFFF79AFD0028A9D051
:102138000646A7E7D36843F48013D360B6E70121C6
:10214800201DFFF78DFD0028B0D00646AEE702211E
:10215800201DFFF785FD0028B9D00646B7E700BF68
:1021680000100240F0B583B0002362E085685E008D
:102178000324B44025EA0405CC68B4402C438460A9
:10218800446824EA0C0C4C68C4F300149C4044EAEC
:102198000C0444605EE0DD08083550F8256003F063
:1021A80007044FEA840C0F2404FA0CF426EA040E00
:1021B8000C6904FA0CF444EA0E0440F8254060E087
:1021C800042400E0002404FA0EF42C430CF1020C61
:1021D800524D45F82C40524CA568D44325EA0206D6
:1021E8004F6817F4801F01D042EA05064C4DAE60D7
:1021F800ED6804EA05064F6817F4001F01D042EAAB
:102208000506474DEE606D6804EA05064F6817F449
:10221800003F01D042EA0506414D6E602D682C4012
:102228004E6816F4803F01D042EA05043C4A146027
:1022380001330A6832FA03F46ED04FF0010C0CFA3D
:1022480003FC1CEA0202F3D04C6804F00304013CCE
:10225800012C8BD94C6804F00304032C0CD0C468FF
:102268005D004FF0030C0CFA05FC24EA0C0C8C689A
:10227800AC4044EA0C04C4604C6804F00304022C2B
:1022880089D004684FEA430E4FF0030C0CFA0EFC99
:1022980024EA0C0C4C6804F0030404FA0EF444EA33
:1022A8000C0404604C6814F4403FC1D01D4C256EEA
:1022B80045F001052566246E04F001040194019C93
:1022C8004FEA930C0CF10205144C54F8255003F016
:1022D80003044FEA840E0F2404FA0EF425EA0405D9
:1022E800B0F1904F3FF46EAF0F4CA0420ED004F502
:1022F8008064A0420CD004F58064A0420AD004F5A2
:102308008064A0423FF45CAF07245CE701245AE7ED
:10231800022458E7032456E703B0F0BD000001404B
:102328000004014000100240000400480AB1816125
:1023380070478162704790F82530DBB2022B06D0D7
:102348000423C363002380F8243001207047026807
:10235800136823F00E0313600268136823F0010367
:102368001360436C03F01C03016C012202FA03F3AF
:102378004B6080F82520002380F8243018467047E9
:1023880008B590F82530DBB2022B03D00423C363D1
:10239800012008BD0268136823F00E031360026869
:1023A800136823F001031360436C03F01C03016CF2
:1023B800012202FA03F34B6080F82520002380F8FD
:1023C8002430836B13B198470020E2E70020E0E750
:1023D800024A136843F4807313607047007000402A
:1023E800024B186800F4C060704700BF00700040DE
:1023F800B0F5007F0FD01F4B1B6803F4C063B3F523
:10240800806F34D01B4A136823F4C06343F480639D
:10241800136000207047174B1B6803F4C063B3F5C3
:10242800007F20D0134A136823F4C06343F4007379
:102438001360114B1B68322202FB03F30F4AA2FB05
:1024480003239B0C013300E0013B0A4A526912F452
:10245800806F01D0002BF7D1064B5B6913F4806FB6
:1024680003D10020704700207047032070470020E8
:10247800704700BF007000403001002083DE1B431E
:10248800074AD36823F4E0631B041B0C000200F422
:10249800E060034343F0BF6343F40033D360704705
:1024A80000ED00E000B5194BDB68C3F30223C3F16C
:1024B800070CBCF1040F28BF4FF0040C03F1040E05
:1024C800BEF1060F18D9033B4FF0FF3E0EFA0CFC85
:1024D80021EA0C0199400EFA03F322EA0303194397
:1024E80000280BDB0901C9B200F1604000F561402A
:1024F80080F800135DF804FB0023E5E700F00F0007
:102508000901C9B2024B1954F4E700BF00ED00E01D
:1025180014ED00E0002807DB00F01F02400901234A
:102528009340024A42F82030704700BF00E100E0C3
:102538000138B0F1807F0BD24FF0E0235861054A93
:10254800F02182F823100020986107221A61704751
:102558000120704700ED00E010B4036A046A24F01B
:1025680001040462846924F0F00C4CEA021223F09E
:102578000A030B43826103625DF8044B704710B491
:10258800046A24F0100404628469036A24F4704C19
:102598004CEA023223F0A00343EA0113826103628A
:1025A8005DF8044B7047836823F070030B4343F0D6
:1025B800070383607047000090F83D30DBB2012BC1
:1025C8002AD1022380F83D300268D36843F0010322
:1025D800D3600368134A934210D0B3F1804F0DD0F3
:1025E800A2F59432934209D002F59E32934205D067
:1025F8001A6842F001021A600020704799680A4A76
:102608000A40062A0AD0B2F5803F09D01A6842F07B
:1026180001021A60002070470120704700207047AF
:1026280000207047002C01400700010070477047E8
:102638007047704710B5044603681A6912F0020F14
:1026480011D0DA6812F0020F0DD06FF002021A6191
:102658000123037703689B6913F0030F79D0FFF711
:10266800E6FF0023237723681A6912F0040F12D0BB
:10267800DA6812F0040F0ED06FF004021A61022318
:10268800237723689B6913F4407F68D02046FFF7BF
:10269800CEFF0023237723681A6912F0080F12D09F
:1026A800DA6812F0080F0ED06FF008021A610423DE
:1026B80023772368DB6913F0030F57D02046FFF711
:1026C800B6FF0023237723681A6912F0100F12D07F
:1026D800DA6812F0100F0ED06FF010021A6108239A
:1026E80023772368DB6913F4407F46D02046FFF741
:1026F8009EFF0023237723681A6912F0010F03D085
:10270800DA6812F0010F3FD123681A6912F0800FBE
:1027180003D0DA6812F0800F3DD123681A6912F4E9
:10272800807F03D0DA6812F0800F3BD123681A69E2
:1027380012F0400F03D0DA6812F0400F39D1236845
:102748001A6912F0200F03D0DA6812F0200F37D17F
:1027580010BDFFF76BFF2046FFF76AFF81E72046B1
:10276800FFF764FF2046FFF763FF92E72046FFF775
:102778005DFF2046FFF75CFFA3E72046FFF756FF03
:102788002046FFF755FFB4E76FF001021A612046B3
:10279800FDF7FEFEB8E76FF080021A61204600F0F0
:1027A80052F9BAE76FF480721A61204600F04CF9CA
:1027B800BCE76FF040021A612046FFF73AFFBEE718
:1027C8006FF020021A61204600F03CF9C0E70000D3
:1027D80003681E4A904206D0B0F1804F03D0A2F59C
:1027E8009432904203D123F070034A681343174A86
:1027F80090420ED0B0F1804F0BD0A2F594329042A7
:1028080007D002F59E32904203D002F580629042D2
:1028180003D123F44073CA68134323F080034A6941
:10282800134303608B68C3620B688362074B98424B
:1028380007D003F5A053984203D003F5806398426C
:1028480001D10B690363012343617047002C0140E8
:1028580060B310B5044690F83D3013B3022384F8F2
:102868003D30214651F8040BFFF7B2FF012384F8ED
:10287800483084F83E3084F83F3084F8403084F89B
:10288800413084F8423084F8433084F8443084F886
:10289800453084F8463084F8473084F83D300020CD
:1028A80010BD80F83C30FEF77BF9D7E70120704770
:1028B80010B4846824F47F4C42EA03220A4342EAB3
:1028C8000C0282605DF8044B7047000090F83C30C1
:1028D800012B76D010B50446012380F83C30022342
:1028E80080F83D3002689068374B034093600B686E
:1028F800602B4CD029D8402B54D00CD9502B22D146
:10290800CA6849682068FFF727FE50212068FFF74A
:102918004AFE002005E0202B0DD009D9302B0AD023
:102928000120012384F83D30002384F83C3010BD99
:102938000BB1102B05D119462068FFF734FE002093
:10294800EFE70120EDE70120EBE7B3F5805F34D036
:10295800B3F5005F0CD1CB684A6889682068FFF737
:10296800A7FF2268936843F4804393600020D8E768
:10297800702B24D1CB684A6889682068FFF798FFD4
:102988002268936843F0770393600020C9E7CA6818
:1029980049682068FFF7F3FD60212068FFF703FE10
:1029A8000020BEE7CA6849682068FFF7D5FD4021C6
:1029B8002068FFF7F8FD0020B3E70020B1E7012009
:1029C800AFE70220704700BF8800FEFF90F83C3058
:1029D800012B33D030B4012380F83C30022380F837
:1029E8003D30026853689468154DAA4221D023F0FF
:1029F80070030D682B4353600368114A93420AD051
:102A0800B3F1804F07D0A2F59432934203D002F578
:102A18009E32934204D124F080048A6814439C6057
:102A2800012380F83D30002380F83C30184630BC44
:102A3800704723F470034D682B43D8E70220704792
:102A4800002C0140704770477047026852E8003F09
:102A580023F4907342E800310029F6D1026802F1AC
:102A6800080353E8003F23F00103083242E800312D
:102A78000029F3D1036E012B05D02023C36700235F
:102A8800036643667047026852E8003F23F010036C
:102A980042E800310029F6D1EFE7704708B502682F
:102AA80052E8003F23F0400342E800310029F6D104
:102AB8002023836700238366FFF7EFFF08BD704775
:102AC800704708B5806A0023A0F85A30A0F8523041
:102AD800FFF7F6FF08BD704770B504460168CB697B
:102AE80008688D6840F60F021A4005D113F0200FD0
:102AF80002D010F0200F20D12AB115F0010222D106
:102B0800AC4E30421FD1226E012A00F0AB8013F484
:102B1800801F03D015F4800F40F0398113F0800F27
:102B280003D010F0800F40F0398113F0400F03D02C
:102B380010F0400F40F0398170BD636E002BFBD060
:102B480020469847F8E713F0010F09D010F4807F6A
:102B580006D001250D62D4F880102943C4F88010EE
:102B680013F0020F09D042B1216802250D62D4F892
:102B7800801041F00401C4F8801013F0040F09D04C
:102B880042B1216804250D62D4F8801041F0020199
:102B9800C4F8801013F0080F0BD010F0200F00D1EC
:102BA8003AB1226808211162D4F880200A43C4F897
:102BB800802013F4006F0CD010F0806F09D02268C9
:102BC8004FF400611162D4F8802042F02002C4F86A
:102BD8008020D4F88020002AAED013F0200F06D031
:102BE80010F0200F03D0636E0BB120469847D4F83D
:102BF800802023689B6813F0400F02D112F0280F41
:102C080029D02046FFF721FF23689B6813F0400F67
:102C18001DD0226802F1080353E8003F23F0400367
:102C2800083242E800310029F3D1236F5BB1624AD0
:102C38009A63206FFFF7A4FB00283FF47DAF206F55
:102C4800836B984778E72046FFF73AFF74E72046FA
:102C5800FFF736FF70E72046FFF732FF0023C4F87E
:102C6800803069E713F0100F3FF451AF10F0100FE8
:102C78003FF44DAF10230B6223689B6813F0400F9D
:102C88004ED0226F13685B689BB2002B3FF454AFA1
:102C9800B4F8581099427FF64FAFA4F85A30136829
:102CA8001B6813F0200F30D1226852E8003F23F44C
:102CB800807342E800310029F6D1226802F1080346
:102CC80053E8003F23F00103083242E800310029AD
:102CD800F3D1226802F1080353E8003F23F04003D0
:102CE800083242E800310029F3D12023E3670023AA
:102CF8002366226852E8003F23F0100342E80031BF
:102D08000029F6D1206FFFF716FBB4F85810B4F875
:102D18005A309BB2C91A89B22046FFF7DCFE0BE78E
:102D2800B4F85810B4F85A309BB2C91A89B2B4F83A
:102D38005A309BB2002B3FF4FFAE00293FF4FCAEA3
:102D4800226852E8003F23F4907342E800300028DC
:102D5800F6D1226802F1080353E8003F23F001038B
:102D6800083242E800300028F3D12023E36700232B
:102D780023666366226852E8003F23F0100342E8A6
:102D880000300028F6D12046FFF7A5FED4E64FF420
:102D980080130B62204600F003FCCDE6A36E002BE7
:102DA8003FF4CAAE20469847C6E62046FFF776FEAF
:102DB800C2E600BF20010004CB2A000808B5B0F81D
:102DC8005C30C26F222A06D00268138B9BB243F094
:102DD8000803138308BD0268918CDBB2426D0B4077
:102DE8001370436D01334365B0F85A309BB2013B11
:102DF8009BB2A0F85A30B0F85A309BB2002BE9D1F8
:102E0800026852E8003F23F4907342E80031002939
:102E1800F6D1026802F1080353E8003F23F00103EA
:102E2800083242E800310029F3D12023C367002388
:102E38004366036E012B16D100230366026852E82D
:102E4800003F23F0100342E800310029F6D103685F
:102E5800DA6912F0100F01D010221A62B0F8581077
:102E6800FFF739FEB6E7FFF72AFEB3E708B5B0F873
:102E78005C30C26F222A06D00268138B9BB243F0E3
:102E88000803138308BD0268918C426D0B401380C0
:102E9800436D02334365B0F85A309BB2013B9BB295
:102EA800A0F85A30B0F85A309BB2002BEAD1026829
:102EB80052E8003F23F4907342E800310029F6D12C
:102EC800026802F1080353E8003F23F001030832C7
:102ED80042E800310029F3D12023C3670023436669
:102EE800036E012B16D100230366026852E8003FE7
:102EF80023F0100342E800310029F6D10368DA69AB
:102F080012F0100F01D010221A62B0F85810FFF713
:102F1800E2FDB7E7FFF7D3FDB4E7000010B50446BC
:102F2800016883680269134342691343C269134302
:102F380008688F4A024013430B602268536823F4E1
:102F48004053E1680B435360A1692268894B9A4258
:102F580001D0236A1943936823F430630B439360C9
:102F68002368854A934223D0844A934234D0844AC2
:102F780093424AD0834A934259D07E4A934268D0BA
:102F880010227C498B4200F09580E069B0F5004F33
:102F980000F0C180082A00F22A81DFE812F0F90067
:102FA8000F01E70028011201280128012801150155
:102FB80002F55842D2F8882002F00302032A09D801
:102FC800DFE802F002045C060122DAE70422D8E70F
:102FD8000822D6E71022D4E702F5E632D2F8882094
:102FE80002F00C020C2A0ED8DFE802F0070D0D0DD6
:102FF800090D0D0D4A0D0D0D0B000022C1E704222D
:10300800BFE70822BDE71022BBE702F5E432D2F899
:10301800882002F03002202A34D004D8A2B3102A23
:1030280034D10422ADE7302A32D10822A9E702F5CB
:10303800E232D2F8882002F0C002802A2AD004D8CE
:1030480052B3402A2AD104229BE7C02A28D1082259
:1030580097E702F5C832D2F8882002F44062B2F548
:10306800006F1FD005D8FAB1B2F5806F1ED10422C7
:1030780087E7B2F5406F1BD1082282E7022280E77A
:1030880002227EE702227CE700227AE7102278E714
:10309800102276E7022274E7002272E7102270E716
:1030A80010226EE702226CE700226AE7102268E726
:1030B800102266E7082A00F28A80DFE802F0088812
:1030C8002A882788888805004FF4004003E0FEF727
:1030D800A3FD00287DD0626802EB420383427AD8C0
:1030E800B0EB023F79D8010E00025308C0184FF028
:1030F800000341F10001FDF773F8A0F54072224B7F
:103108009A426CD82368D860002053E0FEF72AF969
:10311800DFE71E48DFE7082A63D8DFE802F0072167
:103128000562246262620B00184803E0FEF774FD32
:10313800002858D06268530803EB4000B0FBF2F057
:10314800A0F110024FF6EF739A424ED883B223F0E3
:103158000F03C0F3420018432368D860002029E019
:10316800FEF76CFDE4E7FEF7FDF8E1E7074812E03B
:10317800F369FFEF00800040003801400044004040
:1031880000480040004C0040FFFC0F000024F40001
:10319800FEF742FD68B3636800EB5300B0FBF3F041
:1031A800A0F110024FF6EF739A4224D8236880B238
:1031B800D860002000236366A36610BDFEF73EFDBD
:1031C800E8E7FEF7CFF8E5E74FF40040E3E7012032
:1031D800F0E70020EEE70120ECE70120EAE7012014
:1031E800E8E70120E6E70020E4E70120E2E7012024
:1031F800E0E70020DEE70120DCE700BF436A13F0C8
:10320800010F06D00268536823F40033816A0B4328
:103218005360436A13F0020F06D00268536823F420
:103228008033C16A0B435360436A13F0040F06D01E
:103238000268536823F48023016B0B435360436A8D
:1032480013F0080F06D00268536823F40043416B5B
:103258000B435360436A13F0100F06D0026893685B
:1032680023F48053816B0B439360436A13F0200F60
:1032780006D00268936823F40053C16B0B43936034
:10328800436A13F0400F0AD00268536823F480138E
:10329800016C0B435360036CB3F5801F0BD0436A7A
:1032A80013F0800F06D00268536823F40023816C62
:1032B8000B43536070470268536823F4C003416CA2
:1032C8000B435360EBE72DE9F84305460F461646D6
:1032D8009946DDF820802C68E46937EA04030CBFBE
:1032E8004FF0010C4FF0000CB44553D1B8F1FF3F3B
:1032F800F1D0FDF7E9FFA0EB090040452DD8B8F162
:10330800000F2AD02B681A6812F0040FE3D0DA698C
:1033180012F4006FDFD04FF400621A622A6852E894
:10332800003F23F4D07342E800310029F6D12A681F
:1033380002F1080353E8003F23F00103083242E892
:1033480000310029F3D12023AB67EB67C5F8803043
:10335800002385F8743003201DE02A6852E8003FF6
:1033680023F4D07342E800310029F6D12A6802F12B
:10337800080353E8003F23F00103083242E8003114
:103388000029F3D12023AB67EB67002385F874305D
:10339800032000E00020BDE8F88330B583B0044680
:1033A8000023C0F88030FDF78FFF054622681268B9
:1033B80012F0080F0DD123681B6813F0040F16D103
:1033C8002023A367E3670020206684F8740003B015
:1033D80030BD6FF07E430093034600224FF4001186
:1033E8002046FFF770FF0028E5D00320EFE76FF0D5
:1033F8007E4300932B4600224FF480012046FFF7BE
:1034080062FF0028DCD00320E1E768B310B504466A
:10341800836F03B32423A3672268136823F001038F
:1034280013602046FFF77AFD012813D0636ABBB901
:103438002268536823F4904353602268936823F00A
:103448002A0393602268136843F00103136020463F
:10345800FFF7A3FF10BD80F87430FDF7BFFBD9E775
:103468002046FFF7CBFEE3E7012070474165A0F84F
:103478005820A0F85A20002343668368B3F5805F7C
:1034880006D0A3B9036973B9FF23A0F85C3014E030
:10349800036923B940F2FF13A0F85C300DE0FF2365
:1034A800A0F85C3009E07F23A0F85C3005E0B3F1B8
:1034B800805F29D00023A0F85C300023C0F880305A
:1034C8002223C367026802F1080353E8003F43F070
:1034D8000103083242E800310029F3D18368B3F5CB
:1034E800805F1BD0154B4366002380F87430036956
:1034F800D3B1026852E8003F43F4907342E80031C8
:103508000029F6D10020704703691BB97F23A0F872
:103518005C30D2E73F23A0F85C30CEE70369002B8C
:10352800E0D1074B4366DFE7026852E8003F43F00B
:10353800200342E800310029F6D1E3E7C52D000851
:10354800752E000838B5C36F202B1ED1F9B102B310
:1035580090F87430012B1ED0012380F874300023BA
:10356800036603680D4CA3420CD05B6813F4000F8C
:1035780008D0046854E8003F43F0806344E800350D
:10358800002DF6D1FFF772FF00E0022038BD0120C0
:10359800FCE70120FAE70220F8E700BF00800040BE
:1035A80070470000034AD2F8883043F47003C2F829
:1035B8008830704700ED00E0DFF834D0FFF7F2FF05
:1035C8000C480D490D4A002302E0D458C450043376
:1035D800C4188C42F9D30A4A0A4C002301E013604C
:1035E8000432A242FBD300F011F8FDF713F9FEE70D
:1035F8000080022000000020380100200037000869
:103608003801002004050020FEE7000070B50D4DCC
:103618000D4C641BA4100026A64209D10B4D0C4C7E
:1036280000F02EF8641BA4100026A64205D170BD38
:1036380055F8043B98470136EEE755F8043B9847A0
:103648000136F2E7F0360008F0360008F0360008D8
:10365800F43600080A44914200F1FF3300D1704764
:1036680010B511F8014B03F8014F9142F9D110BD83
:1036780002440346934200D1704703F8011BF9E75F
:10368800F8B500BFF8BC08BC9E467047F8B500BF47
:08369800F8BC08BC9E46704717
:1036A00000000000000000000102030406070809F2
:1036B0000000000001020304A0860100400D030089
:1036C000801A060000350C0040420F0080841E0066
:1036D00000093D0000127A000024F40000366E015B
:0836E0000048E801006CDC0267
:0836E80030CBFF7F0100000060
:0836F000BD010008000000000C
:0836F800990100080000000028
:103700003131372E362E3136332E313737340000F3
:10371000373537370000000041542B43474154549C
:103720003F0D0A0041542B4349504F5051554552CB
:10373000593F0D0A0000000041542B435245473FBA
:103740000D0A000041542B4950414444520D0A00D7
:1037500041540D0A0000000041542B4E45544F5077
:10376000454E0D0A0000000041542B4350494E3F86
:103770000D0A000041542B4353510D0A0000000074
:1037800041542B434950434C4F53453D31000000B9
:1037900041542B4E4554434C4F534500222C0000BE
:1037A0002C300D0A0000000041542B4349504F506B
:1037B000454E3D312C22544350222C220000000063
:1037C00041542B43434C4B3F0D0A000041542B43C3
:1037D000495053454E443D312C2C2C2C0000000008
:1037E00041542B43495052584745543D302C310DDC
:1037F0000A00000041542B43495054494D454F5550
:10380000543D33303030302C32303030302C343086
:103810003030302C35303030300D0A0041542B43DD
:1038200049504D4F44453D300D0A00011000000045
:0838300000093D00000000004A
:04000005080035C1F9
:00000001FF
