:020000040800F2
:10000000302000207D02000865350008933200088A
:1000100061350008650D0008FD4300080000000080
:100020000000000000000000000000006938000827
:10003000690D000800000000693500086B380008F1
:10004000970200089702000897020008970200082C
:10005000970200089702000897020008970200081C
:10006000970200089702000897020008970200080C
:1000700097020008970200089702000897020008FC
:1000800097020008970200089702000897020008EC
:1000900097020008970200089702000897020008DC
:1000A00097020008970200089702000897020008CC
:1000B0001D390008970200080000000097020008A0
:1000C00097020008970200089702000897020008AC
:1000D00097020008DD43000897020008ED4300087E
:1000E000970200089137000800000000000000009F
:1000F0000000000000000000000000000000000000
:1001000000000000970200080000000097020008AD
:10011000970200080000000097020008000000009D
:10012000970200089702000897020008970200084B
:1001300097020008970200089702000800000000DC
:10014000970200089702000897020008970200082B
:10015000970200089702000897020008970200081B
:1001600097020008970200089702000800000000AC
:1001700000000000970200080000000000000000DE
:1001800097020008970200089702000897020008EB
:100190009702000800F002F800F060F80AA090E86A
:1001A000000C82448344AAF10107DA4501D100F032
:1001B00055F8AFF2090EBAE80F0013F0010F18BF9F
:1001C000FB1A43F001031847704E0000904E0000E8
:1001D00010F8013B0A4413F0030408BF10F8014B68
:1001E0001D1108BF10F8015B641E05D010F8016BEB
:1001F000641E01F8016BF9D1002D15D010F8014BE8
:1002000003F00C030C2BA1EB04040ABF10F8013B14
:10021000A4EB8314A4EB032405F1010314F8016B90
:100220005B1E01F8016BF9D5914238BF10F8013B14
:10023000D1D370470023002400250026103A28BFA0
:1002400078C1FBD8520728BF30C148BF0B60704748
:100250001FB504F0C7FE1FBD10B510BD00F0A5F915
:100260001146FFF7F5FF04F02DFC00F0C3F903B4CD
:10027000FFF7F2FF03BC00F0CBF90000094880470C
:1002800009480047FEE7FEE7FEE7FEE7FEE7FEE778
:10029000FEE7FEE7FEE7FEE704480549054A064B90
:1002A000704700000939000895010008301A002045
:1002B00030200020301C0020301C002053EA020CAB
:1002C00000F069802DE9F04B4FF00006002B1FBFB6
:1002D000B3FA83F503FA05F424FA05F65E4012BF7B
:1002E0001643B2FA82F502FA05F4C5F120051EBFE5
:1002F00022FA05FC44EA0C04203556EA044C4FEA85
:10030000144418BF641C4FF000084FF000099042DD
:1003100071EB030C39D3002919BFB1FA81F701FA47
:1003200007F6B0FA80F700FA07F6C7F120071EBFFC
:1003300020FA07FC46EA0C062037B6FBF4FCA7EBD4
:100340000507103F07F01F0BCBF120060CFA0BFB43
:100350002CFA06F644BFB3460026202FA4BF5E4603
:100360004FF0000B5BEA060C08BF4FF0010B19EBD6
:100370000B09ABFB027C48EB0608C01B06FB02CC5A
:100380000BFB03CC71EB0C01C1E70B460246414667
:100390004846BDE8F08B13B54FF000004FF0000168
:1003A000AFF30080BDE81C40704710B5431C02E06D
:1003B00010F8011B71B18107FAD14FF0013202C868
:1003C0008C1A8C4314EAC211F9D0C01A0A0603D061
:1003D000C01E10BDC01A10BD0A0401D0801E10BD81
:1003E0000902FCD0401E10BD032A40F2308010F0FC
:1003F000030C00F0158011F8013BBCF1020F6244C0
:1004000098BF11F801CB00F8013B38BF11F8013B50
:10041000A2F1040298BF00F801CB38BF00F8013BFD
:1004200011F0030300F02580083AC0F0088051F86D
:10043000043B083A51F804CBA0E80810F5E7121D78
:100440005CBF51F8043B40F8043BAFF30080D20797
:1004500024BF11F8013B11F801CB48BF11F8012B63
:1004600024BF00F8013B00F801CB48BF00F8012B86
:10047000704710B5203AC0F00B80B1E81850203A10
:10048000A0E81850B1E81850A0E81850BFF4F5AF34
:100490005FEA027C24BFB1E81850A0E8185044BFBE
:1004A00018C918C0BDE810405FEA827C24BF51F82B
:1004B000043B40F8043B08BF7047D20728BF31F81F
:1004C000023B48BF11F8012B28BF20F8023B48BF70
:1004D00000F8012B70474FF0000200B51346944618
:1004E0009646203922BFA0E80C50A0E80C50B1F18C
:1004F0002001BFF4F7AF090728BFA0E80C5048BFA0
:100500000CC05DF804EB890028BF40F8042B08BF3D
:10051000704748BF20F8022B11F0804F18BF00F839
:10052000012B70474FF0013C50F8042B51F8043B6D
:100530009A4221D1A2EB0C03934313EACC1317D1B7
:1005400050F8042B51F8043B9A4215D1A2EB0C034E
:10055000934313EACC130BD150F8042B51F8043B0E
:100560009A4209D1A2EB0C03934313EACC13DBD0DC
:100570004FF00000704700BFD01A01BAB1FA81F104
:1005800001F0180122FA01F0CB40C1F12001DBB2E9
:10059000C0B2C01A2CFA01F3D11A914311EAC31167
:1005A000E6D17047704770477047754600F02CF8E9
:1005B000AE4605006946534620F00700854618B050
:1005C00020B5FFF769FEBDE820404FF000064FF070
:1005D00000074FF000084FF0000B21F00701AC4678
:1005E000ACE8C009ACE8C009ACE8C009ACE8C00997
:1005F0008D46704710B50446AFF300802046BDE835
:100600001040FFF734BE000000487047CC190020AE
:1006100001491820ABBEFEE726000200704700002B
:100620002DE9F04104460D46FE48FFF7BEFE0646A2
:100630003246FC49FC48FFF7D7FEFC48FFF7B5FE01
:1006400006463246F949F8483230FFF7CDFEF84801
:10065000FFF7ABFE06463246F549F3486430FFF734
:10066000C3FEF448FFF7A1FE06463246F149EE48C4
:100670009630FFF7B9FE0120EB49C1F8C800EE48FB
:10068000FFF793FE06463246EB49EC48FFF7ACFE17
:10069000EB48FFF78AFE06463246E949E748323022
:1006A000FFF7A2FEE748FFF780FE06463246E5491F
:1006B000E2486430FFF798FEE348FFF776FE06460F
:1006C0003246E149DD489630FFF78EFE0220DB49D5
:1006D000C1F8C800DD48FFF768FE06463246DB4930
:1006E000DB48FFF781FEDB48FFF75FFE0646324638
:1006F000D849D7483230FFF777FED748FFF755FE85
:1007000006463246D449D2486430FFF76DFED348DE
:10071000FFF74BFE06463246D049CD489630FFF7EC
:1007200063FE0220CA49C1F8C800CD48FFF73DFE6C
:1007300006463246CA49CB48FFF756FECA48FFF77D
:1007400034FE06463246C849C6483230FFF74CFEF2
:10075000C648FFF72AFE06463246C449C1486430FF
:10076000FFF742FEC248FFF720FE06463246C04968
:10077000BC489630FFF738FE0220BA49C1F8C800DD
:10078000BC48FFF712FE06463246BA49BA48FFF7A0
:100790002BFEBA48FFF709FE06463246B749B6486F
:1007A0003230FFF721FEB648FFF7FFFD064632461E
:1007B000B349B1486430FFF717FEB248FFF7F5FDC3
:1007C00006463246AF49AC489630FFF70DFE022090
:1007D000A949C1F8C800AC48FFF7E7FD0646324614
:1007E000A949AA48FFF700FEA948FFF7DEFD064623
:1007F0003246A749A5483230FFF7F6FDA548FFF776
:10080000D4FD06463246A349A0486430FFF7ECFD0C
:10081000A148FFF7CAFD064632469F499B489630DD
:10082000FFF7E2FD01209949C1F8C8009B48FFF796
:10083000BCFD0646324699499948FFF7D5FD9948CF
:10084000FFF7B3FD06463246964995483230FFF72A
:10085000CBFD9548FFF7A9FD0646324692499048E0
:100860006430FFF7C1FD9148FFF79FFD0646324611
:100870008E498B489630FFF7B7FD01208849C1F8B3
:10088000C8008B48FFF791FD0646324688498948E3
:10089000FFF7AAFD8848FFF788FD064632468649DD
:1008A00084483230FFF7A0FD8448FFF77EFD0646FE
:1008B000324682497F486430FFF796FD8048FFF753
:1008C00074FD064632467E497A489630FFF78CFD25
:1008D00002207849C1F8C8007A48FFF766FD06464D
:1008E000324678497848FFF77FFD7848FFF75DFD8D
:1008F00006463246754974483230FFF775FD744834
:10090000FFF753FD0646324671496F486430FFF7E2
:100910006BFD7048FFF749FD064632466D496A484F
:100920009630FFF761FD02206749C1F8C8006A48A8
:10093000FFF73BFD0646324667496848FFF754FD1E
:100940006748FFF732FD0646324665496348323054
:10095000FFF74AFD6348FFF728FD06463246614926
:100960005E486430FFF740FD5F48FFF71EFD064616
:1009700032465D4959489630FFF736FD0120574908
:10098000C1F8C8005948FFF710FD064632465749DE
:100990005748FFF729FD5748FFF707FD064632463F
:1009A000544953483230FFF71FFD5348FFF7FDFC11
:1009B0000646324650494E486430FFF715FD4F4811
:1009C000FFF7F3FC064632464C4949489630FFF79C
:1009D0000BFD01204649C1F8C8004948FFF7E5FC76
:1009E0000646324646494748FFF7FEFC0220454985
:1009F000C1F8C8002046FFF7D8FC0646324621461B
:100A00004148FFF7F1FC2846FFF7CFFC0646324687
:100A100029463E48FFF7E8FC3D48FFF7C6FC06467E
:100A2000324677E0780000206C0700207D0000202F
:100A300093000020A8000020BA0000203808002001
:100A4000C5000020D4000020E6000020F5000020B2
:100A500004090020FE0000201001002025010020D4
:100A600037010020D009002042010020570100205A
:100A70006F010020840100209C0A002090010020CA
:100A8000A0010020B3010020C3010020680B00205A
:100A9000EB010020FD0100201102002022020020B5
:100AA000340C0020310200204902002063020020A3
:100AB0007A020020000D0020870200209B02002007
:100AC000B2020020C6020020CC0D0020D20200207D
:100AD000E0020020F1020020FF020020980E00201A
:100AE00011030020280300204103002057030020A9
:100AF0003010002068030020820300209F030020A4
:100B0000B5030020640F0020721900208619002010
:100B1000C003002079497A48FFF766FC7948FFF75F
:100B200044FC07467648FFF740FC754946183A46AC
:100B300074493046FFF758FC7348FFF736FC074608
:100B40006F48FFF732FC6E4946183A466E49304608
:100B5000FFF74AFC6D48FFF728FC07466848FFF797
:100B600024FC674946183A4668493046FFF73CFC82
:100B70006748FFF71AFC07466148FFF716FC604913
:100B800046183A4662493046FFF72EFC5C48FFF7AC
:100B90000CFC064632465A495E48FFF725FC5D4884
:100BA000FFF703FC064632465A495B48FFF71CFC38
:100BB0005A48FFF7FAFB0646324658495648323043
:100BC000FFF712FC5648FFF7F0FB06463246544941
:100BD00051486430FFF708FC5248FFF7E6FB064631
:100BE000324650494C489630FFF7FEFB02204A49F6
:100BF000C1F8C8004C48FFF7D8FB064632464A49C0
:100C00004A48FFF7F1FB4A48FFF7CFFB064632465A
:100C1000474946483230FFF7E7FB4648FFF7C5FB38
:100C200006463246434941486430FFF7DDFB4248FF
:100C3000FFF7BBFB064632463F493C489630FFF77C
:100C4000D3FB02203949C1F8C8003C48FFF7ADFB8F
:100C50000646324639493A48FFF7C6FB3948FFF79E
:100C6000A4FB06463246374935483230FFF7BCFB15
:100C70003548FFF79AFB0646324633493048643020
:100C8000FFF7B2FB3148FFF790FB064632462F498B
:100C90002B489630FFF7A8FB02202949C1F8C8006D
:100CA0002B48FFF782FB0646324629492948FFF7C1
:100CB0009BFB2948FFF779FB064632462649254823
:100CC0003230FFF791FB2548FFF76FFB06463246AF
:100CD000224920486430FFF787FB2148FFF765FB76
:100CE000064632461E491B489630FFF77DFB022020
:100CF0001849C1F8C800BDE8F0810000C003002019
:100D00004019002072190020D50300208619002008
:100D1000D80300209A190020FC100020DD030020D9
:100D2000F50300201004002028040020C811002032
:100D3000390400204F0400206804002088040020AB
:100D40009412002098040020B6040020D70400204C
:100D5000F504002060130020030500201F0500207B
:100D60003E05002000BFFEE7704772B600BFFEE7F9
:100D70000146002291F82500022808D00420C8630B
:100D800000BF002081F8240000BF012070470868E0
:100D9000006820F00E000B6818600868006820F0FA
:100DA00001000B68186091F8440000F01C0301205A
:100DB00098400B6C5860012081F8250000BF00208E
:100DC00081F8240000BF1046E0E770B50446002516
:100DD00094F82500022803D00420E063012520E0D8
:100DE0002068006820F00E00216808602068006814
:100DF00020F001002168086094F8440000F01C0114
:100E000001208840216C4860012084F8250000BF43
:100E1000002084F8240000BFA06B10B12046A16B15
:100E20008847284670BD000070B5044600F000F900
:100E300006462546681C10B104480078054400BFEA
:100E400000F0F6F8801BA842FAD370BD70000020B5
:100E500078B503460A460021C5E001268E40156894
:100E600005EA0604002C73D0157905F00305012D61
:100E700004D0157905F00305022D13D198684E00B2
:100E80000325B540A8434E00D568B5402843986077
:100E9000586801258D40A8431579C5F300158D408C
:100EA00028435860157905F00305032D09D0D8684B
:100EB0004E000325B540A8434E009568B540284331
:100EC000D860157905F00305022D13D1CE0803F182
:100ED000200555F826004D07EE0E0F25B540A84316
:100EE0004E07F60E1569B5402843CE0803F12005DC
:100EF00045F8260018684E000325B540A84315792B
:100F000005F003054E00B54028431860556805F408
:100F10004035002D66D000BF364D2D6E45F00105E1
:100F2000344E356635462D6E05F00105009500BF3F
:100F300000BF4FEAB6358E0855F826008D072E0FF4
:100F40000F25B540A843B3F1904F02D1002515E01D
:100F500048E0294DAB4201D101250FE0274DAB42BE
:100F600001D102250AE0264DAB4201D1032505E05F
:100F7000244DAB4201D1042500E007258E07360F32
:100F8000B5402843204D8E0845F826001F4D28689F
:100F9000A043556805F4801505B120431B4D28601A
:100FA0002D1D2868A043556805F4001505B12043A0
:100FB000164D2D1D2860154D2D1F2868A04355681E
:100FC00005F4003505B12043104D2D1F28602D1F5D
:100FD0002868A043556805F4803505B120430B4DC2
:100FE000083D2860491C1568CD40002D7FF435AFC1
:100FF00078BD0000001002400004004800080048CE
:10100000000C00480010004808000140080401409E
:1010100010B5426921EA020302EA010443EA0443EB
:10102000836110BD0AB1816100E0816270470000F8
:10103000014800687047000068000020034800680D
:101040000349097808440149086070476800002096
:101050007000002010B50024032000F0ADF80F2030
:1010600000F008F808B1012401E000F02FF8204654
:1010700010BD000070B50446002511480078D8B1B5
:101080000F4800784FF47A71B1FBF0F00D49096810
:10109000B1FBF0F6304601F0EBFA58B9102C07D24C
:1010A00000222146501E00F045F80748046004E085
:1010B000012502E0012500E00125284670BD000061
:1010C00070000020740000206C00002008B500BFF4
:1010D0000D48006E40F001000B4908660846006E9E
:1010E00000F00100009000BF00BF00BF0846806D07
:1010F00040F0805088650846806D00F08050009078
:1011000000BF00BF08BD00000010024001460846B5
:1011100000280DDB00BF00BF00F01F0301229A4032
:1011200043099B0003F1E023C3F8002100BF00BF87
:1011300000BF70472DE9F05F80460D461646002738
:1011400003F05EF9074639462A46334601F00700A8
:10115000C0F1070ABAF1040F02D94FF0040A01E006
:10116000C0F1070AD14600F1040ABAF1070F02D212
:101170004FF0000A01E0A0F1030AD4464FF0010A43
:101180000AFA09FAAAF1010A0AEA020A0AFA0CFAA8
:101190004FF0010B0BFA0CFBABF1010B0BEA030B4D
:1011A0004AEA0B042146404603F032F900F000B849
:1011B00030BCBDE8C09F000000BF00F00702064B36
:1011C00019684FF6FF031940044B0B4343EA022111
:1011D000014B196000BF70470CED00E00000FA05FC
:1011E0000246B2F5007F2AD11D48006800F4C060B5
:1011F000B0F5007F32D01A48006820F4C06040F497
:101200000070174B18601748006832235843164B7C
:10121000B0FBF3F0411C00E0491E1148406900F4A6
:101220008060B0F5806F01D10029F5D10C4840698C
:1012300000F48060B0F5806F10D10320704708483B
:10124000006800F4C060B0F5806F07D00448006803
:1012500020F4C06040F48060014B18600020EDE78E
:10126000007000407400002040420F0002480068F7
:1012700000F4C06070470000007000400348006840
:1012800040F4807001490860704700000070004021
:101290002DE9F84304460025A846208800F40060A4
:1012A000B0F5006F26D1E06C68B1B0F5000F03D047
:1012B000B0F5400F0ED10CE0F748C06840F4803024
:1012C000F549C86008E00021201D02F04FF90546ED
:1012D00002E001E0012500BF00BF55B9EE488830AB
:1012E000006820F44000E16C0843EB49C1F8880035
:1012F00000E0A846206800F40030B0F5003F75D14A
:101300004FF00009E448806D012121EA107078B1A6
:1013100000BFE148806D40F08050DF498865084695
:10132000806D00F08050009000BF00BF4FF00109B9
:10133000DA48006840F48070D8490860FFF778FE0A
:10134000074606E0FFF774FEC01B022801D90325FB
:1013500005E0D248006800F480700028F2D000BF99
:101360007DBBCD489030006800F44076CEB1606E11
:10137000B04216D0C8489030006820F44076C64885
:10138000D0F8900040F48030C349C1F8900008467E
:10139000D0F8900020F48030C1F890000846C0F8E2
:1013A000906006F00100A8B1FFF742FE074609E091
:1013B000FFF73EFEC01B41F28831884202D9032567
:1013C00007E016E0B4489030006800F00200002802
:1013D000EED000BF5DB9B0489030006820F4407096
:1013E000616E0843AC49C1F8900003E00CE0A846E8
:1013F00000E0A846B9F1010F05D1A748806D20F0A3
:101400008050A549886500BF207800F0010048B1F0
:10141000A1488830006820F00300216A08439E49F3
:10142000C1F88800207800F00200022809D19A480B
:101430008830006820F00C00616A08439649C1F8C2
:101440008800207800F00400042809D192488830F0
:10145000006820F03000A16A08438F49C1F8880075
:10146000207800F00800082809D18B4888300068EF
:1014700020F0C000E16A08438749C1F8880020785D
:1014800000F02000202809D183488830006820F42B
:101490004060216B08438049C1F88800208800F42F
:1014A0000070B0F5007F09D17B488830006820F4D7
:1014B0004020616C08437849C1F88800208800F416
:1014C0008060B0F5806F09D173488830006820F4DF
:1014D0004010A16C08437049C1F88800207800F0E2
:1014E0004000402809D16C488830006820F4405002
:1014F000616B08436849C1F88800207800F08000DB
:10150000802809D164488830006820F44040A16BED
:1015100008436149C1F88800208800F48070B0F564
:10152000807F09D15C488830006820F44030E16B4E
:1015300008435949C1F88800206800F48010B0F5CC
:10154000801F09D154489C30006820F00300216CB2
:1015500008435149C1F89C00208800F40050B0F5C0
:10156000005F1FD14C488830006820F04060216D3A
:101570000843494988310860206DB0F1006F06D1F9
:101580004548C06840F480104349C8600AE0206DB7
:10159000B0F1806F06D10121201D01F0E7FF054663
:1015A00005B1A846206800F40020B0F5002F1FD137
:1015B00039488830006820F04060616D0843364942
:1015C00088310860606DB0F1006F06D13248C068A4
:1015D00040F480103049C8600AE0606DB0F1806F5F
:1015E00006D10121201D01F0C1FF054605B1A84625
:1015F000206800F48020B0F5802F1FD12648883065
:10160000006820F04060A16D0843234988310860DC
:10161000A06DB0F1006F06D11F48C06840F4801083
:101620001D49C8600AE0A06DB0F1806F06D10121AC
:10163000201D01F09BFF054605B1A846208800F457
:101640008040B0F5804F14D113488830006820F0F6
:101650004050E16D0843104988310860E06DB0F1F9
:10166000805F06D10221201D01F080FF054605B1F3
:10167000A846206800F48030B0F5803F09D10648C4
:101680008830006820F00040216E08430249C1F80C
:1016900088004046BDE8F88300100240007000401A
:1016A0002DE9F04104460D4614B90120BDE8F08152
:1016B0006348006800F00700A8420ED26048006846
:1016C00020F0070028435E4908600846006800F0E3
:1016D0000700A84201D00120E8E7207800F00200CE
:1016E00002280ED15749A068896801F0F0018842AC
:1016F00007D95448806820F0F000A1680843514998
:101700008860207800F0010078B36068032806D173
:101710004C48006800F00070D8B90120C6E7606846
:10172000022806D14748006800F4003088B901203B
:10173000BCE7606830B94348006800F0020040B977
:101740000120B3E73F48006800F4806008B9012039
:10175000ACE73C48806820F00300616808433949E1
:101760008860FFF765FC064609E010E0FFF760FCC3
:10177000801B41F28831884201D9032096E7314825
:10178000806800F00C006168B0EB810FEED120782A
:1017900000F0020002280ED12A49A068896801F0F1
:1017A000F001884207D22748806820F0F000A16845
:1017B0000843244988602248006800F00700A842D6
:1017C0000ED91F48006820F0070028431C49086014
:1017D0000846006800F00700A84201D0012065E734
:1017E000207800F00400042807D11648806820F40F
:1017F000E060E168084313498860207800F0080041
:10180000082808D10F48806820F46050216940EA18
:10181000C1000C49886000F047F80A498968C1F3A3
:101820000311094A515C01F01F01C84007490860D3
:1018300007480068FFF71EFC0746384636E70000F9
:101840000020024000100240F04F00087400002009
:101850006C00002001480068704700007400002000
:1018600000B5FFF7F7FF05498968C1F30221044A73
:10187000515C01F01F01C84000BD00000010024093
:101880000050000800B5FFF7E5FF05498968C1F37E
:10189000C221044A515C01F01F01C84000BD000094
:1018A0000010024000500008F0B500230020DFF8CF
:1018B000D4C0DCF808C00CF00C01DFF8C8C0DCF8BC
:1018C0000CC00CF0030719B10C291ED1012F1CD13B
:1018D000DFF8B0C0DCF800C00CF0080CBCF1000F61
:1018E00006D1DFF8A0C0DCF894C0CCF3032305E0F8
:1018F000DFF890C0DCF800C0CCF30313DFF888C039
:101900005CF8233041B9184606E0042901D11F488C
:1019100002E0082900D11E480C2932D1DFF864C04A
:10192000DCF80CC00CF00304012C09D0022C02D00E
:10193000032C04D101E0154A04E0154A02E000BF7F
:101940001A4600BF00BFDFF83CC0DCF80CC0CCF387
:10195000021C0CF10106DFF82CC0DCF80CC0CCF343
:10196000062C0CFB02FCBCFBF6F2DFF818C0DCF81E
:101970000CC0CCF3416C0CF1010C4FEA4C05B2FBEE
:10198000F5F0F0BD00100240085000080024F400FB
:1019900000127A002DE9F843044614B90120BDE88D
:1019A000F883F948806800F00C06F748C06800F03A
:1019B0000307207800F01000102877D11EB10C2EFC
:1019C00076D1012F74D1F048006800F0020018B100
:1019D000A06908B90120E2E7EB48216A006800F03D
:1019E000080020B1E848006800F0F00005E0E64893
:1019F0009430006800F47060000981421FD9206AA9
:101A000001F078FE08B10120C9E700BFDE48006898
:101A100040F00800DC4908600846006820F0F0004B
:101A2000216A0843D849086000BF0846406820F48E
:101A30007F40E16940EA0120D34948601FE000BFD0
:101A4000D148006840F00800CF49086008460068A7
:101A500020F0F000216A0843CB49086000BF084627
:101A6000406820F47F40E16940EA0120C6494860AF
:101A70002EB9206A01F03EFE08B101208FE7FFF782
:101A800013FFC1498968C1F30311C04A515C01F0D9
:101A90001F01C840BE490860BE480068FFF7EAFA67
:101AA0008046B8F1000F4ED0404678E74BE0FFE7A4
:101AB000A06980B3B448006840F00100B2490860F2
:101AC000FFF7B6FA054606E0FFF7B2FA401B022818
:101AD00001D9032063E7AC48006800F00200002849
:101AE000F2D000BFA848006840F00800A64908608E
:101AF0000846006820F0F000216A0843A249086007
:101B000000BF0846406820F47F40E16940EA0120B8
:101B10009D49486017E0FFE79B48006820F00100FE
:101B200099490860FFF784FA054606E0FFF780FA56
:101B3000401B022801D9032031E79348006800F0D8
:101B400002000028F2D1207800F0010000285CD0CB
:101B5000082E03D00C2E0AD1032F08D18A48006822
:101B600000F4003088B3606878BB012017E700BF3D
:101B70006068B0F5803F06D18348006840F480304B
:101B8000814908601AE06068B0F5A02F0BD17E484B
:101B9000006840F480207C4908600846006840F4F2
:101BA000803008600AE07848006820F48030764988
:101BB00008600846006820F48020086000BF606864
:101BC00090B1FFF735FA054607E01EE0FFF730FA5F
:101BD000401B642801D90320E1E66B48006800F44B
:101BE00000300028F2D010E0FFF722FA054606E0A8
:101BF000FFF71EFA401B642801D90320CFE6624894
:101C0000006800F400300028F2D1207800F00200D3
:101C1000022852D1042E03D00C2E14D1022F12D13F
:101C20005948006800F4806018B1E06808B90120E4
:101C3000B5E65548406820F0FE40217C40EA01604E
:101C40005149486039E0E06800B34F48006840F40B
:101C500080704D490860FFF7EBF9054606E0FFF795
:101C6000E7F9401B022801D9032098E6464800689E
:101C700000F480600028F2D04348406820F0FE4025
:101C8000217C40EA01604049486016E03E48006817
:101C900020F480703C490860FFF7CAF9054606E069
:101CA000FFF7C6F9401B022801D9032077E6364822
:101CB000006800F480600028F2D1207800F008006D
:101CC000082836D16069D0B12F489430006840F0C0
:101CD00001002D49C1F89400FFF7AAF9054606E076
:101CE000FFF7A6F9401B022801D9032057E6264832
:101CF0009430006800F002000028F1D019E022487A
:101D00009430006820F001001F49C1F89400FFF7EB
:101D10008FF9054606E0FFF78BF9401B022801D931
:101D200003203CE618489430006800F002000028C8
:101D3000F1D1207800F00400042872D14FF000099E
:101D40001148806D00F0805078B900BF0E48806D5A
:101D500040F080500C4988650846806D00F0805046
:101D6000009000BF00BF4FF001090B48006800F46D
:101D7000807000BB0848006840F480700649086025
:101D8000FFF756F9054610E000100240F04F00083A
:101D9000740000206C00002000700040FFF748F93C
:101DA000401B022801D90320F9E5CA48006800F465
:101DB00080700028F2D000BFA068012808D1C64872
:101DC000006840F00100C4499039C1F8900021E05A
:101DD000A06805280FD1C048006840F00400BE4943
:101DE0009039C1F890000846D0F8900040F001000A
:101DF000C1F890000EE0B848006820F00100B64934
:101E00009039C1F890000846D0F8900020F0040006
:101E1000C1F8900000BFA068A0B1FFF709F905461E
:101E200009E02EE0FFF704F9401B41F288318842B7
:101E300001D90320B3E5A848006800F0020000289B
:101E4000F0D012E0FFF7F4F8054608E0FFF7F0F8ED
:101E5000401B41F28831884201D903209FE59E480A
:101E6000006800F002000028F0D1B9F1010F07D19D
:101E700099489038806D20F0805097499039886556
:101E800000BF207800F02000202838D1606AD8B147
:101E900091480830006840F001008F499039C1F83E
:101EA0009800FFF7C5F8054606E0FFF7C1F8401BAC
:101EB000022801D9032072E587480830006800F045
:101EC00002000028F1D01AE083480830006820F0B2
:101ED000010081499039C1F89800FFF7A9F805463B
:101EE00006E0FFF7A5F8401B022801D9032056E5BC
:101EF00079480830006800F002000028F1D1A06A9B
:101F000000287DD0A06A02287BD173489038C7682A
:101F100007F00301E06A814225D107F07001206BD0
:101F2000401EB1EB001F1ED107F4FE41606BB1EB08
:101F3000002F18D107F078413820005DB1EBC06F59
:101F400011D107F4C001A08F0122C2EB5000B1EB08
:101F5000405F08D107F0C0614020005DC2EB500037
:101F6000B1EB406F66D00C2E62D05B4890380068B1
:101F700000F0806008B1012011E5574890380068F2
:101F800020F08070544990390860FFF751F80546F9
:101F900006E0FFF74DF8401B022801D90320FEE4BC
:101FA0004D489038006800F000700028F1D1D4E965
:101FB0000B10401E41EA0011606B41EA0021A08F26
:101FC0000122C2EB500041EA40514020005DC2EBCB
:101FD000500041EA40613820005D41EAC0603E495E
:101FE0009039C9683D4A114008433B499039C8605F
:101FF0000846006840F0807008600846C06801E04C
:1020000053E03DE040F08070C860FFF711F80546EE
:1020100006E0FFF70DF8401B022801D90320BEE4BB
:102020002D489038006800F000700028F1D04FE093
:102030000120B4E428489038006800F00070A0BB8C
:1020400025489038006840F0807023499039086036
:102050000846C06840F08070C860FEF7E9FF05469A
:1020600006E0FEF7E5FF401B022801D9032096E4B5
:1020700019489038006800F000700028F1D027E07F
:102080000C2E23D014489038006820F0807012493C
:1020900090390860FEF7CCFF054607E0FEF7C8FF61
:1020A000401B022802D9032079E411E00A48903845
:1020B000006800F000700028F0D107489038C06830
:1020C0000749084004499039C86001E0012066E4EE
:1020D000002064E400700040901002408C809D015C
:1020E000FCFFEEFE7047704710B504464FF48020A9
:1020F0001749086020688068C0F3003078B1206814
:10210000C068C0F3002050B12068C06800F08000B3
:1021100060F4C0702168C8602046FFF7E4FF2068C3
:102120008068C0F3403078B12068C068C0F34020B8
:1021300050B12068C06800F0800060F42070216811
:10214000C8602046FFF7CEFF012084F8210010BDB3
:102150001404014070B504460125002C4DD094F8BC
:10216000210028B9002084F82000204600F04AF819
:10217000022084F8210000BFCA2021684862532051
:102180002168486200BF204601F018FB0546A5BB48
:10219000206880681A490840216888602169606861
:1021A0000843A16908432168896808432168886059
:1021B0002168E068086120680169208941EA0040DF
:1021C00021680861204601F01BFB0546ADB9206877
:1021D000C06C20F003002168C8646169E0690843AD
:1021E0002168C96C08432168C86400BFFF202168CA
:1021F000486200BF012084F82100284670BD00001D
:10220000BFFF8FFF10B59AB0044668216846FEF7FD
:1022100062F91049206888421AD14FF400300090CA
:10222000401219906846FFF733F808B1FEF79DFD9C
:102230000948006840F4004007499039C1F890000F
:1022400000220F212920FEF775FF2920FEF75EFFEF
:102250001AB010BD00280040901002402DE9F04750
:1022600004460D46904600BF94F82000012802D194
:102270000220BDE8F087012084F8200000BF022082
:1022800084F82100B8F1000F2AD12068806800F09E
:10229000400000B102E00020E87000BF286A00B9E9
:1022A00000E000BF287801F07BFA4FEA0049687827
:1022B00001F076FA49EA0029A87801F071FA49EAB2
:1022C0000009E87849EA805995F8240001F068FA95
:1022D00049EA0060296A0843696940EA01061BE08F
:1022E0002068806800F0400000B102E00020E87043
:1022F00000BF28780004697840EA0120A9780843E3
:10230000E97840EA815095F8241040EA0160296A92
:102310000843696940EA0106E969686840EA01071B
:1023200000BFCA202168486253202168486200BF6C
:10233000A86AB0F5807F3ED12068806820F4807064
:10234000216888602068C06800F0800060F4C07078
:102350002168C860FEF76CFE814615E0FEF768FE56
:10236000A0EB0900B0F57A7F0ED900BFFF202168ED
:10237000486200BF032084F8210000BF002084F8D9
:10238000200000BF032074E72068C06800F001004F
:102390000028E3D02068C661206847642068806810
:1023A00040F48070216888602068806840F4805024
:1023B000216888603EE02068806820F40070216811
:1023C00088602068C06800F0800060F42070216898
:1023D000C860FEF72DFE814615E0FEF729FEA0EB52
:1023E0000900B0F57A7F0ED900BFFF20216848624E
:1023F00000BF032084F8210000BF002084F82000E3
:1024000000BF032035E72068C068C0F34000002803
:10241000E3D020680662206887642068806840F402
:102420000070216888602068806840F4005021684E
:10243000886000BF0E48006840F480200C490860A6
:102440000B480830006840F48020094908310860D2
:1024500000BFFF202168486200BF012084F82100EE
:1024600000BF002084F8200000BF00BF01E700008B
:10247000000401402DE9F04705460C46174600BF11
:1024800095F82000012802D10220BDE8F087012044
:1024900085F8200000BF022085F821004FB9607840
:1024A00000F01000102804D1607800F0EF000A302E
:1024B000607097B9E07801F073F94FEA00496078ED
:1024C00001F06EF949EA0029A07801F069F949EABA
:1024D0000009207849EA403809E0E0780004617892
:1024E00040EA0120A1780843217840EA413800BF42
:1024F000CA202968486253202968486200BF2846DC
:1025000001F05CF9064646B90C4808EA0000296863
:102510004860284601F074F9064600BFFF2029688C
:10252000486200BF16B9012085F8210000BF0020D5
:1025300085F8200000BF3046A7E700003FFFFF00FE
:102540002DE9F04704460D46904600BF94F8200060
:10255000012802D10220BDE8F087012084F8200084
:1025600000BF022084F8210000BFCA202168486211
:1025700053202168486200BF204601F01FF906463B
:10258000002E47D1B8F1000F1BD12068806800F001
:10259000400000B102E00020E87000BF287801F0A0
:1025A000FFF84FEA0049687801F0FAF849EA002993
:1025B000A87801F0F5F849EA0009E87849EA805777
:1025C00012E02068806800F0400000B102E00020C6
:1025D000E87000BF28780004697840EA0120A978F3
:1025E0000843E97840EA815712483840216808607A
:1025F0002068806820F4802021688860D5E9030184
:10260000084321688968084321688860204601F0F2
:10261000F7F8064600BFFF202168486200BF16B9E0
:10262000012084F8210000BF002084F8200000BFB2
:10263000304690E77F7F7F0070B504462068C06811
:1026400020F0A0002168C860FEF7F2FC054607E014
:10265000FEF7EEFC401BB0F57A7F01D9032070BD78
:102660002068C06800F020000028F1D00020F6E7C4
:1026700070B504462546681EB0F1807F01D3012065
:102680000FE0681E4FF0E02148610F214FF0FF304E
:1026900001F0BEFE00204FF0E021886107200861B4
:1026A000002070BD704770477047000030B502468B
:1026B0000B4600BF92F83C00012801D1022030BD3A
:1026C000012082F83C0000BF022082F83D00106823
:1026D000416810688468174D1068A84203D121F43E
:1026E00070015868014321F07001186801431068B7
:1026F0004160104D1068A8420BD01068B0F1804FB7
:1027000007D00D4D1068A84203D00C4D1068A842A8
:1027100005D124F080049868044310688460012087
:1027200082F83D0000BF002082F83C0000BF00BFDF
:10273000C5E70000002C01400004004000400140BB
:1027400010B504460CB9012010BD94F83D0028B91D
:10275000002084F83C00204600F02AF8022084F88B
:102760003D00211D206801F0E1F8012084F84800B7
:1027700000BF84F83E0001213F2001554020015553
:1027800041200155422001554320015500BF00BFA3
:10279000012084F84400452001554620015547207A
:1027A000015500BF012084F83D000020CCE7000067
:1027B00038B504462068B0F1804F15D100BF0B48F2
:1027C000806D40F00100094988650846806D00F081
:1027D0000100009000BF00BF002201211C20FEF775
:1027E000A9FC1C20FEF792FC38BD0000001002403E
:1027F000014691F83D00012801D0012070470220D8
:1028000081F83D000868C06840F001000B68D8609E
:10281000144B086898420BD00868B0F1804F07D07D
:10282000114B0868984203D0104B0868984210D1A9
:10283000086880680E4B00EA0302062A0FD0B2F542
:10284000803F0CD00868006840F001000B681860F9
:1028500005E00868006840F001000B68186000207F
:10286000CCE70000002C0140000400400040014083
:10287000070001002DE9F04104460D46002700BF86
:1028800094F83C00012802D10220BDE8F08101202B
:1028900084F83C0000BF022084F83D002068866870
:1028A0003748064026F47F4620688660286850280E
:1028B00033D00CDC202850D004DC00284BD010286A
:1028C00051D149E0302849D040284CD139E0602826
:1028D0002DD0702807D0B0F5805F03D0B0F5005F31
:1028E00041D10DE041E0D5E902136A68206801F0AA
:1028F0005FF82068866846F077062068866034E0D6
:10290000D5E902136A68206801F052F820688068EF
:1029100040F480402168886027E0EA6869682068A0
:1029200001F05AF85021206801F04DF81DE0EA68E6
:102930006968206801F063F86021206801F043F8BD
:1029400013E0EA686968206801F046F840212068D1
:1029500001F039F809E000BF00BF00BF2968206816
:1029600001F031F801E0012700BF00BF012084F829
:102970003D0000BF002084F83C0000BF384684E7DB
:1029800088FFFEFF704710B5044620680069C0F359
:102990004000D8B12068C068C0F34000B0B16FF00B
:1029A000020021680861012020772068806900F01A
:1029B000030018B12046FFF7E5FF05E0204600F0D0
:1029C000BEF8204600F0BCF800202077206800699F
:1029D000C0F38000D8B12068C068C0F38000B0B1F7
:1029E0006FF0040021680861022020772068806968
:1029F00000F4407018B12046FFF7C4FF05E0204600
:102A000000F09DF8204600F09BF800202077206819
:102A10000069C0F3C000D8B12068C068C0F3C0002E
:102A2000B0B16FF0080021680861042020772068A9
:102A3000C06900F0030018B12046FFF7A3FF05E0CE
:102A4000204600F07CF8204600F07AF8002020773D
:102A500020680069C0F30010D8B12068C068C0F3D6
:102A60000010B0B16FF010002168086108202077D5
:102A70002068C06900F4407018B12046FFF782FF5B
:102A800005E0204600F05BF8204600F059F80020F1
:102A900020772068006900F0010058B12068C06804
:102AA00000F0010030B16FF001002168086120469C
:102AB00000F047F820680069C0F3C01058B12068E2
:102AC000C068C0F3C01030B16FF0800021680861A9
:102AD0002046FFF7E8FD20680069C0F3002058B1E8
:102AE0002068C068C0F3C01030B16FF480702168F6
:102AF00008612046FFF7D6FD20680069C0F380100A
:102B000058B12068C068C0F3801030B16FF0400049
:102B100021680861204600F015F820680069C0F3BC
:102B2000401058B12068C068C0F3401030B16FF059
:102B30002000216808612046FFF7B6FD10BD7047F0
:102B40007047704770477047704770472DE9F047EE
:102B500004462068C569206806682068876840F6D2
:102B60000F0005EA0009B9F1000F0CD105F02000B3
:102B700048B106F0200030B1606E10B12046616EA1
:102B80008847BDE8F087B9F1000F7DD007F001005C
:102B900018B9BE4830400028F7D005F0010058B100
:102BA00006F4807040B1012021680862D4F88000EA
:102BB00040F00100C4F8800005F0020058B107F0B1
:102BC000010040B1022021680862D4F8800040F082
:102BD0000400C4F8800005F0040058B107F00100BB
:102BE00040B1042021680862D4F8800040F002005F
:102BF000C4F8800005F0080070B106F0200010B99C
:102C000007F0010040B1082021680862D4F8800074
:102C100040F00800C4F8800005F4006060B106F0E0
:102C2000806048B14FF4006021680862D4F88000E9
:102C300040F02000C4F88000D4F8800000284BD079
:102C400005F0200038B106F0200020B1606E10B110
:102C50002046616E8847D4F880A02068806800F024
:102C60004000402802D00AF0280070B3204601F04E
:102C700010F82068806800F04000402821D100BF93
:102C800000BF2168083100E027E051E8001F21F073
:102C900040002168083141E80002002AF1D100BF5C
:102CA000206F50B17A48216F8863206FFEF78DF84E
:102CB00090B1206F816B88470EE02046FFF745FFFB
:102CC0000AE02046FFF741FF06E0FFE72046FFF756
:102CD0003CFF0020C4F8800053E7206E01286FD12C
:102CE00005F0100000286BD006F010000028FAD084
:102CF0001020216808622068806800F040004028A9
:102D00005FD1206F006840681FFA80F8B8F1000FAB
:102D100055D0B4F85800404551DDA4F85A80206FD2
:102D20000068006800F02000E8BB00BF00BF216819
:102D300051E8001F21F48070226842E80001002958
:102D4000F5D100BF00BF00BF2168083151E8001F66
:102D500021F001002168083141E80002002AF3D186
:102D600000BF00BF00BF2168083151E8001F21F0FB
:102D700040002168083141E80002002AF3D100BF79
:102D80002020E0670020206600BF00BF216851E8D6
:102D9000001F21F01000226842E800010029F5D14F
:102DA00000BF206F00E001E0FDF7E2FFB4F858003B
:102DB000B4F85A20801A81B22046FFF7C4FEE0E63C
:102DC0003EE034F8580F6188401A1FFA80F8608896
:102DD000583CA0B3B8F1000F31D000BF00BF21684C
:102DE00051E8001F21F49070226842E80001002998
:102DF000F5D100BF00BF00BF2168083151E8001FB6
:102E000021F001002168083141E80002002AF3D1D5
:102E100000BF2020E06700202066606600BF00BF82
:102E2000216851E8001F21F01000226842E80001EB
:102E30000029F5D100BF41462046FFF784FEA0E6F9
:102E400005F4801050B107F4800038B14FF48010C1
:102E5000216808622046FFF777FE92E605F08000C1
:102E600040B106F0800028B1A06E10B12046A16EDE
:102E7000884786E605F0400030B106F0400018B102
:102E8000204600F038FF7CE600BF7AE6200100040F
:102E90007B3C000810B504460CB9012010BDA069A8
:102EA00000B100E000BFA06F28B9002084F87400D2
:102EB000204600F029F82420A0672068006820F050
:102EC000010021680860204600F0F6FF012800D1CB
:102ED000E4E7606A10B1204600F01AFE20684068FE
:102EE00020F49040216848602068806820F02A0023
:102EF000216888602068006840F00100216808604F
:102F0000204600F081FEC9E710B5A0B004461421A8
:102F10001BA8FDF7E0FA682101A8FDF7DCFA5E497D
:102F20002068884234D10820019000200C9001A82C
:102F3000FEF7AEF908B1FDF718FF00BF5748806DE6
:102F400040F40020554988650846806D00F4002053
:102F5000009000BF00BF00BF0846C06C40F00400F6
:102F6000C8640846C06C00F00400009000BF00BFB9
:102F70004FF440601B9002201C9000201D90032005
:102F80001E9008201F901BA94548FDF761FF81E0B6
:102F90004449206888423DD10120019000200990D9
:102FA00001A8FEF775F908B1FDF7DFFE00BF3B4849
:102FB000006E40F48040394908660846006E00F40F
:102FC0008040009000BF00BF00BF0846C06C40F0CA
:102FD0000100C8640846C06C00F00100009000BF0A
:102FE00000BF4FF4C0601B9002201C9000201D9079
:102FF00003201E9007201F901BA94FF09040FDF763
:1030000027FF002205212520FEF794F82520FEF752
:103010007DF83FE02449206888423BD1042001909C
:1030200000200B9001A8FEF733F908B1FDF79DFED3
:1030300000BF1A48806D40F4802018498865084612
:10304000806D00F48020009000BF00BF00BF0846E4
:10305000C06C40F00200C8640846C06C00F002007A
:10306000009000BF00BF4FF440601B9002201C90F6
:1030700000201D9003201E9007201F901BA90B48C5
:10308000FDF7E6FE002206212720FEF753F8272051
:10309000FEF73CF820B010BD004C0040001002408C
:1030A0000008004800380140004800400004004883
:1030B00070B504460D461646E06F20282CD105B1A8
:1030C0000EB9012070BD00BF94F87400012801D131
:1030D0000220F7E7012084F8740000BF002020667A
:1030E0000E492068884211D02068406800F4000032
:1030F00060B100BF00BF216851E8001F41F080604F
:10310000226842E800010029F5D100BF3246294675
:10311000204601F069F8D5E70220D3E7008000409F
:1031200010B504461A4920680968884214D1012262
:1031300018491748FFF7BCFF164800781649174A88
:103140001268885415480068401C144908601448E7
:103150000168114800F068FC12492068096888423B
:1031600014D1012210490F48FFF7A2FF0E48017841
:103170000E480F4A126881540D480068401C0C49E3
:1031800008600C480168094800F088FC10BD000088
:1031900050060020050000202C140020080000200C
:1031A00010000020D406002014000020F414002099
:1031B00018000020200000202DE9F84F04460E469C
:1031C00017469946A06F20285DD106B117B9012096
:1031D00000F05BB800BF94F87400012801D1022010
:1031E000F6E7012084F8740000BF0020503420630B
:1031F0002120A062FDF71CFF824627806780503C9B
:10320000A068B0F5805F04D1206910B90025B046F0
:1032100002E035464FF0000800BF002084F874003B
:1032200000BF1DE05346002280212046CDF80090CB
:1032300001F058F808B10320CAE745B9B8F8000012
:10324000C0F308002168088508F1020803E0287827
:10325000216808856D1CB4F85200401EA4F8520085
:10326000B4F852000028DDD1534600224021204608
:10327000CDF8009001F036F808B10320A8E720202F
:10328000A0670020A4E70220A2E718BCBDE8E08FF9
:10329000704700BFFEE7000000B587B0142102A808
:1032A000FDF719F900BF2A48C06C40F00400284916
:1032B000C8640846C06C00F00400019000BF00BF65
:1032C00000BF0846C06C40F00200C8640846C06CED
:1032D00000F00200019000BF00BF00BF0846C06CB4
:1032E00040F00100C8640846C06C00F00100019085
:1032F00000BF00BF00222A211648FDF793FE0022DE
:1033000046F21B011448FDF78DFE2A200290012091
:10331000039000200490059002A90E48FDF798FD47
:1033200046F21B00029001200390002004900590BB
:1033300002A90948FDF78CFD4FF448700290002067
:103340000390049002A90448FDF782FD07B000BD78
:1033500000100240000800480004004800B591B089
:1033600014210CA8FDF7B7F800200B902C2168461B
:10337000FDF7B1F82C482D490860002048607F21F6
:103380002A488160FF21C1600021016141618161A2
:10339000C161FEF7DFFE08B1FDF7E7FC0A208DF8FA
:1033A000300005208DF8310000208DF832000F909C
:1033B000109000220CA91D48FFF7C2F808B1FDF7D4
:1033C000D4FC03208DF82C0007208DF82D0006205A
:1033D0008DF82E0016208DF82F0000220BA913481F
:1033E000FFF748F808B1FDF7C0FC00208DF8000099
:1033F0008DF8010014208DF8020000200190039048
:10340000049005900790089001208DF82400000298
:103410000A90002269460548FEF720FF08B1FDF733
:10342000A4FC11B000BD0000002800405C05002095
:1034300000B587B00020039004900590069000909E
:10344000019002904FF080401449086041F63F70AF
:10345000486000211148816042F20F71C160002173
:1034600001618161FFF76CF908B1FDF77EFC4FF453
:103470008050039003A90948FFF7FCF908B1FDF754
:1034800074FC00200090029069460448FFF70EF992
:1034900008B1FDF76AFC07B000BD00008005002000
:1034A00010B50D480D4908604FF4E1304860002127
:1034B0000A488160C16001610C2141610021816184
:1034C000C16101620020054948620846FFF7E2FC3D
:1034D00008B1FDF74AFC10BD004C0040CC050020AF
:1034E00010B50D480D4908604FF4E13048600021E7
:1034F0000A488160C16001610C2141610021816144
:10350000C16101620020054948620846FFF7C2FC1C
:1035100008B1FDF72AFC10BD00380140500600201C
:1035200010B50D480D4908604FF4E13048600021A6
:103530000A488160C16001610C2141610021816103
:10354000C16101620020054948620846FFF7A2FCFC
:1035500008B1FDF70AFC10BD00480040D406002069
:1035600000BFFEE700BFFEE7704700002DE9F04115
:1035700004460F4600255B48C06800F0030090B188
:103580005848C06800F003002168884209D12068CB
:1035900038B15448C068C0F30210401C61688842CA
:1035A00033D0012531E02068012804D0022809D059
:1035B00003281AD10DE04B48006800F0020000B962
:1035C000012514E04748006800F4806000B9012537
:1035D0000DE04448006800F4003028B94148006814
:1035E00000F4802000B9012501E0012500BF00BFE3
:1035F0005DB9D4E90010401E41EA00103949C9689C
:1036000021F0730108433749C860002D67D1354860
:10361000006820F0806033490860FDF709FD064628
:1036200006E0FDF705FD801B022801D9032505E012
:103630002C48006800F000600028F2D100BFC5BB34
:1036400067B9A0680002217B40EAC1602549096989
:10365000254A114008432349086120E0012F0FD17A
:10366000A0680002218A0122C2EB510140EA4150C8
:103670001C4909691D4A114008431A4908610EE0B6
:10368000A0680002217D0122C2EB510140EA4160A5
:1036900014490969164A1140084312490861114842
:1036A000006840F080600F490860FDF7C1FC0646E5
:1036B00007E014E0FDF7BCFC801B022801D90325BC
:1036C00005E00848006800F000600028F2D000BF64
:1036D0002DB904480069A1690843024908612846D8
:1036E000BDE8F08100100240FF80FF07FF809FFFD0
:1036F000FF80FFF9F8B5044600262348806D00F0EE
:10370000805018B1FDF7B2FD054616E000BF1E4817
:10371000806D40F080501C4988650846806D00F03F
:103720008050009000BF00BFFDF7A0FD0546164881
:10373000806D20F0805014498865B5F5007F07D171
:10374000802C10D9A02C01D902260CE001260AE019
:10375000802C01D9032606E0802C01D1022602E04C
:10376000702C00D101260948006820F00700304382
:10377000064908600846006800F00700B04201D022
:103780000120F8BD0020FCE70010024000200240AC
:1037900010B50248FEF7A8FC10BD00005C05002033
:1037A00002460023114603E05B1CA1F10A00C1B2EE
:1037B0000A29F9D2180741EA1060704770B504462B
:1037C00000262068C06800F04000B8B9701E21686B
:1037D000C860FDF72DFC054609E0FDF729FC401BFC
:1037E000B0F57A7F03D90326032084F821002068EE
:1037F000C06800F0400008B9032EEED1304670BD1D
:1038000070B5044600251748006820F0800015496F
:103810000860081F006800F0200040B92046FEF74D
:103820000BFFE0B1032084F82100032517E00D48C9
:10383000001F006820F020000A49091F0860204688
:10384000FEF7FAFE18B1032084F82100032505488D
:10385000001F006840F020000249091F0860284648
:1038600070BD00000C280040704710B5FDF7E6FB66
:1038700010BD000000B597B0442106A8FCF72BFE50
:10388000142101A8FCF727FE4FF40070FDF7A8FCF7
:1038900008B1FDF76AFAFDF7F1FC1A48006820F05C
:1038A000180018499039C1F89000062006900120B0
:1038B00008900002099040200A90022010900221F6
:1038C0001191012112910A211391072114910221D2
:1038D0001591169106A8FEF75DF808B1FDF745FAB7
:1038E0000F20019003200290002003900490059087
:1038F000042101A8FDF7D4FE08B1FDF736FA17B090
:1039000000BD0000901002400348006840F47000C1
:10391000014908607047000088ED00E010B50248DA
:10392000FFF731F810BD00008005002010B50268D7
:103930001B4B984205D0B0F1804F02D0194B9842F2
:1039400003D122F070024B681A43154B98420BD0FA
:10395000B0F1804F08D0134B984205D0124B9842DB
:1039600002D0124B984203D122F44072CB681A4322
:1039700022F080034C6943EA040202608B68C36250
:103980000B688362064B984205D0074B984202D0E1
:10399000064B984201D10B6903630123436110BDBB
:1039A000002C014000040040004001400044014060
:1039B00030B50C46816821F47F4142EA0325254356
:1039C0002943816030BD0A46816821F0700142F0D0
:1039D000070319438160704730B50B461446026AED
:1039E000056A25F001050562816921F0F00141EACF
:1039F000041122F00A021A438161026230BD30B51F
:103A00000B461446056A25F0100505628169026AB5
:103A100021F4704141EA043122F0A00242EA03128B
:103A20008161026230BD000070B504460D4665B389
:103A30002046FCF7BAFC801E205C0D2825D12046CC
:103A4000FCF7B3FC401E205C0A281ED10F4800681A
:103A5000401C0E49086008460068A84215DB642136
:103A60000B48FCF738FD2046FCF79FFC0646324623
:103A700021460748FCF7B8FC64210648FCF72BFDFB
:103A80000020054908600149086070BD0C00002055
:103A9000901400202C1400200800002070B504466B
:103AA0000D4665B32046FCF780FC801E205C0D2887
:103AB00025D12046FCF779FC401E205C0A281ED147
:103AC0000F480068401C0E49086008460068A8427C
:103AD00015DB64210B48FCF7FEFC2046FCF765FC77
:103AE0000646324621460748FCF77EFC642106481C
:103AF000FCF7F1FC0020054908600149086070BD31
:103B00001C00002058150020F4140020180000208C
:103B100090F8241001F0010139B10168496821F4DD
:103B20000031826A11430268516090F8241001F05C
:103B30000201022907D10168496821F48031C26A73
:103B400011430268516090F8241001F00401042927
:103B500007D10168496821F48021026B1143026892
:103B6000516090F8241001F00801082907D101687C
:103B7000496821F40041426B11430268516090F89A
:103B8000241001F01001102907D10168896821F47F
:103B90008051826B11430268916090F8241001F00B
:103BA0002001202907D10168896821F40051C26BE6
:103BB00011430268916090F8241001F040014029FF
:103BC00013D10168496821F48011026C1143026825
:103BD0005160016CB1F5801F07D10168496821F47B
:103BE000C001426C11430268516090F8241001F04A
:103BF0008001802907D10168496821F40021826C85
:103C0000114302685160704738B504460020C4F87B
:103C10008000FDF70DFA05462068006800F00800F6
:103C200008280CD16FF07E402B4600224FF4001183
:103C30000090204600F056FB08B1032038BD2068F4
:103C4000006800F0040004280CD16FF07E402B4681
:103C500000224FF480010090204600F043FB08B1A1
:103C60000320EBE72020A067E0670020206600BF6C
:103C700084F8740000BF00BFE0E770B50546AC6A89
:103C80000020A4F85A00A4F852002046FEF75DFF79
:103C900070BD00BF00BF026852E8002F22F490718F
:103CA000036843E80012002AF5D100BF00BF00BF3F
:103CB0000268083252E8002F22F00101026808323F
:103CC00042E80013002BF3D100BF016E01290CD193
:103CD00000BF00BF026852E8002F22F01001036805
:103CE00043E80012002AF5D100BF2021C16700215E
:103CF00001664166704710B5044600BF00BF2168E9
:103D000051E8001F21F04000226842E8000100292C
:103D1000F5D100BF2020A0670020A0662046FFF755
:103D2000B7FA10BD2DE9F0410446B4F85C70E06FBD
:103D3000222855D12068868C656D06EA0700288008
:103D4000606D801C6065B4F85A00401EA4F85A00EB
:103D5000B4F85A00002849D100BF00BF216851E8DB
:103D6000001F21F49070226842E800010029F5D17B
:103D700000BF00BF00BF2168083151E8001F21F0DB
:103D800001002168083141E80002002AF3D100BF98
:103D90002020E06700206066206E01281CD10020F2
:103DA000206600BF00BF216851E8001F21F010000D
:103DB000226842E800010029F5D100BF2068C069EF
:103DC000C0F3001010B1102021680862B4F8581038
:103DD0002046FEF7B8FE09E02046FFF7A1F905E00E
:103DE0002068008B40F0080021680883BDE8F0815E
:103DF00070B50446B4F85C60E06F222855D12068A5
:103E0000858CF0B22840616D0870606D401C606563
:103E1000B4F85A00401EA4F85A00B4F85A0000281A
:103E200049D100BF00BF216851E8001F21F4907004
:103E3000226842E800010029F5D100BF00BF00BFA1
:103E40002168083151E8001F21F001002168083184
:103E500041E80002002AF3D100BF2020E0670020E3
:103E60006066206E01281CD10020206600BF00BFC4
:103E7000216851E8001F21F01000226842E800018B
:103E80000029F5D100BF2068C069C0F3001010B14F
:103E9000102021680862B4F858102046FEF753FE3F
:103EA00009E02046FFF73CF905E02068008B40F070
:103EB00008002168088370BD2DE9F84F04460020F2
:103EC0000090BF492068884200D100E000BF21690E
:103ED000A068084361690843E16940EA010A206873
:103EE0000068B849084040EA0A0021680860206874
:103EF000406820F44050E168084321684860D4F8E5
:103F000018A0AF492068884202D0206A40EA0A0A15
:103F10002068806820F4306040EA0A0021688860E8
:103F200000BFA9492068884216D1A848006800F05F
:103F3000030030B1012808D0022804D0032808D19A
:103F400005E0012507E0022505E0042503E008253A
:103F500001E0102500BF6FE09D492068884216D11E
:103F60009A48006800F00C0030B1042808D00828F6
:103F700004D00C2808D105E0002507E0022505E063
:103F8000042503E0082501E0102500BF54E0914915
:103F90002068884216D18D48006800F0300030B1AA
:103FA000102808D0202804D0302808D105E00025AA
:103FB00007E0022505E0042503E0082501E01025BF
:103FC00000BF39E084492068884216D17F480068E4
:103FD00000F0C00030B1402808D0802804D0C028AC
:103FE00008D105E0002507E0022505E0042503E0EF
:103FF000082501E0102500BF1EE0714920688842B5
:1040000019D17248006800F4406048B1B0F5806F83
:104010000AD0B0F5006F05D0B0F5406F08D105E0CB
:10402000002507E0022505E0042503E0082501E05E
:10403000102500BF00E0102500BF614920688842BC
:1040400045D135B1022D08D0042D08D0082D0DD151
:1040500009E0FDF705FC06460CE0604E0AE0FDF7BE
:1040600023FC064606E04FF4004603E0002601204C
:10407000009000BF00BF002E0AD0606800EB400037
:10408000B04203D860680003B04202D20120009021
:1040900090E04FF48070A6FB0030D4F804C04FEAE3
:1040A0005C015F1840F10001624600233846FCF7CE
:1040B00005F98146B9F5407F06D3B9F5801F03D2D3
:1040C0002068C0F80C9075E00120009072E0E06973
:1040D000B0F5004F3AD1092D17D2DFE805F00509F8
:1040E0000D160F1616161300FDF7BAFB064610E064
:1040F000FDF7C8FB06460CE0384E0AE0FDF7D4FB9E
:10410000064606E04FF4004603E00026012000903A
:1041100000BF00BF8EB37000616800EB5100B0FBC0
:10412000F1F9B9F1100F0ED3B9F5803F0BD24FF66C
:10413000F07009EA000BC9F342004BEA000B20685B
:10414000C0F80CB036E00120009033E0092D18D201
:10415000DFE805F005090D170F1717171400FDF715
:104160007FFB064611E0FDF78DFB06460DE01B4E7A
:104170000BE0FDF799FB064607E01BE04FF4004615
:1041800003E000260120009000BF00BF96B16068E8
:1041900006EB50006168B0FBF1F9B9F1100F07D3DD
:1041A000B9F5803F04D21FFA89F02168C86001E0A8
:1041B0000120009000206066A066009800F010B812
:1041C00000800040F369FFEF003801408810024092
:1041D0000044004000480040004C00400024F4002F
:1041E00018BCBDE8E08F000030B503465965A3F860
:1041F0005820A3F85A200020586600BF9868B0F5F0
:10420000805F0AD1186920B940F2FF10A3F85C0062
:1042100020E0FF20A3F85C001CE0986848B918690A
:1042200018B9FF20A3F85C0014E07F20A3F85C001D
:1042300010E09868B0F1805F09D1186918B97F2043
:10424000A3F85C0006E03F20A3F85C0002E0002039
:10425000A3F85C0000BF0020C3F880002220D867CC
:1042600000BF00BF1C68083454E8004F44F0010050
:104270001C68083444E80005002DF3D100BF98689D
:10428000B0F5805F04D1186910B91448586601E090
:104290001348586600BF002083F8740000BF1869F7
:1042A00060B100BF00BF1C6854E8004F44F4907038
:1042B0001D6845E80004002CF5D10CE000BF00BFEC
:1042C0001C6854E8004F44F020001D6845E80004D5
:1042D000002CF5D100BF002030BD0000253D0008B6
:1042E000F13D00082DE9F04104460D461746984679
:1042F000069E67E0701C002864D0FCF799FEA0EBD6
:104300000800B04200D836BB00BF00BF216851E8AA
:10431000001F21F4D070226842E800010029F5D185
:1043200000BF00BF00BF2168083151E8001F21F025
:1043300001002168083141E80002002AF3D100BFE2
:104340002020A067E06700BF002084F8740000BF51
:104350000320BDE8F0812068006800F0040080B30D
:104360002068C069C0F3C02058B34FF400602168D2
:10437000086200BF00BF216851E8001F21F4D0701F
:10438000226842E800010029F5D100BF00BF00BF4C
:104390002168083151E8001F21F00100216808312F
:1043A00041E80002002AF3D100BF2020A067E067A7
:1043B000C4F8800000BF002084F8740000BF032010
:1043C000C7E7FFE72068C0692840A84201D1012063
:1043D00000E00020B8428DD00020BAE710B50248B6
:1043E000FEF7B4FB10BD00005006002010B50248D7
:1043F000FEF7ACFB10BD0000D406002000BFFEE7B6
:1044000002480068C0F30220704700000CED00E095
:1044100010B5002804DB0A07130E054A135406E002
:104420000A07140E034A00F00F031B1FD45410BDDB
:1044300000E400E018ED00E070B505460122082117
:104440000F48FCF7EFFD002220210E48FCF7EAFDA3
:10445000012211460A48FCF7E5FD00240CE0022188
:104460000848FCF7D5FD08210648FCF7D1FD4FF4BC
:104470007A70FCF7D9FC641C0F2CF0DB70BD0000D7
:1044800000040048000800482DE9F0472DED068B98
:1044900004460420944908609448C078432810D109
:1044A0009248007943280CD1904840794C2808D193
:1044B0008E4880794B2804D164228C498C48FBF7C4
:1044C000D8FF4FF47A7104FB01F000F09BFC9FEDE4
:1044D000890B53EC102B00F03DFB41EC180BFCF763
:1044E000A7FD86490968A0EB0108404600F0A1FC41
:1044F00053EC182B00F040FD18D8814800680128C3
:1045000014D164227F498048FBF7B3FF7E48FBF754
:104510004CFF1FFA80F84FF4FA7342467A497B4801
:10452000FEF74AFEFCF784FD74490860FCF780FD45
:1045300077490968401A04EB4401C1EBC411B0EBA0
:10454000C10F7DD36E480068012879D1642271497A
:104550007148FBF78EFF71480068401C6F49086086
:10456000084600680A2190FBF1F201FB12000128C5
:104570000DDA6A480068642190FBF1F201FB120039
:104580000A2190FBF1F0012801DA002508E06348D8
:1045900000680A2190FBF1F201FB12003030C5B235
:1045A0005E480068642190FBF1F201FB12000A21D1
:1045B00090FBF1F0012808DA58480068642190FB6C
:1045C000F1F0012801DA00260BE05448006864216C
:1045D00090FBF1F201FB12000A2190FBF1F0303068
:1045E000C6B24E4800684FF47A7190FBF1F201FBBD
:1045F0001200642190FBF1F0012801DA002706E0A7
:1046000046480068642190FBF1F03030C7B2424860
:10461000FBF7CBFE804642463F494148FBF729FF66
:104620004048FBF7C2FE81463D48FBF7BEFE3C49D1
:1046300000EB01084A463B494046FBF7D5FE00E047
:104640004DE03748FBF7B1FE35490F540846FBF7FC
:10465000ACFE33490E540846FBF7A7FE30490D5413
:104660000846FBF7A2FE2E492D220A544FF00008FF
:104670000AE02B48FBF799FE294A08F113011C4B6D
:10468000595C115408F10108274800688045F0DBA7
:104690002648FBF78AFE81462148FBF786FE204923
:1046A00000EB01084A4621494046FBF79DFE642283
:1046B0001B491F48FBF7DDFE1D48FBF776FE1FFA7E
:1046C00080F8C82342461A491048FEF775FD642158
:1046D0001348FBF700FFFCF7ABFC0D490860BDEC8D
:1046E000068BBDE8F0870000200000205815002050
:1046F00078180020000000000000F83F480000206B
:1047000024000020640F002020160020D406002082
:104710004C00002030100020B01700206400002062
:1047200014180020500000205C00002060000020D1
:10473000DC1800200FB470B50024642204A93948A5
:10474000FBF797FE64220DF142013748FBF74CFE60
:1047500064221DA93548FBF78CFE32220DF1A6011B
:104760003348FBF741FE3349369808600846006835
:10477000314908602B48FBF718FE85B2C8232A464A
:1047800028492E48FEF718FD4FF4FA70FCF74CFB51
:104790002548FBF70AFE85B2C8232A462249284845
:1047A000FEF70AFD2748FBF700FEC01E2549085CFE
:1047B000532817D00846FBF7F8FDC01E2149085CB6
:1047C0004B280FD00846FBF7F0FDC01E1D49085CC2
:1047D000302807D00846FBF7E8FDC01E1949085CE1
:1047E00031280FD11248FBF7E0FD85B2C8232A46D5
:1047F0000F491348FEF7E0FC64211248FBF76BFEFB
:1048000001240AE00948FBF7D0FD85B2C8232A46F7
:1048100006490B48FEF7D0FC0024204670BC5DF82A
:1048200014FB00002016002084160020E81600204B
:104830004C1700204000002020000020D40600205B
:10484000500600205815002010B5B0B004468C4921
:104850002046FBF767FE68B964218A48FBF73BFEF8
:1048600064218948FBF737FE012088490870002041
:1048700087490860854800780D287CD2DFE800F081
:10488000FB071B2F43576B8094A8BCD0E400BC22CD
:1048900080496846FBF7EDFD7E4810380FC8FFF7EA
:1048A00049FF012803D102207849087002E0012065
:1048B00076490870E0E0BC2277496846FBF7D9FDED
:1048C000754810380FC8FFF735FF012803D10320C2
:1048D0006E49087002E002206C490870CCE0BC22EE
:1048E0006E496846FBF7C5FD6C4810380FC8FFF7E6
:1048F00021FF012803D104206449087002E003204D
:1049000062490870B8E0BC2265496846FBF7B1FD12
:10491000634810380FC8FFF70DFF012803D10520A9
:104920005A49087002E0042058490870A4E0BC22EB
:104930005C496846FBF79DFD5A4810380FC8FFF7E1
:10494000F9FE012803D106205049087002E0052035
:104950004E49087090E0BC2253496846FBF789FD38
:10496000514810380FC8FFF7E5FE012804D1072091
:104970004649087003E07EE00620444908707BE069
:10498000BC224A496846FBF774FD484810380FC8F6
:10499000FFF7D0FE012803D108203C49087002E04F
:1049A00007203A49087067E0BC2241496846FBF796
:1049B00060FD3F4810380FC8FFF7BCFE012803D147
:1049C00009203249087002E008203049087053E09D
:1049D000BC2238496846FBF74CFD364810380FC8F2
:1049E000FFF7A8FE012803D10A202849087002E039
:1049F0000920264908703FE0BC222F496846FBF792
:104A000038FD2D4810380FC8FFF794FE012803D158
:104A10000B201E49087002E00A201C4908702BE098
:104A2000BC2226496846FBF724FD244810380FC8ED
:104A3000FFF780FE012803D10C201449087002E022
:104A40000B201249087017E0BC221D496846FBF78D
:104A500010FD1B4810380FC8FFF76CFE012803D16A
:104A600000200A49087002E00C2008490870012063
:104A70000749086000E000BF00BF30B010BD000073
:104A80003B00002090140020581500200400002056
:104A9000240000207C070020480800201409002082
:104AA000E0090020AC0A0020780B0020440C002014
:104AB000100D0020DC0D0020A80E00200C1100209D
:104AC000D8110020FCF7C6FAFEF7D4FEFEF7E4FB8F
:104AD000FEF7E6FCFEF704FDFEF722FDFEF73EFCC6
:104AE000FEF7A6FC0D48FDF783FE01220C490D4898
:104AF000FEF7DEFA01220C490C48FEF7D9FA0C4900
:104B00000C48FBF78DFD0F20FFF796FC05E00A48E7
:104B1000FFF79AFE0520FFF7B7FCF8E780050020B5
:104B200014000020D40600200500002050060020BC
:104B3000360000202800002090140020491058BFA3
:104B4000C1F140415B1058BFC3F140438B42EFF3CA
:104B5000008070472DE9C04130B4DFF8A0C23CEAC4
:104B6000111418BF3CEA131400F0EC8081EA03052D
:104B70001CEA111444EAD57418BF1CEA131500F09E
:104B8000C780A4EB05044FF0004545EAC12145EA82
:104B9000C32341EA505143EA525304F17F749942CE
:104BA00004F500344FEAC0204FEAC22208BF904209
:104BB00000F09C804FEA13650FF24016765D4FEAD5
:104BC000134506FB05F7C7F1807706FB07F74FEAA9
:104BD000D737A7FB03687642C8F58038A7FB06CE17
:104BE00038BFA8F1010807FB08E64FF0000EA6FB4E
:104BF000028CE6FB03CEDCF1000CCEF1004E38BF98
:104C0000AEF1010EA6FB0C584FF000074FF0000567
:104C1000E6FB0E87A1FB08C6A0FB07CE16EB0E062F
:104C200045F10005E1FB076515F1E04E7EBFA4F5F7
:104C300080345FEA46066D4116F1800745F10005B4
:104C40004FEA17274FEA066647EA0567A6F1DE46F0
:104C5000B6F1805F4FEA15251FD9384624F0010CC4
:104C600005EBC471BCF1FE6F01EB0C1102D8F0BC76
:104C7000BDE8008124425CBF01F5801E9EEAC47F2E
:104C800002D4F0BCBDE80081244238D4F0BCA1F1CC
:104C9000C041BDE8004100F069B94FEAD22242EAC2
:104CA00043524FEAD323A7FB02864FEAD02040EAC3
:104CB000415007FB03661EEA0E0F4FEAD12105FBA8
:104CC000026658BFA6EB0056B6EB00564FEA520EEE
:104CD0004EEAC37E18EB0E0E56EB530EBDD518EB05
:104CE00002085E417F1C55F10005B6E74FF48015C0
:104CF0004FF000074FF000064FF00008ADE7F0BCA2
:104D00004FF0000001F1C04101F00041BDE8008119
:104D100011EA0C1F0CEA131500D00CE013EA0C1F6B
:104D200000F025804FF00000F0BC81EA030101F0A3
:104D30000041BDE80081F0BCBDE8004181EA03010B
:104D400000F014B9F0BCBDE8004170B500F0C0F847
:104D5000097EFC3E00F007B881EA03014FF0000035
:104D600001F00041704781EA030100F0FFB8F0BC98
:104D7000BDE800414FF0000021497047FFFDFBF9FD
:104D8000F7F5F4F2F0EEEDEBE9E8E6E4E3E1E0DE7E
:104D9000DDDBDAD8D7D5D4D3D1D0CFCDCCCBCAC8F0
:104DA000C7C6C5C4C2C1C0BFBEBDBCBBBAB9B8B717
:104DB000B6B5B4B3B2B1B0AFAEADACABAAA9A8A80A
:104DC000A7A6A5A4A3A3A2A1A09F9F9E9D9C9C9BD8
:104DD0009A99999897979695959493939291919083
:104DE0008F8F8E8E8D8C8C8B8B8A89898888878714
:104DF0008685858484838382828181800000FF0789
:104E00000000F87F10F0004248BF4042B0FA80F343
:104E100010FA03F10AD0C3F11D0303F580634FEAD2
:104E2000415002EB035202EBD12170474FF00000DA
:104E30007047B0FA80F310FA03F10AD0C3F11D03F2
:104E400003F580634FEA41504FEA035202EBD12150
:104E500070474FF00000704751EA030C17D41CF55F
:104E6000801F58BFBCF5801F00F10680994218BF13
:104E7000704708BF9042704707D711F5801F58BF91
:104E800013F5801F19D499427047894270471CF569
:104E9000801F08D5BCF5801FF7D58B4218BF70471F
:104EA00008BF824270474FF4001C1CEB410F38BF13
:104EB0001CEB430F01D28B42704770B500F008F82D
:104EC000922449004FF000514FF08053FFF736BE57
:104ED0000EF1020E2EF0030E5EF8046B364205D47E
:104EE000012A43EB030515F5001F12D8012841EBF9
:104EF000010C1CF5001F0CD80ED14FEAD17C15F522
:104F0000001F0CEB4C0C0CF1020C08BF4CEBD37CDB
:104F100004E04FF0080C01E04FEAD37C0CEB4C05A9
:104F200026FA05F606F00706B6F1040C06D20EEBDB
:104F3000860CBDE870404CF0010C6047DFE80CF0D7
:104F4000090B02024FF000414FF00000A1F50021D3
:104F500070BD19461046012851EB010418BFD4F565
:104F6000001484BF002001F0004170BD0808A0F5C6
:104F700000114FEA3101704753EA010C17D41CF5B8
:104F8000801F58BFBCF5801F00F106808B4218BF00
:104F9000704708BF8242704707D713F5801F58BF7C
:104FA00011F5801F19D48B4270479B4270471CF546
:104FB000801F08D5BCF5801FF7D5994218BF7047F0
:104FC00008BF904270474FF4001C1CEB430F38BFE2
:104FD0001CEB410F01D2994270470FB40CBC03BCCB
:104FE000FFF76BBF4FF04070E1EE100A7047000012
:104FF0000000000000000000010203040607080989
:105000000000000001020304A0860100400D03001F
:10501000801A060000350C0040420F0080841E00FC
:1050200000093D0000127A000024F40000366E01F1
:105030000048E801006CDC02585000080000002025
:105040005C050000D0010008745200085C050020D7
:10505000D41A000034020008D20001D20110520517
:105060000810113131372E362E3136332E31373785
:1050700000373505E0054B540D0A3F100B004D6518
:1050800073736167653A2034120838A12362106097
:105090002005093D00413D6014436865636B696EFE
:1050A00067204D6F64756C652053696D166113E060
:1050B000064572726F7215134F6B27A00941542B6E
:1050C0004350494E3F48A141110CD13E2112713B42
:1050D000C35351399005676E616C3C210FF13F312C
:1050E000157142C0045245477D8009756273637231
:1050F000696265716112E189711871CAB005474131
:105100005454CB7405475052530D210DD50B311318
:105110007509100D495054494D454F55543D333094
:1051200001332C320632340622351211A9200553E0
:10513000657474A8400854696D656F757412610ECA
:1051400071A2A114915FB0064D4F44453D4624081D
:1051500072616E736D6974A9626538A114C152B130
:105160001A6585A8084E45544F50454E0A7809499E
:105170006E7465726E6574086111D90A7117614C9D
:10518000B0074950414444524B825045E2503FA63B
:10519000503C940A52584745543D302C3126A008C3
:1051A00052656365697665DFA113B530B1199594D1
:1051B000100853454E443D312C0166000125DB208B
:1051C0000B4461746120546F205443A275499117B8
:1051D000753CF11D79317005434C4B3FC12546119B
:1051E0006912223B2409222C2200222C002CF2449A
:1051F00007436F6E6E6563F51155800753657276D0
:10520000657218911589A101101B9529B8084F5096
:105210005155455259A9114D514C79AF81137527FC
:1052200020065265616479C15011436F6D6D756ED2
:105230006963617465205769746839496624074356
:105240004C4F53453D875006436C6F73735FD1AC31
:10525000511E031A6520C7011621997B316D011279
:105260006BA984B16909108C01141F35A5030000D6
:04527000000000003A
:040000050800019559
:00000001FF
